:020000040800F2
:100000000000032079080008790600087B06000834
:100010007D0600087F060008810600080000000039
:10002000000000000000000000000000830600083F
:100030008506000800000000870600088906000801
:10004000C9080008C9080008C9080008C90800084C
:10005000C9080008C9080008C9080008C90800083C
:10006000C9080008C9080008C9080008C90800082C
:10007000C9080008C9080008C9080008C90800081C
:10008000C9080008C9080008C9080008C90800080C
:10009000C9080008C9080008C9080008C9080008FC
:1000A000C9080008C9080008C9080008C9080008EC
:1000B000C9080008C9080008C9080008C9080008DC
:1000C000C9080008C9080008C9080008C9080008CC
:1000D000C9080008C9080008C9080008C9080008BC
:1000E000C9080008C9080008C9080008C9080008AC
:1000F000C9080008C9080008C9080008C90800089C
:10010000C9080008C9080008C9080008C90800088B
:10011000C9080008C9080008C9080008C90800087B
:10012000C9080008C9080008C9080008C90800086B
:10013000C9080008C9080008C9080008C90800085B
:10014000C9080008C9080008C9080008C90800084B
:10015000C9080008C9080008C9080008C90800083B
:10016000C9080008C9080008C9080008C90800082B
:10017000C9080008C9080008C908000800000000F4
:10018000C9080008C9080008C9080008C90800080B
:10019000C9080008C9080008C9080008C9080008FB
:0C01A0000000000000000000C90800087A
:1001AC0010B5054C237833B9044B13B10448AFF3A5
:1001BC0000800123237010BD1000002000000000FF
:1001CC00541A000808B5034B1BB103490348AFF39D
:1001DC00008008BD0000000014000020541A000824
:1001EC0053B94AB9002908BF00281CBF4FF0FF3192
:1001FC004FF0FF3000F06AB9ADF1080C6DE904CE98
:10020C0000F006F8DDF804E0DDE9022304B07047E5
:10021C002DE9F047089D0C46002B4ED194468C4599
:10022C008646B2FA82F262D94AB1C2F120039140F9
:10023C0020FA03F30CFA02FC194300FA02FE4FEA0F
:10024C001C471FFA8CF6B1FBF7F44FEA1E4307FB71
:10025C00141143EA014304FB06F199420AD91CEB41
:10026C00030304F1FF3080F01281994240F20F81B8
:10027C00023C6344591A1FFA8EF3B1FBF7F007FBEB
:10028C00101143EA014300FB06F69E420AD91CEB0F
:10029C00030300F1FF3180F0FC809E4240F2F980B4
:1002AC00634402389B1B40EA044000211DB1D3403B
:1002BC000022C5E90032BDE8F0878B4205D90DB1AB
:1002CC00C5E9000100210846F5E7B3FA83F10029DE
:1002DC0046D1A34202D39042C0F0F080861A64EB60
:1002EC0003030120002DE6D0C5E90063E3E7002AF3
:1002FC0040F09080A1EB0C044FEA1C481FFA8CF7DD
:10030C000121B4FBF8F64FEA1E4308FB164443EAFE
:10031C00044307FB06F0984208D91CEB030306F1D3
:10032C00FF3402D2984200F2CD8026461C1A1FFAE6
:10033C008EF3B4FBF8F008FB104443EA044300FBD3
:10034C0007F79F4208D91CEB030300F1FF3402D2DC
:10035C009F4200F2B0802046DB1B40EA0640A5E736
:10036C00C1F120068B4022FA06F71F4320FA06FC47
:10037C0004FA01F343EA0C03F44000FA01F8380CD8
:10038C004FEA1349B4FBF0FE1FFA87FC00FB1E4436
:10039C0049EA04440EFB0CF9A14502FA01F20AD910
:1003AC003C190EF1FF3A80F08480A14540F2818027
:1003BC00AEF1020E3C44A4EB09041FFA83F9B4FB22
:1003CC00F0F300FB134449EA044403FB0CFCA44582
:1003DC0007D93C1903F1FF3067D2A44565D9023B1C
:1003EC003C4443EA0E40A0FB0293A4EB0C049C4259
:1003FC00CE469C4651D34ED055B1B8EB0E0364EBB0
:10040C000C0404FA06F6CB401E43CC40C5E900644C
:10041C00002150E7C2F1200320FA03F10CFA02FC90
:10042C0024FA03F394400C434FEA1C4800FA02FEF2
:10043C001FFA8CF7B3FBF8F008FB1031230C43EADE
:10044C00014300FB07F1994208D91CEB030300F1AF
:10045C00FF362CD299422AD9023863445B1AA4B2D3
:10046C00B3FBF8F108FB113344EA034401FB07F337
:10047C00A34208D91CEB040401F1FF3613D2A342AA
:10048C0011D902396444E41A41EA004139E70446BF
:10049C00F0E6084606E7C845AED2B9EB020E63EBB0
:1004AC00070C0138A8E73146EDE7034699E73046DB
:1004BC00D4E7D6467FE7634402384DE70646234629
:1004CC0008460FE7023E634430E700BF704700BFA9
:1004DC0030B58BB0002405940694079408940994C5
:1004EC0001941E4B1A6B42F001021A631A6B02F054
:1004FC0001020192019A02941A6B42F080021A6373
:10050C001A6B02F080020292029A03941A6B42F068
:10051C0010021A631A6B02F010020392039A0494ED
:10052C001A6B42F020021A631B6B03F02003049336
:10053C00049B0B4D22464FF48041284600F082FB71
:10054C004FF480430593012306930794089405A95F
:10055C00284600F071FA0BB030BD00BF00380240E5
:10056C000014024072B6FEE700B595B030220021AF
:10057C0008A801F0D6F9002303930493059306937E
:10058C0007930193234A116C41F080511164126C52
:10059C0002F080520192019A02931F4B1A6842F4A6
:1005AC0040421A601B6803F440430293029B0123F0
:1005BC0008934FF48033099302230E934FF4800277
:1005CC000F9206221092B4221192129304231393C9
:1005DC0008A800F07BFBB0B900F03AFBA8B90F23D8
:1005EC00039302230493002305934FF4A053069323
:1005FC004FF480530793052103A800F0B7FD30B9E1
:10060C0015B05DF804FBFFF7ADFFFFF7ABFFFFF78D
:10061C00A9FF00BF003802400070004008B500F090
:10062C0075F9FFF7A1FFFFF753FF00F0ABF800F0EF
:10063C002BF8FEE782B0002100910B4B5A6C42F470
:10064C0080425A645A6C02F480420092009A0191E2
:10065C001A6C42F080521A641B6C03F080530193A5
:10066C00019B02B0704700BF00380240FEE7FEE776
:10067C00FEE7FEE7FEE770477047704708B500F0ED
:10068C005FF908BD7047000000B583B000230093EC
:10069C0001930E480E4A0260436083604FF6FF726E
:1006AC00C260836100F044FF50B9002300930193B2
:1006BC006946064801F0C6F828B903B05DF804FB9A
:1006CC00FFF750FFF1E7FFF74DFFF6E72C00002096
:1006DC000010004082B00368104A934204D0104AC4
:1006EC0093420ED002B07047002300930D4B5A6C0E
:1006FC0042F001025A645B6C03F001030093009B0F
:10070C00F0E700230193074B1A6C42F010021A64B5
:10071C001B6C03F010030193019BE3E70000014005
:10072C00001000400038024000B587B00023019350
:10073C00029303930493059302680F4B9A4202D0E1
:10074C0007B05DF804FB002300930C4B1A6B42F0CE
:10075C0010021A631B6B03F010030093009B4FF401
:10076C0000630193022302930123059301A904481A
:10077C0000F062F9E4E700BF0000014000380240DD
:10078C000010024010B596B00024129413941494E7
:10079C0015941094119409940A940B940C940D9440
:1007AC000E940F942022214601A801F0BAF82D488E
:1007BC002D4B0360446084604FF6FF73C36004618B
:1007CC004461846100F0B4FE002838D14FF48053AA
:1007DC00129312A9234800F0B5FF002832D121480A
:1007EC0000F0D2FE002830D100231093119310A9F1
:1007FC001C4801F027F858BB6023099300230A9387
:10080C000B930C930D930E930F93042209A9154887
:10081C0000F01EFFF8B90023019302930393049395
:10082C0005934FF400520692089301A90D4801F06C
:10083C004FF898B90B48FFF777FF16B010BDFFF7CC
:10084C0091FEC3E7FFF78EFEC9E7FFF78BFECBE700
:10085C00FFF788FED0E7FFF785FEDCE7FFF782FEA7
:10086C00E8E700BF7400002000000140DFF834D03E
:10087C00FFF708FF0C480D490D4A002302E0D4583D
:10088C00C4500433C4188C42F9D30A4A0A4C0023CE
:10089C0001E013600432A242FBD301F04BF8FFF7E6
:1008AC00BDFE704700000320000000201000002057
:1008BC00901A00081000002058020020FEE70000EB
:1008CC0010B504460E4B1A784FF47A73B3FBF2F35F
:1008DC000C4A1068B0FBF3F000F09AF868B90F2CD2
:1008EC0001D901200AE0002221464FF0FF3000F030
:1008FC007FF8054B1C60002000E0012010BD00BFFC
:10090C0004000020000000200800002008B50B4B5C
:10091C001A6842F400721A601A6842F480621A6013
:10092C001A6842F480721A60032000F04FF80F200E
:10093C00FFF7C6FFFFF77EFE002008BD003C02401B
:10094C00034A1168034B1B780B441360704700BFBC
:10095C00BC00002004000020014B1868704700BF49
:10096C00BC000020002808DB0901C9B200F160407E
:10097C0000F5614080F80013704700F00F0009018A
:10098C00C9B2014B1954704714ED00E000B500F0EA
:10099C000700C0F1070CBCF1040F28BF4FF0040C8A
:1009AC00031D062B0FD9C31E4FF0FF3E0EFA0CF0A1
:1009BC0021EA000199400EFA03FE22EA0E0241EAF6
:1009CC0002005DF804FB0023EEE70000074AD36841
:1009DC0023F4E0631B041B0C000200F4E0600343EF
:1009EC0043F0BF6343F40033D360704700ED00E085
:1009FC0010B50446054BD868C0F30220FFF7C6FFBC
:100A0C0001462046FFF7AEFF10BD00BF00ED00E031
:100A1C000138B0F1807F0BD24FF0E0235861054ACA
:100A2C00F02182F823100020986107221A61704788
:100A3C000120704700ED00E000230F2B00F2F9803D
:100A4C0030B583B069E085684FEA430E032404FA9D
:100A5C000EF425EA0405CC6804FA0EF42C438460E9
:100A6C00446824EA02044A68C2F300129A40224302
:100A7C00426060E0DC08083450F8242003F00705DD
:100A8C00AD004FF00F0E0EFA05FE22EA0E0E0A69AB
:100A9C00AA4042EA0E0240F8242060E0092200E05D
:100AAC00002202FA0EF22A430234624D45F8242049
:100ABC00614A94686FEA0C0224EA0C05D1F804E050
:100ACC001EF4801F01D04CEA04055B4CA560E46861
:100ADC0002EA0405D1F804E01EF4001F01D04CEA30
:100AEC000405554CE560646802EA0405D1F804E09D
:100AFC001EF4003F01D04CEA04054F4C656024689D
:100B0C0022404D6815F4803F01D04CEA04024A4C57
:100B1C00226001330F2B00F28A8001229A400C686C
:100B2C0004EA020C32EA0404F3D14C6804F0030426
:100B3C00013C012C87D94A6802F00302032A09D030
:100B4C00C4685D000322AA4024EA02048A68AA4011
:100B5C002243C2604A6802F00302022A8AD0046867
:100B6C004FEA430E032202FA0EF224EA02044A6808
:100B7C0002F0030202FA0EF2224302604A6812F4F7
:100B8C00403FC6D0002201922C4A546C44F480445D
:100B9C005464526C02F480420192019A9C08A51C88
:100BAC00244A52F8255003F0030E4FEA8E0E0F2202
:100BBC0002FA0EF225EA0205214A90423FF470AF88
:100BCC0002F58062904222D002F58062904220D0E1
:100BDC0002F5806290421ED002F5806290421CD0D9
:100BEC0002F5806290421AD002F58062904218D0D1
:100BFC0002F58062904216D002F58062904214D0C9
:100C0C0002F5806290423FF449AF0A2249E7012283
:100C1C0047E7022245E7032243E7042241E7052286
:100C2C003FE706223DE707223BE7082239E703B0FE
:100C3C0030BD704700380140003C01400038024094
:100C4C00000002400AB1816170470904816170475C
:100C5C0010B582B000230193194B1A6C42F08052EC
:100C6C001A641B6C03F080530193019B154B0122FA
:100C7C001A64FFF771FE0446134B5B6813F4803F54
:100C8C0008D1FFF769FE001BB0F57A7FF4D9032079
:100C9C0002B010BD0B4B01225A64FFF75DFE0446F7
:100CAC00094B5B6813F4003F07D1FFF755FE001B9F
:100CBC00B0F57A7FF4D90320EAE70020E8E700BF1B
:100CCC000038024000000E4200700040002800F086
:100CDC00E08170B582B00446036813F0010F3BD07D
:100CEC009F4B9B6803F00C03042B2CD09C4B9B68F4
:100CFC0003F00C03082B21D06368B3F5803F4FD071
:100D0C00B3F5A02F52D0964B1A6822F480321A6099
:100D1C001A6822F480221A606368002B50D0FFF707
:100D2C001BFE05468E4B1B6813F4003F14D1FFF7D6
:100D3C0013FE401B6428F5D90320B1E1884B5B6896
:100D4C0013F4800FD8D0864B1B6813F4003F03D0EC
:100D5C006368002B00F09F81236813F0020F54D0BE
:100D6C007F4B9B6813F00C0F3ED07D4B9B6803F0C0
:100D7C000C03082B33D0E368002B68D0794B01228D
:100D8C001A60FFF7E9FD0546754B1B6813F0020F5F
:100D9C0054D1FFF7E1FD401B0228F5D903207FE178
:100DAC006F4A136843F480331360B5E76C4B1A68D1
:100DBC0042F480221A601A6842F480321A60ABE75F
:100DCC00FFF7CAFD0546664B1B6813F4003FC3D002
:100DDC00FFF7C2FD401B6428F5D9032060E1604B8E
:100DEC005B6813F4800FC6D15D4B1B6813F0020FC8
:100DFC0003D0E368012B40F05081594A136823F06B
:100E0C00F803216943EAC1031360236813F0080F48
:100E1C0042D063696BB3534B0122C3F8802EFFF7AA
:100E2C009BFD05464E4B5B6F13F0020F34D1FFF761
:100E3C0093FD401B0228F5D9032031E1484A136881
:100E4C0023F0F803216943EAC1031360DDE7454B46
:100E5C0000221A60FFF780FD0546414B1B6813F01A
:100E6C00020FD2D0FFF778FD401B0228F5D90320E2
:100E7C0016E13C4B0022C3F8802EFFF76DFD0546B2
:100E8C00374B5B6F13F0020F06D0FFF765FD401B6D
:100E9C000228F5D9032003E1236813F0040F77D05F
:100EAC002F4B1B6C13F0805F33D1002301932C4B21
:100EBC001A6C42F080521A641B6C03F0805301933D
:100ECC00019B0125284B1B6813F4807F23D0A3685A
:100EDC00012B34D0052B38D0214B1A6F22F0010294
:100EEC001A671A6F22F004021A67A368002B3DD010
:100EFC00FFF732FD06461A4B1B6F13F0020F46D15B
:100F0C00FFF72AFD801B41F288339842F3D9032066
:100F1C00C6E00025D6E7144A136843F480731360C7
:100F2C00FFF71AFD0646104B1B6813F4807FCED1D9
:100F3C00FFF712FD801B0228F5D90320B0E0084A08
:100F4C00136F43F001031367CFE7054B1A6F42F0A1
:100F5C0004021A671A6F42F001021A67C5E700BF54
:100F6C00003802400000474200700040FFF7F4FCDC
:100F7C000646524B1B6F13F0020F08D0FFF7ECFC28
:100F8C00801B41F288339842F3D9032088E0EDB9F5
:100F9C00A369002B00F08380484A926802F00C028F
:100FAC00082A51D0022B17D0454B00221A66FFF7A6
:100FBC00D3FC0446414B1B6813F0007F42D0FFF773
:100FCC00CBFC001B0228F5D9032069E03B4A136CCB
:100FDC0023F080531364DBE7394B00221A66FFF7CA
:100FEC00BBFC0546354B1B6813F0007F06D0FFF7A2
:100FFC00B3FC401B0228F5D9032051E0E369226AB7
:10100C001343626A43EA8213A26A5208013A43EA22
:10101C000243E26A43EA0263284A5360284B0122E6
:10102C001A66FFF799FC0446244B1B6813F0007FEB
:10103C0006D1FFF791FC001B0228F5D903202FE005
:10104C0000202DE000202BE0012B2BD01B4B5B68EC
:10105C0003F48001E269914226D103F03F02216A38
:10106C008A4223D1616A47F6C0721A40B2EB811FE3
:10107C001ED103F44031A26A5208013AB1EB024F7F
:10108C0018D103F07063E26AB3EB026F14D1002045
:10109C0006E001207047012002E0012000E0002062
:1010AC0002B070BD0120FBE70120F9E70120F7E752
:1010BC000120F5E70120F3E70120F1E700380240B9
:1010CC000000474208B5264B9B6803F00C03042B29
:1010DC0041D0082B41D1224B5A6802F03F025B6889
:1010EC0013F4800F12D01E4B5968C1F388111D48A0
:1010FC000023A1FB0001FFF773F8194B5B68C3F3E6
:10110C00014301335B00B0FBF3F027E0144B58684C
:10111C00C0F388104FEA401CBCEB000C6EEB0E0EBB
:10112C004FEA8E1343EA9C634FEA8C11B1EB0C012E
:10113C0063EB0E03DB0043EA5173C90011EB000CA7
:10114C0043F10003990200234FEA8C2041EA9C51A1
:10115C00FFF746F8D1E7034800E0034808BD00BF9D
:10116C0000380240001BB7000024F400002800F0F7
:10117C009B8070B50D4604464F4B1B6803F00F0364
:10118C008B4208D2CBB24C4A1370136803F00F0396
:10119C008B4240F08B80236813F0020F17D013F0B2
:1011AC00040F04D0454A936843F4E05393602368DA
:1011BC0013F0080F04D0414A936843F460439360E2
:1011CC003E4A936823F0F003A1680B4393602368B5
:1011DC0013F0010F32D06368012B21D09A1E012A23
:1011EC0025D9364A126812F0020F61D033498A6849
:1011FC0022F0030213438B60FFF7AEFB06462F4B26
:10120C009B6803F00C036268B3EB820F16D0FFF7F8
:10121C00A3FB801B41F288339842F0D9032042E0B3
:10122C00264A126812F4003FE0D101203BE0234A29
:10123C00126812F0007FD9D1012034E01E4B1B68DC
:10124C0003F00F03AB4207D9EAB21B4B1A701B68B1
:10125C0003F00F03AB422DD1236813F0040F06D01B
:10126C00164A936823F4E053E1680B4393602368B8
:10127C0013F0080F07D0114A936823F460432169D7
:10128C0043EAC1039360FFF71DFF0C4B9B68C3F34C
:10129C0003130B4AD35CD8400A4B18600A4B1868EE
:1012AC00FFF70EFB002070BD012070470120FAE70C
:1012BC000120F8E70120F6E7003C0240003802402C
:1012CC006C1A0008000000200800002030B4036AEB
:1012DC00026A22F0010202624268846924F0730CF3
:1012EC000C6844EA0C0423F0020C8B6843EA0C03F0
:1012FC00114DA84203D005F58065A84205D123F015
:10130C000803CD682B4323F004030B4DA84203D0F4
:10131C0005F58065A84207D122F440724D6945EA73
:10132C00020C8A6942EA0C02426084614A68426398
:10133C00036230BC704700BF0000014030B4036A48
:10134C00026A22F4807202624268C46924F0730C4F
:10135C000C6844EA0C0523F400738C6843EA0423FC
:10136C00114CA04203D004F58064A04206D123F4B2
:10137C000063CC6843EA042323F480630A4CA04244
:10138C0003D004F58064A04207D122F440524C698A
:10139C0042EA04128C6942EA04124260C5614A684E
:1013AC00C263036230BC70470000014030B4036A72
:1013BC00026A22F4805202624468C26922F4E64254
:1013CC000D6842EA052223F400538D6843EA053385
:1013DC00094DA84203D005F58065A84204D124F438
:1013EC0080444D6944EA85144460C2614A680264D1
:1013FC00036230BC704700BF0000014010B4036AA8
:10140C00046A24F001040462846924F0F00C4CEAB0
:10141C00021223F00A030B438261036210BC704773
:10142C0010B4036A046A24F010040462846924F47E
:10143C00704C4CEA023223F0A00343EA01138261A0
:10144C00036210BC7047836823F070030B4343F0B6
:10145C0007038360704770470368344A904212D088
:10146C00B0F1804F0FD0A2F57C4290420BD002F528
:10147C008062904207D002F58062904203D002F560
:10148C007842904203D123F070034A681343274AF1
:10149C0090422AD0B0F1804F27D0A2F57C429042E6
:1014AC0023D002F5806290421FD002F580629042F8
:1014BC001BD002F57842904217D002F57052904240
:1014CC0013D002F5806290420FD002F580629042F8
:1014DC000BD0A2F59832904207D002F58062904270
:1014EC0003D002F58062904203D123F44073CA68A2
:1014FC00134323F080034A69134303608B68C36270
:10150C000B688362094B984203D003F580639842C1
:10151C0001D10B69036301234361036913F0010FCC
:10152C0003D0036923F001030361704700000140FD
:10153C0040B310B5044690F83D30F3B1022384F863
:10154C003D30214651F8040BFFF786FF012384F848
:10155C00463084F83E3084F83F3084F8403084F8CC
:10156C00413084F8423084F8433084F8443084F8B5
:10157C00453084F83D30002010BD80F83C30FFF73A
:10158C00A9F8DBE70120704740B310B5044690F88A
:10159C003D30F3B1022384F83D30214651F8040B61
:1015AC00FFF75AFF012384F8463084F83E3084F864
:1015BC003F3084F8403084F8413084F8423084F86D
:1015CC00433084F8443084F8453084F83D300020B2
:1015DC0010BD80F83C30FFF73EFFDBE70120704781
:1015EC0030B4036A026A22F0100202624468826913
:1015FC0022F4E6420D6842EA052223F020038D68AE
:10160C0043EA0513114DA84203D005F58065A842A5
:10161C0006D123F08003CD6843EA051323F0400381
:10162C000A4DA84203D005F58065A84207D124F4E1
:10163C0040644D6944EA85048D6944EA850444603C
:10164C0082614A688263036230BC704700000140CB
:10165C0038B590F83C30012B66D004460D4601237A
:10166C0080F83C300C2A5AD8DFE802F00759595957
:10167C001B5959593059595944000068FFF726FE37
:10168C002268936943F0080393612268936923F0FD
:10169C00040393612268936929690B4393610020C9
:1016AC003EE00068FFF79CFF2268936943F40063F7
:1016BC0093612268936923F4806393612268936930
:1016CC00296943EA01239361002029E00068FFF7B0
:1016DC0035FE2268D36943F00803D3612268D369CD
:1016EC0023F00403D3612268D36929690B43D361C6
:1016FC00002015E00068FFF759FE2268D36943F417
:10170C000063D3612268D36923F48063D3612268B8
:10171C00D369296943EA0123D361002000E0012049
:10172C00002384F83C3038BD0220FCE710B48468F8
:10173C0024F47F4C42EA03220A4342EA0C02826000
:10174C0010BC704790F83C30012B78D010B5044693
:10175C00012380F83C30022380F83D300268936806
:10176C0023F47F4323F0770393600B68602B4CD0FA
:10177C0029D8402B54D00CD9502B22D1CA68496897
:10178C000068FFF73BFE50212068FFF75CFE00204D
:10179C0005E0202B0DD009D9302B0AD001200123D4
:1017AC0084F83D30002384F83C3010BD0BB1102B75
:1017BC0005D119462068FFF746FE0020EFE701200F
:1017CC00EDE70120EBE7B3F5805F34D0B3F5005FB4
:1017DC000CD1CB684A6889680068FFF7A7FF2268BC
:1017EC00936843F4804393600020D8E7702B24D196
:1017FC00CB684A6889680068FFF798FF226893688D
:10180C0043F0770393600020C9E7CA684968006811
:10181C00FFF706FE60212068FFF715FE0020BEE7EB
:10182C00CA6849680068FFF7E9FD40212068FFF7A6
:10183C000AFE0020B3E70020B1E70120AFE7022049
:10184C007047000090F83C20012A3CD010B40346AD
:10185C00012280F83C20022280F83D20026850686A
:10186C00946820F0700C086840EA0C0050601A680C
:10187C00164882421AD0B2F1804F17D0A0F57C40A6
:10188C00824213D000F5806082420FD000F5806058
:10189C0082420BD000F57840824207D000F57050A0
:1018AC00824203D0A0F59430824204D124F080040B
:1018BC00496821439160012283F83D20002083F880
:1018CC003C0010BC70470220704700BF0000014074
:1018DC00024690F83C30012B21D0012380F83C309B
:1018EC00CB6823F440738868034323F4806348680F
:1018FC00034323F400630868034323F4805308690B
:10190C00034323F400534869034323F48043C96918
:10191C000B4311684B64002082F83C007047022096
:10192C00704702440346934200D1704703F8011BF1
:10193C00F9E7000070B50D4D0D4C641BA41000268A
:10194C00A64209D10B4D0C4C00F07EF8641BA41080
:10195C000026A64205D170BD55F8043B98470136C8
:10196C00EEE755F8043B98470136F2E7841A000875
:10197C00841A0008841A00088C1A000870477047F3
:10198C00024B13B1024800F005B87047000000008C
:10199C00AD190008002301461A46184600F014B889
:1019AC0038B5074D074C641BA4101CB9BDE8384072
:1019BC0000F050B8013C55F824309847F5E700BFCB
:1019CC008C1A0008901A00082DE9F047DFF86CA07B
:1019DC000646DAF8000098460F469146FFF7CEFF10
:1019EC00174B1C680CB9174C1C606568DAF80000C2
:1019FC001F2D05DDFFF7C3FF4FF0FF30BDE8F0876B
:101A0C009EB104EB85010122C1F88890D4F888318D
:101A1C00AA401343C4F88831022EC1F8088102BFD2
:101A2C00D4F88C311343C4F88C316B1C02356360D1
:101A3C0044F82570FFF7A3FF0020DFE70C0000201F
:101A4C00C4000020C8000020F8B500BFF8BC08BCDA
:101A5C009E467047F8B500BFF8BC08BC9E46704760
:101A6C000000000000000000010203040607080942
:081A7C00A0E7FF7F010000005C
:081A84008D190008D1010008D2
:041A8C00AD010008A0
:101A90000024F4000100000010000000C00000203D
:04000005080008796E
:00000001FF
