:020000040800F2
:100000000000022001280008A9250008AB250008EF
:10001000AD250008AF250008B1250008000000004C
:10002000000000000000000000000000B3250008F0
:10003000B525000800000000B7250008B925000814
:1000400051280008512800085128000851280008AC
:10005000512800085128000851280008512800089C
:10006000512800085128000851280008512800088C
:10007000512800085128000851280008512800087C
:10008000512800085128000851280008512800086C
:10009000C1250008512800085128000851280008EF
:1000A000512800085128000851280008512800084C
:1000B000512800085128000851280008512800083C
:1000C000512800085128000851280008512800082C
:1000D00051280008D125000851280008512800089F
:1000E000512800085128000851280008512800080C
:1000F00051280008512800085128000851280008FC
:1001000051280008512800085128000851280008EB
:100110005128000851280008E1250008512800084E
:100120005128000851280008F1250008512800082E
:1001300051280008512800085128000851280008BB
:1001400001260008512800085128000851280008FD
:10015000512800085128000851280008512800089B
:10016000512800085128000851280008512800088B
:1001700051280008512800085128000800000000FC
:08018000512800085128000875
:1001880010B5054C237833B9044B13B10448AFF3C9
:1001980000800123237010BD4401002000000000EE
:1001A800044A000808B5034B1BB103490348AFF3E1
:1001B800008008BD0000000048010020044A000833
:1001C80080F0004002E000BF81F0004142001FBF04
:1001D8005FEA410392EA030F7FEA226C7FEA236C0D
:1001E8006AD04FEA1262D2EB1363C1BFD218414002
:1001F80048404140B8BF5B42192B88BF704710F098
:10020800004F40F4000020F07F4018BF404211F03A
:10021800004F41F4000121F07F4118BF494292EAA2
:10022800030F3FD0A2F1010241FA03FC10EB0C00CE
:10023800C3F1200301FA03F100F0004302D549425B
:1002480060EB4000B0F5000F13D3B0F1807F06D308
:1002580040084FEA310102F10102FE2A51D2B1F100
:10026800004F40EBC25008BF20F0010040EA0300F5
:100278007047490040EB0000013A28BFB0F5000F75
:10028800EDD2B0FA80FCACF1080CB2EB0C0200FA2B
:100298000CF0AABF00EBC25052421843BCBFD0407A
:1002A8001843704792F0000F81F4000106BF80F4F4
:1002B80000000132013BB5E74FEA41037FEA226CB7
:1002C80018BF7FEA236C21D092EA030F04D092F082
:1002D800000F08BF0846704790EA010F1CBF0020B6
:1002E800704712F07F4F04D1400028BF40F0004013
:1002F800704712F100723CBF00F50000704700F033
:10030800004343F0FE4040F4000070477FEA226259
:1003180016BF08467FEA23630146420206BF5FEA2A
:10032800412390EA010F40F4800070474FF000032A
:1003380004E000BF10F0004348BF40425FEA000CF1
:1003480008BF704743F0964301464FF000001CE099
:1003580050EA010208BF70474FF000030AE000BFEF
:1003680050EA010208BF704711F0004302D540422D
:1003780061EB41015FEA010C02BF8446014600209F
:1003880043F0B64308BFA3F18053A3F50003BCFABA
:100398008CF2083AA3EBC25310DB01FA02FC634467
:1003A80000FA02FCC2F12002BCF1004F20FA02F26E
:1003B80043EB020008BF20F00100704702F1200261
:1003C80001FA02FCC2F1200250EA4C0021FA02F2C2
:1003D80043EB020008BF20EADC7070474FF0FF0CC7
:1003E8001CEAD0521EBF1CEAD15392EA0C0F93EAC2
:1003F8000C0F6FD01A4480EA010C400218BF5FEA64
:1004080041211ED04FF0006343EA501043EA5111D6
:10041800A0FB01310CF00040B1F5000F3EBF4900D0
:1004280041EAD3715B0040EA010062F17F02FD2AD4
:100438001DD8B3F1004F40EBC25008BF20F00100B7
:10044800704790F0000F0CF0004C08BF49024CEACE
:10045800502040EA51207F3AC2BFD2F1FF0340EA60
:10046800C250704740F400004FF00003013A5DDCD1
:1004780012F1190FDCBF00F000407047C2F1000212
:10048800410021FA02F1C2F1200200FA02FC5FEAFF
:10049800310040F1000053EA4C0308BF20EADC7049
:1004A800704792F0000F00F0004C02BF400010F4BB
:1004B800000F013AF9D040EA0C0093F0000F01F068
:1004C800004C02BF490011F4000F013BF9D041EA8A
:1004D8000C018FE70CEAD15392EA0C0F18BF93EA8C
:1004E8000C0F0AD030F0004C18BF31F0004CD8D1B6
:1004F80080EA010000F00040704790F0000F17BF3D
:1005080090F0004F084691F0000F91F0004F14D082
:1005180092EA0C0F01D142020FD193EA0C0F03D1DA
:100528004B0218BF084608D180EA010000F00040DD
:1005380040F0FE4040F40000704740F0FE4040F4B8
:10054800400070474FF0FF0C1CEAD0521EBF1CEA57
:10055800D15392EA0C0F93EA0C0F69D0A2EB030275
:1005680080EA010C49024FEA402037D04FF080530F
:1005780043EA111143EA10130CF000408B4238BFD4
:100588005B0042F17D024FF4000C8B4224BF5B1AE2
:1005980040EA0C00B3EB510F24BFA3EB510340EA30
:1005A8005C00B3EB910F24BFA3EB910340EA9C00DE
:1005B800B3EBD10F24BFA3EBD10340EADC001B014E
:1005C80018BF5FEA1C1CE0D1FD2A3FF650AF8B42F2
:1005D80040EBC25008BF20F0010070470CF0004CFF
:1005E8004CEA50207F32C2BFD2F1FF0340EAC2502A
:1005F800704740F400004FF00003013A37E792F0EB
:10060800000F00F0004C02BF400010F4000F013A48
:10061800F9D040EA0C0093F0000F01F0004C02BF43
:10062800490011F4000F013BF9D041EA0C0195E7AC
:100638000CEAD15392EA0C0F08D142027FF47DAF45
:1006480093EA0C0F7FF470AF084676E793EA0C0F35
:1006580004D14B023FF44CAF08466EE730F0004C33
:1006680018BF31F0004CCAD130F000427FF45CAFC3
:1006780031F000437FF43CAF5FE700BF4FF0FF3C31
:1006880006E000BF4FF0010C02E000BF4FF0010C84
:100698004DF804CD4FEA40024FEA41037FEA226C4D
:1006A80018BF7FEA236C11D001B052EA530C18BF6F
:1006B80090EA010F58BFB2EB030088BFC81738BFD4
:1006C8006FEAE17018BF40F0010070477FEA226CC2
:1006D80002D15FEA402C05D17FEA236CE4D15FEABE
:1006E800412CE1D05DF8040B704700BF84460846F2
:1006F8006146FFE70FB5FFF7C9FF002848BF10F1B3
:10070800000F0FBD4DF808EDFFF7F4FF0CBF0120F7
:1007180000205DF808FB00BF4DF808EDFFF7EAFF81
:1007280034BF012000205DF808FB00BF4DF808ED3C
:10073800FFF7E0FF94BF012000205DF808FB00BF31
:100748004DF808EDFFF7D2FF94BF012000205DF8B7
:1007580008FB00BF4DF808EDFFF7C8FF34BF0120C4
:1007680000205DF808FB00BF42000ED2B2F1FE4F38
:100778000BD34FF09E03B3EB126209D44FEA002368
:1007880043F0004323FA02F070474FF0000070472F
:1007980012F1610F01D1420202D14FF0FF307047D0
:1007A8004FF00000704700BF53B94AB9002908BF8D
:1007B80000281CBF4FF0FF314FF0FF3001F0F6B8B2
:1007C800ADF1080C6DE904CE00F006F8DDF804E0A0
:1007D800DDE9022304B070472DE9F047089D0C4677
:1007E800002B4ED194468C458646B2FA82F262D9E5
:1007F8004AB1C2F12003914020FA03F30CFA02FC3B
:10080800194300FA02FE4FEA1C471FFA8CF6B1FBA7
:10081800F7F44FEA1E4307FB141143EA014304FBB4
:1008280006F199420AD91CEB030304F1FF3080F06A
:100838001281994240F20F81023C6344591A1FFA0F
:100848008EF3B1FBF7F007FB101143EA014300FBFD
:1008580006F69E420AD91CEB030300F1FF3180F033
:10086800FC809E4240F2F980634402389B1B40EAB8
:10087800044000211DB1D3400022C5E90032BDE883
:10088800F0878B4205D90DB1C5E900010021084662
:10089800F5E7B3FA83F1002946D1A34202D3904287
:1008A800C0F0F080861A64EB03030120002DE6D027
:1008B800C5E90063E3E7002A40F09080A1EB0C044F
:1008C8004FEA1C481FFA8CF70121B4FBF8F64FEAEF
:1008D8001E4308FB164443EA044307FB06F098420C
:1008E80008D91CEB030306F1FF3402D2984200F248
:1008F800CD8026461C1A1FFA8EF3B4FBF8F008FBCD
:10090800104443EA044300FB07F79F4208D91CEB55
:10091800030300F1FF3402D29F4200F2B080204668
:10092800DB1B40EA0640A5E7C1F120068B4022FA0E
:1009380006F71F4320FA06FC04FA01F343EA0C0306
:10094800F44000FA01F8380C4FEA1349B4FBF0FE02
:100958001FFA87FC00FB1E4449EA04440EFB0CF90D
:10096800A14502FA01F20AD93C190EF1FF3A80F0CA
:100978008480A14540F28180AEF1020E3C44A4EB94
:1009880009041FFA83F9B4FBF0F300FB134449EAA6
:10099800044403FB0CFCA44507D93C1903F1FF30C0
:1009A80067D2A44565D9023B3C4443EA0E40A0FB0C
:1009B8000293A4EB0C049C42CE469C4651D34ED0E5
:1009C80055B1B8EB0E0364EB0C0404FA06F6CB4001
:1009D8001E43CC40C5E90064002150E7C2F1200362
:1009E80020FA03F10CFA02FC24FA03F394400C43B6
:1009F8004FEA1C4800FA02FE1FFA8CF7B3FBF8F026
:100A080008FB1031230C43EA014300FB07F199422C
:100A180008D91CEB030300F1FF362CD299422AD9DE
:100A2800023863445B1AA4B2B3FBF8F108FB113334
:100A380044EA034401FB07F3A34208D91CEB04046E
:100A480001F1FF3613D2A34211D902396444E41AE2
:100A580041EA004139E70446F0E6084606E7C8459A
:100A6800AED2B9EB020E63EB070C0138A8E73146AA
:100A7800EDE7034699E73046D4E7D6467FE7634477
:100A880002384DE70646234608460FE7023E634410
:100A980030E700BF03685A004CBF43F0004323F01F
:100AA80000431844704700BF2DE9F84349B34F1E6F
:100AB800044615463E464FF0000909EB060101EBD6
:100AC800D171491004EBC1084046FFF7E3FF8F429C
:100AD80003464FEAC1000FD00830AB42204407D884
:100AE800FFF7D8FF0138A84208D201F10109E4E76D
:100AF800894506D04E1EE0E7AB42F9D84046BDE82E
:100B0800F8834FF000084046BDE8F883012807D075
:100B1800022807D0044B00280CBF18460020704755
:100B28000248704702487047DD110008E1110008CB
:100B3800E511000830B5214B83B004468D1E1BB368
:100B480001A92846AFF3008088B301992A46FFF728
:100B5800ABFF014658B3FFF79DFF4B68A064012B1C
:100B680028D0002B01F104001FDBFFF793FF0023BF
:100B780023650368E064002B0DDBFFF78BFF03465A
:100B88000020236103B030BD0D4B0E49C91AC910AE
:100B980018460191DAE7C3F30360FFF7B7FF03468E
:100BA80028B10020236103B030BD0123E0E7002312
:100BB8000920E6E700230520E3E700BF0000000066
:100BC800A04A0008C84B00080368DA0710B50446B5
:100BD80006D49B0700F1480009D500F069FC23689A
:100BE800590709D51A070ED5DB0613D510BD00F035
:100BF80057FC23685907F5D404F1D00000F060FCD5
:100C080023681A07F0D404F5A87000F061FC236883
:100C1800DB06EBD404F5E870BDE8104000F09CBC9E
:100C2800092070470346006800B11844704700BFA8
:100C3800704700BF70B504460E46316C2046FFF77A
:100C480079FF054688B9326C6261236932462146CC
:100C5800012098470828F0D0072806D12846316C8B
:100C6800FFF7E6FF301D00F00FFC03F0D5FD00BFD5
:100C78002DE9F0470D1DD0F80C80D0F818900746E4
:100C880014460FCDADF5727D0DF10C0CACE80F00DC
:100C98000FCDACE80F000FCDACE80F0095E80F00C2
:100CA80002AE4FF0000E8CE80F00C6F800E020E01E
:100CB800336C7B614FF4F07231467AA803F02CFE56
:100CC8003B697AAA394650469847889B73642146FF
:100CD800CDE9006905463B463A460120C04704462F
:100CE80018BB4FF4F0727AA9304603F015FE082DB0
:100CF80019D1316C3846FFF71DFF09345FFA84FAC1
:100D080005460028D4D0B36B73643A46CDE9006930
:100D18003B464AF010010120C04730B928460DF57E
:100D2800727DBDE8F087072D05D0092528460DF509
:100D3800727DBDE8F0872046316CFFF779FF03A884
:100D480000F0A2FB406C7047F0B5CB6B0B6401F16F
:100D5800040C0E460546BCE80F00F9B001AC0FC400
:100D6800BCE80F000FC4BCE80F000FC49CE80F00DC
:100D78004FF0FF3784E80F00009706E02B696A46BA
:100D8800294698470828044608D110992846FFF7AD
:100D9800D1FE0028F2D0092079B0F0BD6846FFF7EF
:100DA80013FF062CF7D131462846FFF743FF00BF53
:100DB800C160D96B826119640022194658E700BFE7
:100DC80070B5C66843690B64AEB903690A46044640
:100DD8000D46014602209847072805D008280FD15C
:100DE80029462046FFF726FF3046296CFFF720FFEB
:100DF800281D00F049FB0122FFF73AFF03F00CFD24
:100E080003F00AFDC2681AB1CA6B0A6400222FE710
:100E18009AE700BF704700BF836801460BB1012005
:100E280018477047012910D009D883B90F2A0ED85E
:100E380000EB820218465368009A13607047033922
:100E480001298CBF02200120704708467047022004
:100E5800704700BF00B585B00A46002303A900917A
:100E68001946FFF7DFFF039805B05DF804FB00BFE4
:100E7800012910D009D883B90F2A0ED8009900EBA0
:100E880082020968516018467047033901298CBFEE
:100E9800022001207047084670470220704700BFB3
:100EA80010B584B0002303AC039200940A46194697
:100EB800FFF7DEFF04B010BD70B5D36B136402F109
:100EC800040C05460C46BCE80F00ADF50E7D0DF18F
:100ED8005C0EAEE80F00BCE80F00AEE80F00BCE8FF
:100EE8000F00AEE80F009CE80F004FF0FF368EE8C9
:100EF8000F00169610E0FFF7D3FF214616A8A84763
:100F0800034616AA6946082083B9049B9847052812
:100F180006460CD0092809D026996846FFF70AFE2C
:100F280003466A460C2116A8002BE4D0092616A809
:100F3800FFF74AFE30460DF50E7D70BD2DE9F04FE6
:100F48009346CA6C89B00D4652F8041B069200F00D
:100F5800030C002B79D00C0C8DF81D400904E4B269
:100F6800059102EB840202212F6D8DF81C10BCF153
:100F7800020F08BFAA6B17F001070CD005A9584645
:100F880000F084FB18B9082009B0BDE8F08F0920EB
:100F980009B0BDE8F08F1668002EEFD000F0080108
:100FA8000191B246029764469946B9F1020F48D0BA
:100FB800B2F800A0568802F10408AA6C26F00103D2
:100FC8000F2158469F18FFF745FF874237D82AF068
:100FD80001023A44824294BF00220122730003F0C6
:100FE80002030AF0010A43EA0A03012B47D0022B45
:100FF80031D0002BCBD114B1002A40F0C98008F1C0
:101008000402D2F800A0BAF1000FCED105A95846C3
:10101800029F00F03BFB0028B9D1002FB3D00F216D
:101028005846FFF717FF0E2102465846FFF738FFCC
:10103800674A0F215846FFF733FF0720A8E7002229
:10104800CCE7566802F10808B7E7090205918DF860
:101058001D30032188E7D8F8006026F00043002CF3
:1010680044D122B1019A002A5AD0002B58D0002E20
:1010780001DA08F10408013308EB8302C1E7ECB98F
:10108800CAB1D8F80430D8F80020991C4FEAD272B7
:101098003FF47DAF05F158010133049100F08B80D6
:1010A80008F10400FFF7BEFD04AB01462846AFF384
:1010B8000080002857D108F10802A2E70D21584600
:1010C800FFF7C8FE2B6A8342F5D1AB6A9845F2D187
:1010D8004046FFF7DFFC0F2102465846FFF7E0FEC7
:1010E8002A4600215846FFF7DBFEA6E70D215846A1
:1010F8000393FFF7AFFE2A6A039B8242B7D1AA6A1D
:101108009045B4D100270422C5E90B724244AB6272
:101118006A63D8F80020BA4255DB01220292AAE796
:10112800039408F1040A002605F158071C460DE04F
:1011380050460497FFF776FD0022014604AB284687
:1011480001360AF1040AAFF30080E0B9A642EFD1F4
:101158000D215846FFF77EFE049BC5F82880C5E997
:101168000803062014E704460D215846FFF772FECF
:10117800049E2862022C04BFEE6205F12C06C5E924
:101188000968062004E72346D8F80060039C6EE748
:101198004046FFF77FFC08F104020446AA6328468C
:1011A800AFF3008000283FF4F2AE22460F215846E4
:1011B800FFF776FE41E70C4658460D21FFF74AFE39
:1011C80026462862DBE7581C08EB800081E700BF51
:1011D800000000000023B1E60123AFE60223ADE6DC
:1011E8002DE9F0430646C3B015461C46042900F213
:1011F800D180DFE801F0AC51CF2A0300002C40F089
:10120800C980102A00F2C6800368DC0600F1E78076
:1012180020AF384600F0AAF9B46B394600234FF0E6
:10122800010C0CFA03F22A42204603F1010303D011
:1012380050F8042B0A600446042B01F10401F0D194
:10124800B463384600F088F999E0032C40F0A28096
:1012580094B204EB1243102B4FEA124500F29A8025
:1012680003681F0700F1C38020AF384600F052F929
:10127800B26B07EBC50154B10B46D01A01EBC401A0
:10128800E4001D5843F8045B8B42FAD12244B26350
:10129800384600F01DF972E0012C4FEA124895B269
:1012A80071D0052C76D108EB0509B9F1200F71D85A
:1012B800B8F10F0F72D8B9F1100F036800F29F80D0
:1012C800D90708D523F00103304643F0020340F85C
:1012D800483B00F0F1F820AF384600F0EDF8B36B6A
:1012E800002D00F0B9806D006A1E07EBC8010025CB
:1012F8000132043903EB820253F8040B41F8040F5E
:101308009342F9D1002D00F0A1804146102938BF41
:1013180010216B0010396F46013B07EBC101013307
:10132800043902EB830352F8040B41F8040F9A4284
:10133800F9D1012C00F08880B8F10F0FB26302D800
:1013480020A800F0B5F8384600F0BAF817E00CBB52
:10135800806B23461FFA82FC0124371D04FA03F12F
:1013680011EA0C0F024604D052F8041B47F8231068
:1013780010460133102BF1D1AC0400D4B063002027
:1013880043B0BDE8F08308EB0503102B02D8B8F191
:10139800100F14D1022043B0BDE8F083002DEED029
:1013A80003685A075CD46F46384600F08DF8B26B74
:1013B8006B00A8F11001013B07EBC101AFE703681F
:1013C800DA0759D420AF384600F06EF8B36B002D19
:1013D80089D10433B363384600F062F8CFE723F0CD
:1013E8001003036000F5E87000F0C0F810E723F080
:1013F8000803036000F5A87000F08CF834E7D907FB
:1014080008D523F0010343F0020340F8483B00F0FD
:1014180053F83368580706D5304623F0040340F8DC
:10142800D03B00F051F820AF384600F045F8684648
:1014380000F04AF8C8F110025200B36BA9F1100588
:10144800013A07EBC80153E720AFC2E7012CC0D02F
:10145800B8F10F0FB36392D8384600F029F88EE739
:1014680023F0040340F8D03B6F4600F02DF83846CF
:1014780000F02AF8B26B9BE7304623F0030340F8EC
:10148800483B00F011F89DE700F1340191E838007D
:101498009C46A6464CF8045D90E8FF0FE54600BD63
:1014A80090EC210B704700BF80EC210B704700BF08
:1014B80090EC200B704700BF80EC200B704700BFFA
:1014C800D0EC200B704700BFC0EC200B704700BF6A
:1014D800F0EC0201F0EC0211F0EC0221F0EC023128
:1014E800F0EC0241F0EC0251F0EC0261F0EC027118
:1014F800F0EC0281F0EC0291F0EC02A1F0EC02B108
:10150800F0EC02C1F0EC02D1F0EC02E1F0EC02F1F7
:10151800704700BFE0EC0201E0EC0211E0EC0221B0
:10152800E0EC0231E0EC0241E0EC0251E0EC026157
:10153800E0EC0271E0EC0281E0EC0291E0EC02A147
:10154800E0EC02B1E0EC02C1E0EC02D1E0EC02E137
:10155800E0EC02F1704700BFB0FC0181B0FC0191E2
:10156800B0FC01A1B0FC01B1704700BFA0FC018133
:10157800A0FC0191A0FC01A1A0FC01B1704700BF33
:10158800EC4600B52DE900502DE9FF1F4FF0000390
:101598002DE90C0001A9FFF7D7FBDDF840E012B0F8
:1015A800704700BFEC4600B52DE900502DE9FF1F3C
:1015B8004FF000032DE90C0001A9FFF701FCDDF84D
:1015C80040E012B0704700BFEC4600B52DE900506E
:1015D8002DE9FF1F4FF000032DE90C0001A9FFF7CB
:1015E80011FCDDF840E012B0704700BFEC4600B5D2
:1015F8002DE900502DE9FF1F4FF000032DE90C00E5
:1016080001ABFFF7D5FBDDF840E012B0704700BF33
:10161800EC4600B52DE900502DE9FF1F4FF00003FF
:101628002DE90C0001AAFFF747FCDDF840E012B0F5
:10163800704700BF027A03467AB9427AA2B141687C
:10164800013A10B44272086803220C1D1A72020291
:101658005C60000E10BC1A6070470068013A1A728C
:1016680002021A60000E7047B020704700B585B0BE
:10167800002303AA009219460C22FFF7D3FB039814
:1016880005B05DF804FB00BFF0E700BF2DE9F043AB
:10169800064685B00D464FF000082846FFF7CAFFFA
:1016A800B028044600F0DA80070646D500F0F003BB
:1016B800802B5ED0B02B73D01BD8902B00F09B8072
:1016C800A02B12D1C34303F007034FF47F621A41E2
:1016D800010702F47F6201D542F4804200231946D3
:1016E8003046FFF77DFD0028D7D0092005B0BDE8BA
:1016F800F083C02B6DD1C62800F09380C72800F076
:10170800B28000F0F803C02B00F0D280C82800F0A7
:10171800DD80C928E9D12846FFF78CFF020300F0D5
:101728000F0002F4702201300243012105233046E4
:10173800FFF756FD0028B0D0D7E78300DBB21F1DA6
:101748000DF10C0900231946CDF800900D22304602
:10175800FFF768FB039BCDF8009060064CBFDF1BCA
:10176800FF1800230D22194630460397FFF780FB28
:1017780093E72846FFF75EFF24022043B0F5004FA9
:10178800B3D004010023A2B219463046FFF728FD62
:101798000028AAD114F4004F18BF4FF001087CE7C5
:1017A800B12851D0B22800F0AD80B3286DD000F038
:1017B800FC03B42B99D000F007020132012342F454
:1017C800002219463046FFF70BFD00283FF465AFAD
:1017D8008BE700F0F803D02B87D100F00702013225
:1017E800052342F4002201213046FFF7F9FC0028C6
:1017F8003FF453AF79E700F00D030D2B3FF475AFBD
:1018080003AF002300F00F02194600973046FFF798
:1018180009FB002300970D2219463046FFF728FBE5
:101828003BE72846FFF706FF020300F00F000130F0
:1018380002F470220323024319463046FFF7D0FC16
:1018480000283FF42AAF50E72846FFF7F3FE431E6F
:10185800DBB20E2B02467FF641AF46E7B8F1000F28
:1018680040D0002042E72846FFF7E4FE431EDBB2E3
:101878000E2B02463FF639AF002304213046FFF70E
:10188800AFFC00283FF409AF2FE72846FFF7D2FE48
:10189800020300F00F00013002F47022012302431A
:1018A80019463046FFF79CFC00283FF4F6AE1CE7CB
:1018B80000F00F020132032342F420221946304679
:1018C800FFF78EFC00283FF4E8AE0EE72846FFF746
:1018D800B1FE00F0F00200F00F031032013343EACA
:1018E800023222E703AC434641460E2200943046BA
:1018F800FFF798FA009443460F2241463046FFF717
:10190800B7FAAEE700230DF10C090D221946CDF800
:1019180000903046FFF786FA2846FFF78BFE02064E
:10192800039C4FF002070BD500F07F00B840044439
:1019380028460394FFF77EFE030607F10707F3D452
:1019480000FA07F204F50174224400230392CDF84B
:1019580000900D2219463046FFF78AFA9DE600BF2F
:1019680010B5C26C536884B04FF0030C08321C02E7
:1019780008461B0E01A9019402928DF80CC08DF83F
:101988000D30FFF783FE04B010BD00BF08B5FFF7A8
:101998007BFE806C08BD00BF08B5FFF775FEC06C04
:1019A800C379023300EB830008BD00BF704700BF56
:1019B800016042608360009BC360019B03617047C4
:1019C80070B504460D68166831462846FEF7B8FE1D
:1019D80058B921462846FEF7BDFE38B9214630469B
:1019E800FEF79AFE20B1354600E02546284670BD30
:1019F8002546FBE72DE9F04383B004460846114627
:101A0800A061E261D4F82080C4F82880FEF7DCFBEE
:101A180005462062264656F80C3F03F10043009322
:101A2800616AFEF7D3FB32466946FFF7C9FF0746EE
:101A3800606221682846FEF7D1FC0646E0626168CC
:101A48003846FEF7CBFC07462063D4F80890414699
:101A58002846FEF7B9FB01464846FEF7BFFC054697
:101A6800606339463046FEF7B1FB0146264656F814
:101A7800103F03F1004301932846FEF7A7FB3246C7
:101A880001A9FFF79DFF606103B0BDE8F083000086
:101A980008B50268064B1B689A4200D008BD4FF48F
:101AA8008061044801F09AFE00F026F9F6E700BFCD
:101AB80028040020001C024070B58EB005460A4E6E
:101AC80007AC33462246002101F0F9F804960EAB24
:101AD80013E90F008DE80F0094E80E00284600F087
:101AE800EFFB0EB070BD00BF6001002008B50268B2
:101AF800074B1B689A4207D0064B00221A605A60AF
:101B08009A60DA601A8208BD024800F01DFDF3E70A
:101B1800D0040020C001002008B50D480D4B03601B
:101B28000323436000238360C3604FF410220261E3
:101B38004FF400124261037643768376C3760377C7
:101B4800437700F0D5FE00B908BD00F05FF9FBE768
:101B5800940100200064004008B50D480D4B036057
:101B68000323436000238360C3604FF410220261A3
:101B78004FF400124261037643768376C376037787
:101B8800437700F0B5FE00B908BD00F03FF9FBE768
:101B98006C0100200068004010B58AB0002305934E
:101BA800069307930893099303683D4A934204D028
:101BB8003C4A934234D00AB010BD3B4A1368013303
:101BC8001360012B1FD000240194384B1A6B42F08C
:101BD80008021A631B6B03F008030193019B03239C
:101BE80005930222069208930923099305A9304810
:101BF80001F0F4FC22462146142001F0ADFA14202D
:101C080001F0BAFAD7E700230093284B1A6C42F088
:101C180000721A641B6C03F000730093009BD2E7F8
:101C280000230293214B1A6C42F080621A641B6CE9
:101C380003F080630293029B1B4A1368013313600D
:101C4800012B20D000240494184B1A6B42F0020296
:101C58001A631B6B03F002030493049B6023059330
:101C680002230693032308930923099305A911481E
:101C780001F0B4FC22462146402001F06DFA4020D4
:101C880001F07AFA97E700230393084B1A6C42F0A5
:101C980000721A641B6C03F000730393039BD1E773
:101CA80000640040006800406801002000380240DD
:101CB800000C02400004024010B58AB0EC460C4CFF
:101CC8000FCCACE80F000FCCACE80F0094E8030091
:101CD8008CE80300074C6946204600F0AFFE20461A
:101CE80000F04AFF0221204601F09EF80AB010BD1C
:101CF8001C4A00089401002008B5054801F0A3FD1E
:101D0800044800F059FB044A13680133136008BD06
:101D1800D4010020E0010020BC01002000B583B000
:101D280000210191094B1A6B42F480021A631B6B64
:101D380003F480030193019B0A463A2001F00CFA50
:101D48003A2001F019FA03B05DF804FB00380240AC
:101D580030B58BB000240594069407940894099430
:101D680001941E4B1A6B42F002021A631A6B02F0BE
:101D780002020192019A02941A6B42F001021A635C
:101D88001A6B02F001020292029A03941A6B42F053
:101D980008021A631A6B02F008020392039A049469
:101DA8001A6B42F080021A631B6B03F080030493E2
:101DB800049B0B4D22464FF48061284601F008FD34
:101DC8004FF480630593012306930794089405A9AB
:101DD800284601F003FC0BB030BD00BF00380240BC
:101DE800001C024008B50748074B03600123436005
:101DF80040F6FF73836001F0FAFC00B908BD00F0FB
:101E080005F8FBE7D40100200030004072B6FEE779
:101E180000B595B03022002108A802F004FD002387
:101E2800039304930593069307930193214A116C36
:101E380041F080511164126C02F080520192019AB3
:101E480002931D4B1A6842F480421A601B6803F41F
:101E580080430293029B092308934FF4803309932C
:101E680001230D9302230E934FF480020F92062252
:101E78001092A822119212930423139308A801F038
:101E8800E9FC98B90F2303930223049300230593D5
:101E98004FF4A05306934FF480530793052103A8EA
:101EA80001F028FF20B915B05DF804FBFFF7AEFF7D
:101EB800FFF7ACFF003802400070004008B500F0A2
:101EC800EBFCFFF7A5FFFFF743FFFFF727FFFFF73F
:101ED80089FF00F0ABFBFFF71FFEFFF73DFE00F0A8
:101EE800EDFB034801F0DCFFFFF7E6FEFEE700BF6D
:101EF8002804002070B504460E6815682946304647
:101F0800FEF71EFC38BB21462846FEF705FCE0B963
:101F180021463046FEF71EFCE8B121463046FEF762
:101F280019FCC0B131462846FEF74EF90146204655
:101F3800FEF74CF90446F0E731462846FEF744F927
:101F480001462046FEF740F9044621462846FEF79A
:101F5800E3FB0028F0D1204670BD000000B583B037
:101F68000068054B0093054B019301AA6946FFF7EA
:101F7800C1FF03B05DF804FB000034C30000344324
:101F880008B502490068FEF729FA08BD0000C040FC
:101F980010B50446097801701268426000F1440ED9
:101FA8009C46BCE80F00AEE80F00BCE80F00AEE8A6
:101FB8000F00BCE80F00AEE80F009CE803008EE8B5
:101FC80003000023E360204610BDC1607047000095
:101FD80000B589B040F2FF130293002304930593E0
:101FE80008230693018C21FA03FC037A581E094A38
:101FF80002F810C05B00013BD15401AB02A90648AE
:1020080000F0E8FD10B909B05DF804FBFFF7FEFE2B
:10201800F9E700BFE003002094010020002302E05C
:10202800591C11720133032B04DC50F82320002AB9
:10203800F6D1F7E7704710B50446D1F800E0D1F8BB
:1020480004C08A68CB68C0F800E0C0F804C08260A9
:10205800C360FFF7E3FF204610BD0000012800D051
:1020680070474FF6FF739942FAD12DE9F04399B0C2
:102078004FF002088DF843804FF07E5711972B4C94
:102088002B4D2C4E0196009423462A46214602A841
:10209800FFF78EFC02AB11AA0DF143012648FFF7AA
:1020A80077FF8DF84B8013970196009423462A46B4
:1020B800214602A8FFF77CFC02AB13AA0DF14B01E5
:1020C8001E48FFF765FF4FF000098DF85390DFF8C1
:1020D8007080CDF854801B4E1B4F01970094234607
:1020E8002A46314602A8FFF763FC02AB15AA0DF198
:1020F80053011648FFF74CFF8DF85B90CDF85C80D4
:102108000197009423462A46314602A8FFF750FC5F
:1021180002AB17AA0DF15B010D48FFF739FF0D4916
:102128000D48FFF788FF19B0BDE8F0830000204193
:10213800CDCCCC3D0000E14464030020E80200203F
:102148007C1A25420000A04100401C456C0200207A
:10215800F001002000000020E0010020F8B506464C
:102168000D4617461968069B1868FEF72DF80446B1
:102178003F882888381AFEF7DDF801462046FEF722
:10218800E1F9044600F100453846FEF7CFF801466C
:102198002846FEF723F905463046FEF7C7F82146DC
:1021A800FEF71CF92946FEF711F8F8BD82B02DE9B3
:1021B800F0418AB010A981E80C00179BA2F2052112
:1021C800032972D893F800C04FEA0C2C0FFA8CFC44
:1021D80059784CEA010C9E78360236B2D9780E430B
:1021E8001D792D022DB259790D4393F90670D2B29B
:1021F800043AD2B2013A50F82240002C55D00023BC
:10220800ADF80C3041F6FF73ADF80E30002304939F
:10221800DFF8A080CDF8148005AB009304AB0DF176
:102228000E0203A91FFA8CF0FFF798FF4146FDF74D
:10223800CDFFE062216BFDF7C7FF234643F8340F5B
:102248001846FFF78BFE6168FEF77CF9A062616AA9
:10225800FDF7BCFF60626369A36160613046FEF709
:1022680069F8069006A8FFF78BFE6168FEF76AF921
:10227800A0634FF44043ADF81C304FF48043ADF8F1
:102288001E300D4B08930D4B099309AB009308AB17
:102298000DF11E0207A9A8B2FFF760FFE0633846F8
:1022A800FEF748F82064E36A23630AB0BDE8F0410A
:1022B80002B070470000B4430000A0C10000A04174
:1022C80084B030B587B005460BAC84E80E00129B8D
:1022D8000593EC460DF1340EBEE80F00ACE80F0094
:1022E800DEF80030CCF8003094E80C0029460448A9
:1022F800FFF75CFF07B0BDE8304004B0704700BF8F
:10230800E0010020F8B50646069804881B88E41A00
:10231800176809683846FDF757FFFEF725FA80B2B7
:1023280094FBF0F4A4B26542ADB23846FEF71CFA4D
:1023380015FB00F5ADB23046FEF716FA10FB04F0B7
:1023480015FA80F080B2F8BD30B585B0044608466D
:10235800224652F8543F03F1004302934FF440439E
:10236800ADF80C304FF48043ADF80E300DF10E038C
:10237800009303AB02A9FFF7C5FF0546FDF7D6FF9B
:10238800E0612584024A13680133136005B030BD4B
:10239800E803002010B504464269C1684430FFF7DD
:1023A80029FB01462046FFF7CFFF024A1368013395
:1023B800136010BDEC03002010B504460549806881
:1023C800FFF703FEA068FFF7E5FFA068FFF700FE30
:1023D80010BD00BF0000204108B54FF6FF71012075
:1023E800FFF73CFE08BD03220274427470470000E8
:1023F800012800D0704708B54FF6FF73994200D006
:1024080008BD0248FFF7EFFFFAE700BFF00300201E
:1024180000B587B008464FF4B673ADF80C3040F2FB
:102428009463ADF80E30084B04934FF07E53059338
:1024380005AB009304AB0DF10E0203A9FFF78EFE66
:1024480007B05DF804FB00BF000080BF2DE9F8432A
:1024580004460B4609785A7841EA0221C1F30A0179
:1024680081825A789F787F0147EAD207C7F30A0723
:10247800C7829A78DD78AD0045EA92151A7945EA5F
:102488008225C5F30A0505831A795E79F60146EABD
:102498005206C6F30A06468393F805904FEA99193F
:1024A80080F81C9093F80580C8F3011880F81D8007
:1024B800FFF7AEFF2062206039462046FFF7A8FFED
:1024C8006062606029462046FFF7A2FFA062A06014
:1024D80031462046FFF79CFFE062E060B9F1010F4A
:1024E8000AD0B9F1020F1AD0B9F1030F09D10323A9
:1024F8002374144B236304E0012323744FF07E53A9
:102508002363B8F1010F10D0B8F1020F14D0B8F15D
:10251800030F0FD1032363740A4B63630AE002239A
:1025280023744FF080432363EBE7012363744FF078
:102538007E536363BDE8F883022363744FF08043DE
:102548006363F7E70000404008B501460148FFF71C
:102558007DFF08BDF003002008B54FF6FF7101208C
:10256800FFF746FF08BD000082B0002100910B4B29
:102578005A6C42F480425A645A6C02F480420092C7
:10258800009A01911A6C42F080521A641B6C03F095
:1025980080530193019B02B0704700BF003802408E
:1025A800FEE7FEE7FEE7FEE7FEE770477047704785
:1025B80008B500F08BF908BD08B5024800F052FCD8
:1025C80008BD00BF9401002008B5024801F0E2FFF1
:1025D80008BD00BFD004002008B5024801F0A8FCDF
:1025E80008BD00BF2804002008B5024800F008FF15
:1025F80008BD00BF7004002008B5024800F032FC96
:1026080008BD00BF6C0100200120704708B502F02A
:1026180057F9162303604FF0FF3008BD08B54FF097
:10262800FF31FFF7F3FFFEE77047000000B583B006
:102638000023009301930F480F4A0260532242601F
:10264800836040F2E732C260836101F08DFD50B9CA
:102658000023009301936946064801F0B1FD28B9AB
:1026680003B05DF804FBFFF7D1FBF1E7FFF7CEFB02
:10267800F6E700BF280400200010004002680E4B57
:102688009A4200D0704700B583B00021019103F54C
:102698000A331A6C42F010021A641B6C03F0100320
:1026A8000193019B0A46362000F056FD362000F0C3
:1026B80063FD03B05DF804FB0010004008B50C484A
:1026C8000C4B03600C4B43604FF480538360002332
:1026D800C3604FF480620261042242618361C36176
:1026E80001F09CFE00B908BDFFF790FBFBE700BFB7
:1026F800D004002000100140A08601002DE9F0411F
:1027080088B0002303930493059306930793026804
:1027180003F1804303F588339A4202D008B0BDE83C
:10272800F08104460025009503F594335A6C42F075
:1027380010025A645A6C02F010020092009A019535
:102748001A6B42F002021A631A6B02F0020201923B
:10275800019A02951A6B42F001021A631B6B03F08F
:1027680001030293029B802303934FF00208CDF8E4
:102778001080032706970726079603A91A4800F032
:102788002DFF4FF400730393CDF81080059506973D
:10279800079603A9154800F021FF1548154B03605B
:1027A8004FF0006343608560C5604FF48063036148
:1027B800456185614FF48073C3614FF44033036210
:1027C800456200F059FD58B9094BE3639C63002248
:1027D8001146252000F0C0FC252000F0CDFC9DE727
:1027E800FFF714FBF0E700BF0004024000000240BE
:1027F8007004002040640240DFF834D0FFF714FF73
:102808000C480D490D4A002302E0D458C450043343
:10281800C4188C42F9D30A4A0A4C002301E0136019
:102828000432A242FBD302F051F8FFF747FB70478E
:10283800000002200000002044010020DC4B0008BA
:1028480044010020F0070020FEE7000010B5044610
:102858000E4B1A784FF47A73B3FBF2F30C4A1068F4
:10286800B0FBF3F000F08CFC68B90F2C01D9012003
:102878000AE0002221464FF0FF3000F06DFC054BC6
:102888001C60002000E0012010BD00BF14000020E3
:10289800100000201800002008B50B4B1A6842F4FD
:1028A80000721A601A6842F480621A601A6842F468
:1028B80080721A60032000F03DFC0F20FFF7C6FF6E
:1028C800FFF752FE002008BD003C0240034A116891
:1028D800034B1B780B441360704700BF180500209A
:1028E80014000020014B1868704700BF180500202D
:1028F800002800F0A18038B5044690F82030D3B104
:102908002268136843F001031360FFF7EBFF0546E5
:1029180023685A6812F0010F10D1FFF7E3FF401B3C
:102928000A28F5D9636A43F400336362052384F8FF
:102938002030012038BDFFF72FF9E1E71A6822F0AF
:1029480002021A60FFF7CEFF054623685A6812F0A4
:10295800020F0DD0FFF7C6FF401B0A28F5D9636A9E
:1029680043F400336362052384F820300120E1E753
:10297800227E012A3DD01A6822F080021A60637E06
:10298800012B3BD02268136823F040031360A37E19
:10299800012B39D02268136823F020031360E37EEB
:1029A800012B37D02268136843F010031360237F8C
:1029B800012B35D02268136823F008031360637F66
:1029C800012B33D02268136823F004031360A36833
:1029D800E268134322691343626913436268013A48
:1029E80021681343CB6100206062012384F8203002
:1029F800A0E71A6842F080021A60C0E722681368EC
:102A080043F040031360C2E72268136843F02003D1
:102A18001360C4E72268136823F010031360C6E745
:102A28002268136843F008031360C8E72268136834
:102A380043F004031360CAE70120704790F8203080
:102A4800013BDBB2012B05D9436A43F4802343627F
:102A58000120704710B5474BD3F8002242F001021D
:102A6800C3F80022D3F8002222F47C52C3F80022D3
:102A7800D3F80022486A42EA0022C3F800224A69D1
:102A880002F01F02012000FA02F2D3F81C026FEADA
:102A9800020C20EA0200C3F81C02CB69CBB9354B03
:102AA800D3F80C020CEA0000C3F80C028C884869C1
:102AB800D1F80CE044EA0E44483043F830408C68C2
:102AC800088840EA04404C6904F1480E03EBCE0341
:102AD8005860CB69012B1ED08B69002B35D1254856
:102AE800D0F804320CEA0303C0F804320B699BBB2C
:102AF8002048D0F814320CEA0303C0F814320B6AE9
:102B0800012B30D01B4AD2F8003223F00103C2F85F
:102B18000032002010BD174BD3F80C021043C3F845
:102B28000C028C884869D1F800E044EA0E44483029
:102B380043F8304088894C69D1F808E040EA0E40F3
:102B4800483403EBC4035860C6E70A48D0F8043297
:102B58001343C0F80432C9E70648D0F814321343C7
:102B6800C0F81432CBE70349D1F81C321343C1F83B
:102B78001C32C7E70064004070B5044690F8205046
:102B8800EDB2012D06D0436A43F4002343620125C8
:102B9800284670BD022380F820300268136823F0AD
:102BA80001031360FFF79EFE064623685B6813F077
:102BB800010F0CD0FFF796FE831B0A2BF5D9636A29
:102BC80043F400336362052384F82030E0E70025EE
:102BD8006562DDE730B590F820C00468A4680CF1A0
:102BE800FF3C5FFA8CFCBCF1010F62D814F0E05F87
:102BF80059D0C4F3016C012404FA0CF41C608B68EE
:102C0800002B3DD10D68CB68046843EA45550CF1AB
:102C180018031B01E55003680C690CF1180E03EB4F
:102C28000E135C600B7D012B35D0D17993791B0491
:102C380043EA0163517943EA012314790168234384
:102C480001EB0C11C1F88C31D17893781B0443EA5D
:102C58000163517843EA0123117802680B4302EBC0
:102C68000C12C2F8883102680CF1180C4FEA0C1CDF
:102C780052F80C3043F0010342F80C3000201DE0FC
:102C88004C6843EAC403CC6823430CF118042401BC
:102C980005682B51BFE7036803EB0E13596841F42D
:102CA80080715960C1E7436A43F40013436201200D
:102CB80004E0436A43F480234362012030BD90F866
:102CC80020C00CF1FF3C5FFA8CFCBCF1010F00F254
:102CD800A58030B451B90468E46814F0030F10D12A
:102CE800436A43F40013436201207EE004682469C8
:102CF80014F0030F05D1436A43F400134362012023
:102D080073E0056801F11B0424012C5904F0040444
:102D18009460002C6BD1056801F11B0424012C5927
:102D2800640D1460046801F11B0C4FEA0C1C54F884
:102D38000C4004F00204D4600468A444DCF8045095
:102D480015F0080F5BD008241461046801F11B0C0E
:102D580004EB0C146468C4F307249461046804EB5E
:102D68000C146468240C5461026802EB0112D2F856
:102D7800B8211A70026802EB0112D2F8B821C2F326
:102D880007225A70026802EB0112D2F8B821C2F386
:102D980007429A70026802EB0112D2F8B821120EAB
:102DA800DA70026802EB0112D2F8BC211A710268CB
:102DB80002EB0112D2F8BC21C2F307225A71026851
:102DC80002EB0112D2F8BC21C2F307429A710268E1
:102DD80002EB0112D2F8BC21120EDA71C1B90268F5
:102DE800D36843F02003D360002030BC70470568E7
:102DF80001F11B0424012C59E408546092E701F105
:102E08001B0504EB0514646804F00F0414619CE7C7
:102E18000268136943F020031361E5E7436A43F44A
:102E2800802343620120704790F82030013BDBB2D9
:102E3800012B05D9436A43F480234362012070477C
:102E4800026853690B43536100207047704770470D
:102E580070477047704770477047704770477047B2
:102E6800704770472DE9F84F054603685C69D3F849
:102E780004809F68D3F80CB0D3F810A0D3F818904A
:102E880014F001063BD017F0010616D001229A6013
:102E980017F0020F08D117F0040F0CD117F008062D
:102EA80006D04FF4805608E0FFF7D0FF002604E074
:102EB800FFF7CFFF01E04FF4006617F4807F0DD0D5
:102EC8002B684FF480729A6017F4007F40F0868078
:102ED80017F4806F00F0868046F4005617F4803FA0
:102EE8000DD02B684FF480329A6017F4003F40F001
:102EF800838017F4802F00F0838046F4004614F096
:102F0800080F07D01BF0100F04D046F400762B688A
:102F18001022DA6014F0040F02D01BF0080F79D1E8
:102F280014F0020F04D02B68DB6813F0030F78D17C
:102F380014F0400F07D01AF0100F04D046F4806642
:102F48002B6810221A6114F0200F02D01AF0080F13
:102F58006BD114F0100F04D02B681B6913F0030F0A
:102F68006AD114F4003F02D018F0100F68D114F49D
:102F7800803F02D018F0080F69D114F4004F7AD0BE
:102F880018F0040F74D014F4807F04D019F0010FE6
:102F980001D046F0010614F4007F04D019F0020FA6
:102FA80001D046F0020614F4806F04D019F0040F23
:102FB80001D046F0040614F4006F59D019F07009D6
:102FC80056D0B9F1400F65D058D8B9F1200F5ED06E
:102FD800B9F1300F42D146F0200644E02846FFF709
:102FE80036FF7BE717F4006F02D046F4804675E79A
:102FF8002846FFF72FFF71E72846FFF729FF7EE7EE
:1030080017F4002F02D046F4803678E72846FFF7F9
:1030180022FF74E72B680822DA602846FFF71CFFB6
:103028007EE72846FEF748FD82E72B6808221A61EA
:103038002846FFF713FF8CE72846FFF70EFF90E7B7
:103048002B6810225A602846FFF709FF8FE72B6884
:1030580008225A602846FFF703FF8EE7B9F1100FE0
:1030680001D146F008062A68936923F0700393613A
:103078002B6804225A609EB9BDE8F88FB9F1500F49
:103088000BD0B9F1600FEED146F48076EBE746F04D
:103098001006E8E746F04006E5E746F08006E2E776
:1030A8006B6A33436B622846FFF7DBFEE4E70000F8
:1030B800002807DB00F01F02400901239340024A61
:1030C80042F82030704700BF00E100E0002808DB2C
:1030D8000901C9B200F1604000F5614080F80013B1
:1030E800704700F00F000901C9B2014B195470472D
:1030F80014ED00E000B500F00700C0F1070CBCF1CA
:10310800040F28BF4FF0040C031D062B0FD9C31E54
:103118004FF0FF3E0EFA0CF021EA000199400EFA3A
:1031280003FE22EA0E0241EA02005DF804FB0023D6
:10313800EEE70000074AD36823F4E0631B041B0C86
:10314800000200F4E060034343F0BF6343F400333C
:10315800D360704700ED00E010B50446054BD86811
:10316800C0F30220FFF7C6FF01462046FFF7AEFF77
:1031780010BD00BF00ED00E008B5FFF799FF08BDDE
:103188000138B0F1807F0BD24FF0E0235861054A37
:10319800F02182F823100020986107221A617047F5
:1031A8000120704700ED00E010B40368D9B210396F
:1031B8000B4AA2FB014212090A4CA25CC2655F29B4
:1031C80008D923F47F7323F0030304338365806DE8
:1031D80010BC704723F47F7323F003038365F6E77D
:1031E800ABAAAAAA5C4A0008836A826992B9012B31
:1031F8000AD0022B02D00BB100207047C36A13F02B
:10320800807F28D100207047C36AB3F1C07F24D0E3
:1032180000207047B2F5005F09D0022B25D9032B97
:1032280025D1C36A13F0807F23D100207047032B78
:1032380003D8DFE803F01404140A00207047C36AB7
:1032480013F0807F0DD100207047C36AB3F1C07FAF
:1032580009D00020704701207047012070470120E5
:1032680070470120704701207047012070470020F7
:10327800704701207047000070B50446FFF732FB25
:10328800002C5BD00546022384F83530002384F8EF
:1032980034302268136823F00103136023681A6826
:1032A80012F0010F0AD0FFF71DFB431B052BF5D9C0
:1032B80020236365032084F8350070BD1A6820490F
:1032C80011406268A0680243E06802432069024333
:1032D80060690243A0690243E0690243206A02432D
:1032E8000A43616A04291ED01A602668756925F0A8
:1032F8000705636A1D43042B07D1A36A1D43E36ACC
:103308001BB12046FFF770FF90B975612046FFF7A3
:103318004BFFE26D3F2393408360002060650123EB
:1033280084F83530C9E7E16A206B01430A43DBE7DB
:1033380040236365012084F83500BEE70120BCE71F
:103348003F8010F070B50446866DFFF7CBFA94F80D
:103358003530DBB2022B06D080236365002384F866
:103368003430012070BD05462268136823F0160327
:1033780013602268536923F080035361236CE3B11F
:103388002268136823F0080313602268136823F087
:103398000103136023681B6813F0010F11D0FFF7B6
:1033A800A1FA431B052BF5D920236365032084F874
:1033B8003500002384F83430D4E7A36C002BDFD128
:1033C800E3E7E26D3F239340B360012384F835308F
:1033D800002084F83400C5E790F83530DBB2022BC2
:1033E80003D08023436501207047052380F83530DA
:1033F8000268136823F0010313600020704700007F
:10340800F0B583B0044600230193724B1D68724BDC
:10341800A3FB0535AD0A876D3E68C26D082393404E
:10342800334210D003681A6812F0040F0BD01A68E0
:1034380022F004021A60C26D08239340BB60436DFA
:1034480043F001034365E26D01239340334209D001
:103458002268526912F0800F04D0BB60636D43F09C
:1034680002036365E26D04239340334209D0226866
:10347800126812F0020F04D0BB60636D43F00403BE
:103488006365E26D10239340334224D022681268AA
:1034980012F0080F1FD0BB6023681A6812F4802F3F
:1034A8000DD01B6813F4002F04D1236C9BB1204668
:1034B800984710E0A36C73B1204698470BE01A6850
:1034C80012F4807F03D11A6822F008021A60236C74
:1034D8000BB120469847E26D20239340334255D0E4
:1034E8002268126812F0100F50D0BB6094F8353083
:1034F800DBB2052B0ED023681A6812F4802F33D064
:103508001B6813F4002F2AD1636C002B3ED0204691
:1035180098473BE02268136823F01603136022687B
:10352800536923F080035361236CA3B122681368A5
:1035380023F008031360E26D3F239340BB6001232F
:1035480084F83530002384F83430236D002B3FD0C5
:10355800204698473CE0A36C002BE7D1EBE7E36BF0
:10356800A3B12046984711E01A6812F4807F09D168
:103578001A6822F010021A60012384F835300023FB
:1035880084F83430E36B0BB120469847636DFBB188
:10359800636D13F0010F17D0052384F835302268C6
:1035A800136823F001031360019B01330193AB42BD
:1035B80004D823681B6813F0010FF5D1012384F8A0
:1035C8003530002384F83430E36C0BB1204698473B
:1035D80003B0F0BD10000020B5814E1B00230F2B57
:1035E80000F2EC8030B583B068E085684FEA430E9E
:1035F800032404FA0EF425EA0405CC6804FA0EF450
:103608002C438460446824EA02044A68C2F3001226
:103618009A40224342605FE0DC08083450F82420D6
:1036280003F00705AD004FF00F0E0EFA05FE22EA73
:103638000E0E0A69AA4042EA0E0240F824205FE012
:10364800072200E0002202FA0EF22A4302345C4DFF
:1036580045F824205B4A94686FEA0C0224EA0C05BA
:10366800D1F804E01EF4801F01D04CEA0405554C43
:10367800A560E46802EA0405D1F804E01EF4001F1E
:1036880001D04CEA04054F4CE560646802EA040581
:10369800D1F804E01EF4003F01D04CEA0405494C7F
:1036A8006560246822404D6815F4803F01D04CEADB
:1036B8000402444C226001330F2B7DD801229A402A
:1036C8000C6804EA020C32EA0404F4D14C6804F0F1
:1036D8000304013C012C88D94A6802F00302032A3A
:1036E80009D0C4685D000322AA4024EA02048A685B
:1036F800AA402243C2604A6802F00302022A8BD021
:1037080004684FEA430E032202FA0EF224EA020486
:103718004A6802F0030202FA0EF2224302604A6883
:1037280012F4403FC7D000220192274A546C44F457
:1037380080445464526C02F480420192019A9C08BD
:10374800A51C1F4A52F8255003F0030E4FEA8E0EAF
:103758000F2202FA0EF225EA02051C4A90423FF4B3
:1037680071AF02F5806290421AD002F580629042F1
:1037780018D002F58062904216D002F5806290421D
:1037880014D002F58062904212D002F58062904215
:1037980010D002F5806290423FF452AF082252E7FF
:1037A800012250E702224EE703224CE704224AE7AF
:1037B800052248E7062246E703B030BD704700BF40
:1037C80000380140003C014000380240000002403F
:1037D8000AB181617047090481617047436901EA50
:1037E800030221EA030141EA02418161704740B3C3
:1037F80038B5044603684CF6CC421A60036845F2B3
:1038080055521A60036842685A60036882689A6071
:10381800FFF768F805462368DA6812F0030F0BD043
:10382800FFF760F8401B3128F5D92368DB6813F0EF
:10383800030FF0D0032003E04AF6AA221A60002002
:1038480038BD0120704703684AF6AA221A60002092
:1038580070470000002800F0E08170B582B004468F
:10386800036813F0010F3BD09F4B9B6803F00C03D8
:10387800042B2CD09C4B9B6803F00C03082B21D005
:103888006368B3F5803F4FD0B3F5A02F52D0964B65
:103898001A6822F480321A601A6822F480221A60A8
:1038A8006368002B50D0FFF71DF805468E4B1B6848
:1038B80013F4003F14D1FFF715F8401B6428F5D91D
:1038C8000320B1E1884B5B6813F4800FD8D0864B96
:1038D8001B6813F4003F03D06368002B00F09F813E
:1038E800236813F0020F54D07F4B9B6813F00C0F22
:1038F8003ED07D4B9B6803F00C03082B33D0E36864
:10390800002B68D0794B01221A60FEF7EBFF0546C1
:10391800754B1B6813F0020F54D1FEF7E3FF401BF1
:103928000228F5D903207FE16F4A136843F48033F6
:103938001360B5E76C4B1A6842F480221A601A6863
:1039480042F480321A60ABE7FEF7CCFF0546664BBF
:103958001B6813F4003FC3D0FEF7C4FF401B642864
:10396800F5D9032060E1604B5B6813F4800FC6D182
:103978005D4B1B6813F0020F03D0E368012B40F086
:103988005081594A136823F0F803216943EAC103B7
:103998001360236813F0080F42D063696BB3534B6D
:1039A8000122C3F8802EFEF79DFF05464E4B5B6F44
:1039B80013F0020F34D1FEF795FF401B0228F5D90A
:1039C800032031E1484A136823F0F803216943EAE8
:1039D800C1031360DDE7454B00221A60FEF782FF42
:1039E8000546414B1B6813F0020FD2D0FEF77AFF51
:1039F800401B0228F5D9032016E13C4B0022C3F8EE
:103A0800802EFEF76FFF0546374B5B6F13F0020FF2
:103A180006D0FEF767FF401B0228F5D9032003E113
:103A2800236813F0040F77D02F4B1B6C13F0805FC3
:103A380033D1002301932C4B1A6C42F080521A6444
:103A48001B6C03F080530193019B0125284B1B68D5
:103A580013F4807F23D0A368012B34D0052B38D0F2
:103A6800214B1A6F22F001021A671A6F22F0040222
:103A78001A67A368002B3DD0FEF734FF06461A4BA1
:103A88001B6F13F0020F46D1FEF72CFF801B41F28B
:103A980088339842F3D90320C6E00025D6E7144AB4
:103AA800136843F480731360FEF71CFF0646104B3F
:103AB8001B6813F4807FCED1FEF714FF801B022809
:103AC800F5D90320B0E0084A136F43F001031367E8
:103AD800CFE7054B1A6F42F004021A671A6F42F0DB
:103AE80001021A67C5E700BF0038024000004742DC
:103AF80000700040FEF7F6FE0646524B1B6F13F0AF
:103B0800020F08D0FEF7EEFE801B41F28833984280
:103B1800F3D9032088E0EDB9A369002B00F0838076
:103B2800484A926802F00C02082A51D0022B17D09A
:103B3800454B00221A66FEF7D5FE0446414B1B682A
:103B480013F0007F42D0FEF7CDFE001B0228F5D906
:103B5800032069E03B4A136C23F080531364DBE7CE
:103B6800394B00221A66FEF7BDFE0546354B1B6829
:103B780013F0007F06D0FEF7B5FE401B0228F5D9EA
:103B8800032051E0E369226A1343626A43EA82131D
:103B9800A26A5208013A43EA0243E26A43EA02632C
:103BA800284A5360284B01221A66FEF79BFE0446FA
:103BB800244B1B6813F0007F06D1FEF793FE001B11
:103BC8000228F5D903202FE000202DE000202BE06B
:103BD800012B2BD01B4B5B6803F48001E2699142F7
:103BE80026D103F03F02216A8A4223D1616A47F64F
:103BF800C0721A40B2EB811F1ED103F44031A26A91
:103C08005208013AB1EB024F18D103F07063E26A2F
:103C1800B3EB026F14D1002006E0012070470120A9
:103C280002E0012000E0002002B070BD0120FBE7A7
:103C38000120F9E70120F7E70120F5E70120F3E784
:103C48000120F1E7003802400000474208B5264B42
:103C58009B6803F00C03042B41D0082B41D1224B65
:103C68005A6802F03F025B6813F4800F12D01E4BB3
:103C78005968C1F388111D480023A1FB0001FCF716
:103C880093FD194B5B68C3F3014301335B00B0FB41
:103C9800F3F027E0144B5868C0F388104FEA401C33
:103CA800BCEB000C6EEB0E0E4FEA8E1343EA9C63DE
:103CB8004FEA8C11B1EB0C0163EB0E03DB0043EA16
:103CC8005173C90011EB000C43F100039902002362
:103CD8004FEA8C2041EA9C51FCF766FDD1E7034886
:103CE80000E0034808BD00BF00380240001BB700D1
:103CF8000024F400002800F09B8070B50D460446AF
:103D08004F4B1B6803F007038B4208D2CBB24C4AD7
:103D18001370136803F007038B4240F08B8023680D
:103D280013F0020F17D013F0040F04D0454A93681C
:103D380043F4E0539360236813F0080F04D0414A1A
:103D4800936843F4604393603E4A936823F0F0031A
:103D5800A1680B439360236813F0010F32D06368A6
:103D6800012B21D09A1E012A25D9364A126812F051
:103D7800020F61D033498A6822F0030213438B6033
:103D8800FEF7B0FD06462F4B9B6803F00C036268F4
:103D9800B3EB820F16D0FEF7A5FD801B41F28833E6
:103DA8009842F0D9032042E0264A126812F4003FF4
:103DB800E0D101203BE0234A126812F0007FD9D1FC
:103DC800012034E01E4B1B6803F00703AB4207D900
:103DD800EAB21B4B1A701B6803F00703AB422DD1E4
:103DE800236813F0040F06D0164A936823F4E053AF
:103DF800E1680B439360236813F0080F07D0114A5A
:103E0800936823F46043216943EAC1039360FFF791
:103E18001DFF0C4B9B68C3F303130B4AD35CD840BC
:103E28000A4B18600A4B1868FEF710FD002070BD99
:103E3800012070470120FAE70120F8E70120F6E7A2
:103E4800003C0240003802404C4A000810000020A4
:103E580018000020014B1868704700BF10000020B0
:103E680008B5FFF7F7FF044B9B68C3F38223034AA7
:103E7800D35CD84008BD00BF00380240444A00085F
:103E880008B5FFF7E7FF044B9B68C3F34233034AC7
:103E9800D35CD84008BD00BF00380240444A00083F
:103EA80090F83D30DBB2012B37D1022380F83D304A
:103EB8000268D36843F00103D3600368194A934248
:103EC80020D0B3F1804F1DD0A2F57C42934219D087
:103ED80002F58062934215D002F58062934211D0B8
:103EE80002F5784293420DD002F57052934209D000
:103EF800A2F59432934205D01A6842F001021A6082
:103F0800002070479A6802F00702062A07D01A684C
:103F180042F001021A60002070470120704700201B
:103F2800704700BF000001407047704770477047F6
:103F380070B504460368DE681D6915F0020F10D0DD
:103F480016F0020F0DD06FF002021A6101230377F9
:103F580003689B6913F0030F5ED0FFF7E6FF0023A9
:103F6800237715F0040F12D016F0040F0FD0236832
:103F78006FF004021A610223237723689B6913F404
:103F8800407F4FD02046FFF7D0FF0023237715F05E
:103F9800080F12D016F0080F0FD023686FF0080230
:103FA8001A61042323772368DB6913F0030F40D0D9
:103FB8002046FFF7BAFF0023237715F0100F12D021
:103FC80016F0100F0FD023686FF010021A61082343
:103FD80023772368DB6913F4407F31D02046FFF74D
:103FE800A4FF0023237715F0010F02D016F0010F6C
:103FF8002DD115F0800F02D016F0800F2FD115F0BB
:10400800400F02D016F0400F31D115F0200F02D02A
:1040180016F0200F33D170BDFFF786FF2046FFF75B
:1040280085FF9CE72046FFF77FFF2046FFF77EFFCE
:10403800ABE72046FFF778FF2046FFF777FFBAE7A0
:104048002046FFF771FF2046FFF770FFC9E7236896
:104058006FF001021A612046FDF71AFDC9E72368CF
:104068006FF080021A61204600F0F1F8C7E7236874
:104078006FF040021A612046FFF759FFC5E7236831
:104088006FF020021A61204600F0E0F8C3E7000054
:104098000368344A904212D0B0F1804F0FD0A2F595
:1040A8007C4290420BD002F58062904207D002F524
:1040B8008062904203D002F57842904203D123F007
:1040C80070034A681343274A90422AD0B0F1804FC0
:1040D80027D0A2F57C42904223D002F5806290421C
:1040E8001FD002F5806290421BD002F578429042C0
:1040F80017D002F57052904213D002F580629042B8
:104108000FD002F5806290420BD0A2F5983290420F
:1041180007D002F58062904203D002F58062904297
:1041280003D123F44073CA68134323F080034A6918
:10413800134303608B68C3620B688362094B984220
:1041480003D003F58063984201D10B69036301230F
:104158004361036913F0010F03D0036923F00103DE
:10416800036170470000014040B310B5044690F861
:104178003D30F3B1022384F83D30214651F8040B59
:10418800FFF786FF012384F8463084F83E3084F830
:104198003F3084F8403084F8413084F8423084F865
:1041A800433084F8443084F8453084F83D300020AA
:1041B80010BD80F83C30FEF761FADBE7012070475C
:1041C80090F83C20012A3CD010B40346012280F824
:1041D8003C20022280F83D2002685068946820F054
:1041E800700C086840EA0C0050601A681648824251
:1041F8001AD0B2F1804F17D0A0F57C40824213D07C
:1042080000F5806082420FD000F5806082420BD0BA
:1042180000F57840824207D000F57050824203D002
:10422800A0F59430824204D124F0800449682143E7
:104238009160012283F83D20002083F83C0010BCE7
:1042480070470220704700BF000001407047704768
:10425800026802F10C0353E8003F23F490730C3218
:1042680042E800310029F3D1026802F1140353E84F
:10427800003F23F00103143242E800310029F3D152
:10428800036B012B05D0202380F842300023036301
:104298007047026802F10C0353E8003F23F0100353
:1042A8000C3242E800310029F3D1ECE790F84130B4
:1042B800DBB2212B01D0022070478368B3F5805F01
:1042C80017D0036A5A1C02621A7803685A60C38CB2
:1042D8009BB2013B9BB2C3844BB90268D36823F0FD
:1042E8008003D3600268D36843F04003D3600020A2
:1042F80070470369002BE4D1036A1B880268C3F383
:1043080008035360036A02330362E0E710B504460A
:104318000268136923F44053C1680B43136183682F
:1043280002691A4343691A43C3691A430168CB688F
:1043380023F4164323F00C031343CB60026853693C
:1043480023F4407381690B4353610368314A9342F4
:1043580006D002F58062934202D0FFF781FD01E0AA
:10436800FFF78EFDE369B3F5004F29D0002103184C
:1043780049411B1841F10001C90041EA5371DB00B2
:10438800181863684FEA83024FEA937341F10001FA
:10439800FCF70AFA204AA2FB00314909642303FB0F
:1043A80011031B013233A2FB03235B0903F0F00264
:1043B80002EB011203F00F03216813448B6010BD58
:1043C8000023021843EB0301121841F10001C90050
:1043D80041EA5271D200101841F100016268921846
:1043E8005B41FCF7E1F90C4AA2FB0031490964235F
:1043F80003FB1103DB003233A2FB03235B095A00E2
:1044080002F4F87202EB011203F007032168134467
:104418008B60D4E7001001401F85EB5160B310B5E5
:10442800044690F8413013B3242384F841302268BD
:10443800D36823F40053D3602046FFF767FF226850
:10444800136923F4904313612268536923F02A0304
:1044580053612268D36843F40053D360002060643A
:10446800202384F8413084F84230606310BD80F81E
:104478004030FEF743F9D7E701207047704708B589
:104488000168CA6822F04002CA60202280F84120F0
:10449800FFF7F4FF002008BD704708B5806B0023C4
:1044A800C385C384FFF7F8FF08BD704790F8423012
:1044B800DBB2222B69D18368B3F5805F4FD0826A63
:1044C800B3F5805F04D0002B56D10369002B53D17C
:1044D80003685B681370836A01338362C38D9BB280
:1044E800013B9BB2C385002B51D100B583B0026854
:1044F800D36823F02003D3600268D36823F4807361
:10450800D3600268536923F001035361202380F8C4
:10451800423000234363036B012B33D10023036331
:10452800026802F10C0353E8003F23F010030C3239
:1045380042E800310029F3D103681A6812F0100F1D
:1045480006D0002201921A6801925B680193019BD0
:10455800818DFFF7AAFF002003B05DF804FB026914
:10456800002AACD1826A03685B68C3F3080313802E
:10457800836A02338362B1E703685B6803F07F03F1
:104588001370A8E7FDF7B2FAE5E7022070470020AC
:104598007047000010B582B0044602681368D068FE
:1045A800516913F00F0F09D113F0200F0CD010F040
:1045B800200F09D02046FFF779FF16E011F001011E
:1045C80015D110F4907F12D1216B012979D013F005
:1045D800800F03D010F0800F40F0148113F0400FCB
:1045E80003D010F0400F40F0118102B010BD13F05D
:1045F800010F06D010F4807F03D0626C42F00102F4
:10460800626413F0040F04D019B1626C42F0020224
:10461800626413F0020F04D019B1626C42F0040214
:10462800626413F0080F07D010F0200F00D119B101
:10463800626C42F008026264626C002AD5D013F002
:10464800200F02D010F0200F29D123685B6903F0F6
:104658004003626C12F0080F00D163B32046FFF7E5
:10466800F7FD23685B6913F0400F20D0226802F140
:10467800140353E8003F23F04003143242E80031AA
:104688000029F3D1E36B73B1624A1A65E06BFEF758
:10469800A3FE0028A9D0E06B036D9847A5E7204644
:1046A800FFF704FFD1E72046FFF7F6FE9DE7204617
:1046B800FFF7F2FE99E72046FFF7EEFE002363645A
:1046C80093E713F0100F82D010F0100F3FF47FAF74
:1046D800002301931368019353680193019B536965
:1046E80013F0400F52D0E26B13685B689BB2002B4B
:1046F8003FF47BAFA18D99427FF677AFE385D3690D
:10470800B3F5807F37D0226802F10C0353E8003FED
:1047180023F480730C3242E800310029F3D1226877
:1047280002F1140353E8003F23F00103143242E876
:1047380000310029F3D1226802F1140353E8003F45
:1047480023F04003143242E800310029F3D120233A
:1047580084F8423000232363226802F10C0353E8F3
:10476800003F23F010030C3242E800310029F3D156
:10477800E06BFEF7E7FD02236363A18DE38D9BB237
:10478800C91A89B22046FFF790FE2EE7A18DE38D66
:104798009BB2C91A89B2E38D9BB2002B3FF425AFB7
:1047A80000293FF422AF226802F10C0353E8003FCE
:1047B80023F490730C3242E800300028F3D12268C9
:1047C80002F1140353E8003F23F00103143242E8D6
:1047D80000300028F3D1202384F8423000232363DB
:1047E800226802F10C0353E8003F23F010030C3257
:1047F80042E800300028F3D1022363632046FFF724
:1048080054FEF2E62046FFF751FDEEE62046FFF79C
:1048180036FEEAE6A344000808B5062000F034F89E
:104828000120FDF7FBFE02440346934200D1704786
:1048380003F8011BF9E71F2938B505460C4604D9CA
:10484800162303604FF0FF3038BDD0F8182112B19D
:1048580052F821304BB9284600F030F8224601467C
:104868002846BDE8384000F017B8012B0AD0591C7B
:1048780003D1162303600120E6E7002142F8241043
:10488800204698470020DFE7024B01461868FFF7EB
:10489800D2BF00BF1C00002038B5074D00230446D6
:1048A800084611462B60FDF7B1FE431C02D12B6868
:1048B80003B1236038BD00BF54060020FDF7A4BE35
:1048C800014B1868704700BF1C00002070B50D4DE3
:1048D8000D4C641BA4100026A64209D10B4D0C4CAC
:1048E80000F08CF8641BA4100026A64205D170BD08
:1048F80055F8043B98470136EEE755F8043B9847CE
:104908000136F2E7C84B0008C84B0008C84B00083E
:10491800D84B0008704770470A44914200F1FF33B2
:1049280000D1704710B511F8014B03F8014F9142BF
:10493800F9D110BD024B13B1024800F005B8704719
:10494800000000005D490008002301461A46184689
:1049580000F014B838B5074D074C641BA4101CB9F7
:10496800BDE8384000F050B8013C55F8243098476D
:10497800F5E700BFD84B0008DC4B00082DE9F047ED
:10498800DFF86CA00646DAF8000098460F46914614
:10499800FFF7C0FF174B1C680CB9174C1C60656803
:1049A800DAF800001F2D05DDFFF7B5FF4FF0FF30E7
:1049B800BDE8F0879EB104EB85010122C1F888901B
:1049C800D4F88831AA401343C4F88831022EC1F8BC
:1049D800088102BFD4F88C311343C4F88C316B1CA6
:1049E8000235636044F82570FFF795FF0020DFE784
:1049F800400100205C06002060060020F8B500BFDA
:104A0800F8BC08BC9E467047F8B500BFF8BC08BCA7
:044A18009E467047FF
:104A1C00000000000000000000000000000000008A
:104A2C000000000000000000000000000100000079
:104A3C00010000000000000000000000010203045F
:104A4C000000000000000000010203040607080932
:084A5C000006101600061016FA
:104A640008B10181B0B000840000000008B10181E8
:104A7400B0B000840000000008B10181B0B000842F
:104A84000000000008B10181B0B000840000000003
:0C4A940008B10181B0B0008400000000F7
:104AA00040BDFF7F0100000094C0FF7FB0A90280DD
:104AB00020C1FF7FB0B0A88070C1FF7F010000005F
:104AC0007CC1FF7FB0B0AA80B0C1FF7FAE71B28061
:104AD0007CC2FF7F0100000078C2FF7FAB3F3880BF
:104AE000D8C2FF7F01000000E0C2FF7FB0B0AA8003
:104AF0001CC3FF7F01000000C8C3FF7FAA0DB28066
:104B000044C4FF7FB0AF0880D4C6FF7F010000001F
:104B1000D8C6FF7FAD3F028078C9FF7F010000004B
:104B200054CBFF7F0084048068CBFF7F010000002E
:104B300064CBFF7FB0AD048030CEFF7FB0A8038090
:104B400054CEFF7F44FFFF7F58CEFF7F48FFFF7F9B
:104B500064CEFF7F0100000040CFFF7F08FFFF7F92
:104B600060CFFF7FB0AA0D808CCFFF7F04FFFF7F57
:104B7000B0CFFF7F0100000048D1FF7FB0A80980BF
:104B800080D1FF7FF8FEFF7F9CD1FF7F01000000F6
:104B900048D4FF7F008408808CD4FF7F0100000090
:104BA00014D6FF7F01AC098020D7FF7F03A90680C0
:104BB0005CD7FF7F01000000E4D7FF7FB0B0A88082
:084BC00020D8FF7F0100000076
:104BC8003D490008AD010008E123000861250008FF
:044BD8008901000847
:104BDC00E80200206C02002064030020F001002099
:104BEC000024F40001000000100000002000002050
:104BFC00000000001C05002084050020EC050020AE
:104C0C000000000000000000000000000000000098
:104C1C000000000000000000000000000000000088
:104C2C000000000000000000000000000000000078
:104C3C000000000000000000000000000000000068
:104C4C000000000000000000000000000000000058
:104C5C000000000000000000000000000000000048
:104C6C000000000000000000000000000000000038
:104C7C000000000000000000000000000000000028
:104C8C000000000000000000010000000000000017
:104C9C000E33CDAB34126DE6ECDE05000B000000DC
:104CAC0000000000000000000000000000000000F8
:104CBC0000000000000000000000000000000000E8
:104CCC0000000000000000000000000000000000D8
:104CDC0000000000000000000000000000000000C8
:104CEC0000000000000000000000000000000000B8
:104CFC0000000000000000000000000000000000A8
:104D0C000000000000000000000000000000000097
:044D1C005806002015
:0400000508002801C6
:00000001FF
