:020000040800F2
:10000000000003208D07000861070008630700084F
:10001000650700086707000869070008000000007E
:100020000000000000000000000000006B07000856
:100030006D070008000000006F0700087107000846
:10004000DD070008DD070008DD070008DD07000800
:10005000DD070008DD070008DD070008DD070008F0
:10006000DD070008DD070008DD070008DD070008E0
:10007000DD070008DD070008DD070008DD070008D0
:10008000DD070008DD070008DD070008DD070008C0
:1000900079070008DD070008DD070008DD07000814
:1000A000DD070008DD070008DD070008DD070008A0
:1000B000DD070008DD070008DD070008DD07000890
:1000C000DD070008DD070008DD070008DD07000880
:1000D000DD070008DD070008DD070008DD07000870
:1000E000DD070008DD070008DD070008DD07000860
:1000F000DD070008DD070008DD070008DD07000850
:10010000DD070008DD070008DD070008DD0700083F
:10011000DD070008DD070008DD070008DD0700082F
:10012000DD070008DD070008DD070008DD0700081F
:10013000DD070008DD070008DD070008DD0700080F
:10014000DD070008DD070008DD070008DD070008FF
:10015000DD070008DD070008DD070008DD070008EF
:10016000DD070008DD070008DD070008DD070008DF
:10017000DD070008DD070008DD07000800000000BB
:10018000DD070008DD070008DD070008DD070008BF
:10019000DD070008DD070008DD070008DD070008AF
:0C01A0000000000000000000DD07000867
:1001AC0010B5054C237833B9044B13B10448AFF3A5
:1001BC0000800123237010BD1000002000000000FF
:1001CC002418000808B5034B1BB103490348AFF3CF
:1001DC00008008BD00000000140000202418000856
:1001EC0053B94AB9002908BF00281CBF4FF0FF3192
:1001FC004FF0FF3000F06AB9ADF1080C6DE904CE98
:10020C0000F006F8DDF804E0DDE9022304B07047E5
:10021C002DE9F047089D0C46002B4ED194468C4599
:10022C008646B2FA82F262D94AB1C2F120039140F9
:10023C0020FA03F30CFA02FC194300FA02FE4FEA0F
:10024C001C471FFA8CF6B1FBF7F44FEA1E4307FB71
:10025C00141143EA014304FB06F199420AD91CEB41
:10026C00030304F1FF3080F01281994240F20F81B8
:10027C00023C6344591A1FFA8EF3B1FBF7F007FBEB
:10028C00101143EA014300FB06F69E420AD91CEB0F
:10029C00030300F1FF3180F0FC809E4240F2F980B4
:1002AC00634402389B1B40EA044000211DB1D3403B
:1002BC000022C5E90032BDE8F0878B4205D90DB1AB
:1002CC00C5E9000100210846F5E7B3FA83F10029DE
:1002DC0046D1A34202D39042C0F0F080861A64EB60
:1002EC0003030120002DE6D0C5E90063E3E7002AF3
:1002FC0040F09080A1EB0C044FEA1C481FFA8CF7DD
:10030C000121B4FBF8F64FEA1E4308FB164443EAFE
:10031C00044307FB06F0984208D91CEB030306F1D3
:10032C00FF3402D2984200F2CD8026461C1A1FFAE6
:10033C008EF3B4FBF8F008FB104443EA044300FBD3
:10034C0007F79F4208D91CEB030300F1FF3402D2DC
:10035C009F4200F2B0802046DB1B40EA0640A5E736
:10036C00C1F120068B4022FA06F71F4320FA06FC47
:10037C0004FA01F343EA0C03F44000FA01F8380CD8
:10038C004FEA1349B4FBF0FE1FFA87FC00FB1E4436
:10039C0049EA04440EFB0CF9A14502FA01F20AD910
:1003AC003C190EF1FF3A80F08480A14540F2818027
:1003BC00AEF1020E3C44A4EB09041FFA83F9B4FB22
:1003CC00F0F300FB134449EA044403FB0CFCA44582
:1003DC0007D93C1903F1FF3067D2A44565D9023B1C
:1003EC003C4443EA0E40A0FB0293A4EB0C049C4259
:1003FC00CE469C4651D34ED055B1B8EB0E0364EBB0
:10040C000C0404FA06F6CB401E43CC40C5E900644C
:10041C00002150E7C2F1200320FA03F10CFA02FC90
:10042C0024FA03F394400C434FEA1C4800FA02FEF2
:10043C001FFA8CF7B3FBF8F008FB1031230C43EADE
:10044C00014300FB07F1994208D91CEB030300F1AF
:10045C00FF362CD299422AD9023863445B1AA4B2D3
:10046C00B3FBF8F108FB113344EA034401FB07F337
:10047C00A34208D91CEB040401F1FF3613D2A342AA
:10048C0011D902396444E41A41EA004139E70446BF
:10049C00F0E6084606E7C845AED2B9EB020E63EBB0
:1004AC00070C0138A8E73146EDE7034699E73046DB
:1004BC00D4E7D6467FE7634402384DE70646234629
:1004CC0008460FE7023E634430E700BF704700BFA9
:1004DC0008B50D480D4B0360032343600023836074
:1004EC00C3604FF4102202614FF400124261037694
:1004FC0043768376C3760377437700F0BDF900B972
:10050C0008BD00F08DF8FBE72C00002000640040D3
:10051C0010B588B0002303930493059306930793B7
:10052C000268184B9A4201D008B010BD0024019407
:10053C0003F5EA331A6C42F000721A641A6C02F07A
:10054C0000720192019A02941A6B42F008021A632B
:10055C001B6B03F008030293029B032303930222F9
:10056C00049206930923079303A9074800F0B6FCED
:10057C0022462146142000F089FC142000F096FC41
:10058C00D2E700BF00640040000C024030B58BB0D5
:10059C0000240594069407940894099401941E4B26
:1005AC001A6B42F001021A631A6B02F001020192FB
:1005BC00019A02941A6B42F008021A631A6B02F049
:1005CC0008020292029A03941A6B42F080021A6398
:1005DC001A6B02F080020392039A04941A6B42F095
:1005EC0010021A631B6B03F010030493049B0B4D56
:1005FC0022464FF48041284600F076FD4FF48043AC
:10060C000593012306930794089405A9284600F046
:10061C0065FC0BB030BD00BF00380240001002403A
:10062C0072B6FEE700B595B03022002108A801F0A3
:10063C0061F80023039304930593069307930193A6
:10064C00204A116C41F080511164126C02F08052FE
:10065C000192019A02931C4A136823F4404343F419
:10066C0080431360136803F440430293029B0123FD
:10067C0008934FF48033099302230E934FF48002B6
:10068C000F92062210925422119212930423139368
:10069C0008A800F02FFD80B90F23039302210491C9
:1006AC00002305934FF480530693079303A800F09F
:1006BC0071FF20B915B05DF804FBFFF7B1FFFFF730
:1006CC00AFFF00BF003802400070004000B58BB097
:1006DC0000F0A6F8FFF7A6FFFFF758FFFFF7F8FEAC
:1006EC00EC460C4C0FCCACE80F000FCCACE80F0078
:1006FC0094E803008CE80300074C6946204600F0A0
:10070C0061F9204600F0FCF90221204600F026FA9F
:10071C00FEE700BF3C1800082C00002082B000212E
:10072C0000910B4B5A6C42F480425A645A6C02F49E
:10073C0080420092009A01911A6C42F080521A6425
:10074C001B6C03F080530193019B02B0704700BFF8
:10075C0000380240FEE7FEE7FEE7FEE7FEE77047E3
:10076C007047704708B500F075F808BD08B5024829
:10077C0000F013FA08BD00BF2C00002070470000E9
:10078C00DFF834D0FFF7FAFF0C480D490D4A00236F
:10079C0002E0D458C4500433C4188C42F9D30A4A2A
:1007AC000A4C002301E013600432A242FBD300F098
:1007BC00A9FFFFF78BFF704700000320000000200B
:1007CC00100000208818000810000020F001002004
:1007DC00FEE7000010B504460E4B1A784FF47A73FE
:1007EC00B3FBF2F30C4A1068B0FBF3F000F062FBC1
:1007FC0068B90F2C01D901200AE0002221464FF0E4
:10080C00FF3000F043FB054B1C60002000E0012092
:10081C0010BD00BF040000200000002008000020D4
:10082C0008B50B4B1A6842F400721A601A6842F44D
:10083C0080621A601A6842F480721A60032000F019
:10084C0013FB0F20FFF7C6FFFFF768FF002008BD62
:10085C00003C0240034A1168034B1B780B441360A5
:10086C00704700BF5400002004000020014B1868A2
:10087C00704700BF54000020002800F0A18038B55C
:10088C00044690F82030D3B12268136843F001037A
:10089C001360FFF7EBFF054623685A6812F0010F4F
:1008AC0010D1FFF7E3FF401B0A28F5D9636A43F424
:1008BC0000336362052384F82030012038BDFFF734
:1008CC0027FEE1E71A6822F002021A60FFF7CEFF5A
:1008DC00054623685A6812F0020F0DD0FFF7C6FFC9
:1008EC00401B0A28F5D9636A43F40033636205237D
:1008FC0084F820300120E1E7227E012A3DD01A68DD
:10090C0022F080021A60637E012B3BD022681368B0
:10091C0023F040031360A37E012B39D022681368A7
:10092C0023F020031360E37E012B37D02268136879
:10093C0043F010031360237F012B35D0226813681A
:10094C0023F008031360637F012B33D022681368F4
:10095C0023F004031360A368E26813432269134372
:10096C00626913436268013A21681343CB6100202A
:10097C006062012384F82030A0E71A6842F08002FC
:10098C001A60C0E72268136843F040031360C2E7A3
:10099C002268136843F020031360C4E722681368CD
:1009AC0023F010031360C6E72268136843F00803B2
:1009BC001360C8E72268136843F004031360CAE7A6
:1009CC000120704790F82030013BDBB2012B05D998
:1009DC00436A43F4802343620120704710B5474BB0
:1009EC00D3F8002242F00102C3F80022D3F800220F
:1009FC0022F47C52C3F80022D3F80022486A42EA5F
:100A0C000022C3F800224A6902F01F02012000FAFA
:100A1C0002F2D3F81C026FEA020C20EA0200C3F8BF
:100A2C001C02CB69CBB9354BD3F80C020CEA000095
:100A3C00C3F80C028C884869D1F80CE044EA0E44E7
:100A4C00483043F830408C68088840EA04404C69D0
:100A5C0004F1480E03EBCE035860CB69012B1ED07A
:100A6C008B69002B35D12548D0F804320CEA0303EE
:100A7C00C0F804320B699BBB2048D0F814320CEA46
:100A8C000303C0F814320B6A012B30D01B4AD2F886
:100A9C00003223F00103C2F80032002010BD174BC6
:100AAC00D3F80C021043C3F80C028C884869D1F8B7
:100ABC0000E044EA0E44483043F8304088894C69E1
:100ACC00D1F808E040EA0E40483403EBC403586008
:100ADC00C6E70A48D0F804321343C0F80432C9E719
:100AEC000648D0F814321343C0F81432CBE703494C
:100AFC00D1F81C321343C1F81C32C7E70064004024
:100B0C0070B5044690F82050EDB2012D06D0436A22
:100B1C0043F4002343620125284670BD022380F86C
:100B2C0020300268136823F001031360FFF79EFE68
:100B3C00064623685B6813F0010F0CD0FFF796FE96
:100B4C00831B0A2BF5D9636A43F4003363620523D4
:100B5C0084F82030E0E700256562DDE790F820306E
:100B6C00013BDBB2012B05D9436A43F4802343627A
:100B7C0001207047026853690B4353610020704792
:100B8C0070477047704770477047704770477047A1
:100B9C00704770477047704770472DE9F84F05460E
:100BAC0003685C69D3F804809F68D3F80CB0D3F861
:100BBC0010A0D3F8189014F001063BD017F00106E2
:100BCC0016D001229A6017F0020F08D117F0040F0B
:100BDC000CD117F0080606D04FF4805608E0FFF74A
:100BEC00CFFF002604E0FFF7CEFF01E04FF40066D4
:100BFC0017F4807F0DD02B684FF480729A6017F435
:100C0C00007F40F0868017F4806F00F0868046F4F9
:100C1C00005617F4803F0DD02B684FF480329A6049
:100C2C0017F4003F40F0838017F4802F00F083808E
:100C3C0046F4004614F0080F07D01BF0100F04D038
:100C4C0046F400762B681022DA6014F0040F02D000
:100C5C001BF0080F79D114F0020F04D02B68DB685D
:100C6C0013F0030F78D114F0400F07D01AF0100FC7
:100C7C0004D046F480662B6810221A6114F0200F01
:100C8C0002D01AF0080F6BD114F0100F04D02B689F
:100C9C001B6913F0030F6AD114F4003F02D018F053
:100CAC00100F68D114F4803F02D018F0080F69D1EE
:100CBC0014F4004F7AD018F0040F74D014F4807F21
:100CCC0004D019F0010F01D046F0010614F4007F96
:100CDC0004D019F0020F01D046F0020614F4806F14
:100CEC0004D019F0040F01D046F0040614F4006F80
:100CFC0059D019F0700956D0B9F1400F65D058D8B9
:100D0C00B9F1200F5ED0B9F1300F42D146F0200678
:100D1C0044E02846FFF735FF7BE717F4006F02D05D
:100D2C0046F4804675E72846FFF72EFF71E7284604
:100D3C00FFF728FF7EE717F4002F02D046F4803629
:100D4C0078E72846FFF721FF74E72B680822DA6062
:100D5C002846FFF71CFF7EE72846FFF717FF82E7C0
:100D6C002B6808221A612846FFF713FF8CE72846E8
:100D7C00FFF70EFF90E72B6810225A602846FFF70A
:100D8C0009FF8FE72B6808225A602846FFF703FFFC
:100D9C008EE7B9F1100F01D146F008062A68936965
:100DAC0023F0700393612B6804225A609EB9BDE84E
:100DBC00F88FB9F1500F0BD0B9F1600FEED146F4AA
:100DCC008076EBE746F01006E8E746F04006E5E7EC
:100DDC0046F08006E2E76B6A33436B622846FFF706
:100DEC00DBFEE4E7002807DB00F01F0240090123CB
:100DFC009340024A42F82030704700BF00E100E007
:100E0C00002808DB0901C9B200F1604000F561401F
:100E1C0080F80013704700F00F000901C9B2014BB4
:100E2C001954704714ED00E000B500F00700C0F154
:100E3C00070CBCF1040F28BF4FF0040C031D062B4C
:100E4C000FD9C31E4FF0FF3E0EFA0CF021EA000141
:100E5C0099400EFA03FE22EA0E0241EA02005DF806
:100E6C0004FB0023EEE70000074AD36823F4E06399
:100E7C001B041B0C000200F4E060034343F0BF634F
:100E8C0043F40033D360704700ED00E010B5044626
:100E9C00054BD868C0F30220FFF7C6FF0146204679
:100EAC00FFF7AEFF10BD00BF00ED00E008B5FFF787
:100EBC0099FF08BD0138B0F1807F0BD24FF0E023D1
:100ECC005861054AF02182F823100020986107220E
:100EDC001A6170470120704700ED00E000230F2BD2
:100EEC0000F2F98030B583B069E085684FEA430EB3
:100EFC00032404FA0EF425EA0405CC6804FA0EF473
:100F0C002C438460446824EA02044A68C2F3001249
:100F1C009A402243426060E0DC08083450F82420F8
:100F2C0003F00705AD004FF00F0E0EFA05FE22EA96
:100F3C000E0E0A69AA4042EA0E0240F8242060E034
:100F4C00092200E0002202FA0EF22A430234624D1A
:100F5C0045F82420614A94686FEA0C0224EA0C05D7
:100F6C00D1F804E01EF4801F01D04CEA04055B4C60
:100F7C00A560E46802EA0405D1F804E01EF4001F41
:100F8C0001D04CEA0405554CE560646802EA04059E
:100F9C00D1F804E01EF4003F01D04CEA04054F4C9C
:100FAC006560246822404D6815F4803F01D04CEAFE
:100FBC0004024A4C226001330F2B00F28A8001227A
:100FCC009A400C6804EA020C32EA0404F3D14C682F
:100FDC0004F00304013C012C87D94A6802F0030297
:100FEC00032A09D0C4685D000322AA4024EA020443
:100FFC008A68AA402243C2604A6802F00302022AAD
:10100C008AD004684FEA430E032202FA0EF224EA55
:10101C0002044A6802F0030202FA0EF22243026052
:10102C004A6812F4403FC6D0002201922C4A546CFC
:10103C0044F480445464526C02F480420192019A4C
:10104C009C08A51C244A52F8255003F0030E4FEAC5
:10105C008E0E0F2202FA0EF225EA0205214A904268
:10106C003FF470AF02F58062904222D002F58062AC
:10107C00904220D002F5806290421ED002F5806230
:10108C0090421CD002F5806290421AD002F5806228
:10109C00904218D002F58062904216D002F5806220
:1010AC00904214D002F5806290423FF449AF0A227C
:1010BC0049E7012247E7022245E7032243E70422DE
:1010CC0041E705223FE706223DE707223BE70822DE
:1010DC0039E703B030BD704700380140003C014097
:1010EC0000380240000002400AB1816170470904D7
:1010FC0081617047002800F0E08170B582B0044631
:10110C00036813F0010F3BD09F4B9B6803F00C035B
:10111C00042B2CD09C4B9B6803F00C03082B21D088
:10112C006368B3F5803F4FD0B3F5A02F52D0964BE8
:10113C001A6822F480321A601A6822F480221A602B
:10114C006368002B50D0FFF791FB05468E4B1B6854
:10115C0013F4003F14D1FFF789FB401B6428F5D929
:10116C000320B1E1884B5B6813F4800FD8D0864B19
:10117C001B6813F4003F03D06368002B00F09F81C1
:10118C00236813F0020F54D07F4B9B6813F00C0FA5
:10119C003ED07D4B9B6803F00C03082B33D0E368E7
:1011AC00002B68D0794B01221A60FFF75FFB0546D4
:1011BC00754B1B6813F0020F54D1FFF757FB401B04
:1011CC000228F5D903207FE16F4A136843F480337A
:1011DC001360B5E76C4B1A6842F480221A601A68E7
:1011EC0042F480321A60ABE7FFF740FB0546664BD2
:1011FC001B6813F4003FC3D0FFF738FB401B642877
:10120C00F5D9032060E1604B5B6813F4800FC6D105
:10121C005D4B1B6813F0020F03D0E368012B40F009
:10122C005081594A136823F0F803216943EAC1033A
:10123C001360236813F0080F42D063696BB3534BF0
:10124C000122C3F8802EFFF711FB05464E4B5B6F56
:10125C0013F0020F34D1FFF709FB401B0228F5D91C
:10126C00032031E1484A136823F0F803216943EA6B
:10127C00C1031360DDE7454B00221A60FFF7F6FA55
:10128C000546414B1B6813F0020FD2D0FFF7EEFA64
:10129C00401B0228F5D9032016E13C4B0022C3F871
:1012AC00802EFFF7E3FA0546374B5B6F13F0020F06
:1012BC0006D0FFF7DBFA401B0228F5D9032003E127
:1012CC00236813F0040F77D02F4B1B6C13F0805F47
:1012DC0033D1002301932C4B1A6C42F080521A64C8
:1012EC001B6C03F080530193019B0125284B1B6859
:1012FC0013F4807F23D0A368012B34D0052B38D076
:10130C00214B1A6F22F001021A671A6F22F00402A5
:10131C001A67A368002B3DD0FFF7A8FA06461A4BB4
:10132C001B6F13F0020F46D1FFF7A0FA801B41F29E
:10133C0088339842F3D90320C6E00025D6E7144A37
:10134C00136843F480731360FFF790FA0646104B52
:10135C001B6813F4807FCED1FFF788FA801B02281C
:10136C00F5D90320B0E0084A136F43F0010313676B
:10137C00CFE7054B1A6F42F004021A671A6F42F05E
:10138C0001021A67C5E700BF00380240000047425F
:10139C0000700040FFF76AFA0646524B1B6F13F0C1
:1013AC00020F08D0FFF762FA801B41F28833984293
:1013BC00F3D9032088E0EDB9A369002B00F08380FA
:1013CC00484A926802F00C02082A51D0022B17D01E
:1013DC00454B00221A66FFF749FA0446414B1B683D
:1013EC0013F0007F42D0FFF741FA001B0228F5D919
:1013FC00032069E03B4A136C23F080531364DBE752
:10140C00394B00221A66FFF731FA0546354B1B683B
:10141C0013F0007F06D0FFF729FA401B0228F5D9FC
:10142C00032051E0E369226A1343626A43EA8213A0
:10143C00A26A5208013A43EA0243E26A43EA0263AF
:10144C00284A5360284B01221A66FFF70FFA04460C
:10145C00244B1B6813F0007F06D1FFF707FA001B23
:10146C000228F5D903202FE000202DE000202BE0EE
:10147C00012B2BD01B4B5B6803F48001E26991427A
:10148C0026D103F03F02216A8A4223D1616A47F6D2
:10149C00C0721A40B2EB811F1ED103F44031A26A14
:1014AC005208013AB1EB024F18D103F07063E26AB3
:1014BC00B3EB026F14D1002006E00120704701202D
:1014CC0002E0012000E0002002B070BD0120FBE72B
:1014DC000120F9E70120F7E70120F5E70120F3E708
:1014EC000120F1E7003802400000474208B5264BC6
:1014FC009B6803F00C03042B41D0082B41D1224BE9
:10150C005A6802F03F025B6813F4800F12D01E4B36
:10151C005968C1F388111D480023A1FB0001FEF797
:10152C005FFE194B5B68C3F3014301335B00B0FBF7
:10153C00F3F027E0144B5868C0F388104FEA401CB6
:10154C00BCEB000C6EEB0E0E4FEA8E1343EA9C6361
:10155C004FEA8C11B1EB0C0163EB0E03DB0043EA99
:10156C005173C90011EB000C43F1000399020023E5
:10157C004FEA8C2041EA9C51FEF732FED1E703483A
:10158C0000E0034808BD00BF00380240001BB70054
:10159C000024F400002800F09B8070B50D46044632
:1015AC004F4B1B6803F00F038B4208D2CBB24C4A53
:1015BC001370136803F00F038B4240F08B80236889
:1015CC0013F0020F17D013F0040F04D0454A9368A0
:1015DC0043F4E0539360236813F0080F04D0414A9E
:1015EC00936843F4604393603E4A936823F0F0039E
:1015FC00A1680B439360236813F0010F32D063682A
:10160C00012B21D09A1E012A25D9364A126812F0D4
:10161C00020F61D033498A6822F0030213438B60B6
:10162C00FFF724F906462F4B9B6803F00C03626806
:10163C00B3EB820F16D0FFF719F9801B41F28833F8
:10164C009842F0D9032042E0264A126812F4003F77
:10165C00E0D101203BE0234A126812F0007FD9D17F
:10166C00012034E01E4B1B6803F00F03AB4207D97B
:10167C00EAB21B4B1A701B6803F00F03AB422DD15F
:10168C00236813F0040F06D0164A936823F4E05332
:10169C00E1680B439360236813F0080F07D0114ADD
:1016AC00936823F46043216943EAC1039360FFF715
:1016BC001DFF0C4B9B68C3F303130B4AD35CD84040
:1016CC000A4B18600A4B1868FFF784F8002070BDAD
:1016DC00012070470120FAE70120F8E70120F6E726
:1016EC00003C024000380240641800080000002052
:1016FC000800002002440346934200D1704703F8CF
:10170C00011BF9E770B50D4D0D4C641BA4100026A0
:10171C00A64209D10B4D0C4C00F07EF8641BA410B2
:10172C000026A64205D170BD55F8043B98470136FA
:10173C00EEE755F8043B98470136F2E77C180008B1
:10174C007C1800087C180008841800087047704743
:10175C00024B13B1024800F005B8704700000000BE
:10176C007D170008002301461A46184600F014B8ED
:10177C0038B5074D074C641BA4101CB9BDE83840A4
:10178C0000F050B8013C55F824309847F5E700BFFD
:10179C0084180008881800082DE9F047DFF86CA0C1
:1017AC000646DAF8000098460F469146FFF7CEFF42
:1017BC00174B1C680CB9174C1C606568DAF80000F4
:1017CC001F2D05DDFFF7C3FF4FF0FF30BDE8F0879D
:1017DC009EB104EB85010122C1F88890D4F88831C0
:1017EC00AA401343C4F88831022EC1F8088102BF05
:1017FC00D4F88C311343C4F88C316B1C0235636004
:10180C0044F82570FFF7A3FF0020DFE70C00002051
:10181C005C00002060000020F8B500BFF8BC08BCDC
:10182C009E467047F8B500BFF8BC08BC9E46704792
:10183C00000000000000000000000000000000009C
:10184C00000000000000000000000000010000008B
:10185C00010000000000000000000000000000007B
:08186C0001020304060708094C
:08187400A8E9FF7F010000005C
:08187C005D170008D10100080E
:04188400AD010008AA
:101888000024F400010000001000000058000020AF
:040000050800078D5B
:00000001FF
