:020000040800F2
:100000008807002029020008F5200008ED1E0008DE
:10001000F1200008650500084524000800000000E4
:100020000000000000000000000000001D22000889
:100030006905000800000000F920000821220008DE
:10004000430200084302000843020008430200087C
:10005000430200084302000843020008430200086C
:10006000430200084302000843020008430200085C
:10007000430200084302000843020008430200084C
:10008000430200084302000843020008430200083C
:10009000430200084302000843020008430200082C
:1000A00043020008E122000843020008430200085E
:1000B000430200084302000843020008430200080C
:1000C00043020008430200084302000843020008FC
:1000D00043020008430200084302000843020008EC
:1000E00043020008430200084302000843020008DC
:1000F00043020008430200084302000843020008CC
:1001000043020008430200084302000843020008BB
:100110004302000843020008ED22000843020008E1
:10012000430200084302000843020008430200089B
:10013000430200084302000843020008430200088B
:10014000430200084302000843020008430200087B
:10015000430200084302000843020008430200086B
:10016000430200084302000843020008430200085B
:100170004302000843020008430200080000000098
:10018000430200084302000800F002F800F03CF8C7
:100190000AA090E8000C82448344AAF10107DA45E2
:1001A00001D100F031F8AFF2090EBAE80F0013F0F8
:1001B000010F18BFFB1A43F001031847EC2200009F
:1001C0000C230000103A24BF78C878C1FAD852072F
:1001D00024BF30C830C144BF04680C6070470000C1
:1001E0000023002400250026103A28BF78C1FBD840
:1001F000520728BF30C148BF0B6070471FB502F0DF
:100200003DF91FBD10B510BD00F0A9F81146FFF76C
:10021000F5FF02F019F900F0C7F803B4FFF7F2FF99
:1002200003BC00F0CFF800000948804709480047A8
:10023000FEE7FEE7FEE7FEE7FEE7FEE7FEE7FEE796
:10024000FEE7FEE704480549054A064B70470000F3
:10025000CD220008890100088801002088070020BD
:10026000880300208803002053EA020C00F0698014
:100270002DE9F04B4FF00006002B1FBFB3FA83F5BA
:1002800003FA05F424FA05F65E4012BF1643B2FAEB
:1002900082F502FA05F4C5F120051EBF22FA05FC1D
:1002A00044EA0C04203556EA044C4FEA144418BFC3
:1002B000641C4FF000084FF00009904271EB030CF2
:1002C00039D3002919BFB1FA81F701FA07F6B0FA5C
:1002D00080F700FA07F6C7F120071EBF20FA07FCD7
:1002E00046EA0C062037B6FBF4FCA7EB0507103FE7
:1002F00007F01F0BCBF120062CFA06F60CFA0BFBCD
:1003000044BFB3460026202FA4BF5E464FF0000B2B
:100310005BEA060C08BF4FF0010B19EB0B0948EB29
:100320000608ABFB027C06FB02CC0BFB03CCC01B1C
:1003300071EB0C01C1E70B46024641464846BDE859
:10034000F08B13B5084318BF4FF0FF300146AFF3F1
:100350000080BDE81C407047704770477047754685
:1003600000F02CF8AE4605006946534620F0070021
:10037000854618B020B5FFF765FFBDE820404FF077
:1003800000064FF000074FF000084FF0000BAC469E
:10039000ACE8C009ACE8C009ACE8C009ACE8C009E9
:1003A00021F007018D46704710B50446AFF3008079
:1003B0002046BDE81040FFF730BF000000487047FE
:1003C0001000002001491820ABBEFEE72600020005
:1003D000704700002DE9F04182B00024C4F202040D
:1003E00020461021002200F05DFA4FF0B6082046AA
:1003F000102100228DF8038000F054FA40F27C16A0
:1004000040F28C05C2F200067E20C2F20005307078
:100410002846314601224FF0FF3300F055FF0DF121
:100420000301284601224FF0FF3300F04DFF204624
:100430001021012200F036FA012000F04BF920468D
:100440001021012200F02EFA04F5806738460121C0
:10045000002200F027FA3846012100228DF804809E
:1004600000F020FA142030702846314601224FF067
:10047000FF3300F029FF01A9284601224FF0FF3386
:1004800000F022FF38460121012200F00BFA1E2065
:1004900000F020F938460121012200F003FA20463D
:1004A0001021002200F0FEF9012000F013F90420D1
:1004B0008DF8050020461021002200F0F3F97D2080
:1004C00030702846314601224FF0FF3300F0FCFE29
:1004D0000DF10501284601224FF0FF3300F0F4FE34
:1004E00020461021012200F0DDF9012000F0F2F891
:1004F00020461021012200F0D5F9204610210022CB
:1005000000F0D0F92046102100226F4600F0CAF911
:10051000802030702846314601224FF0FF3300F032
:10052000D3FE0DF10601284602224FF0FF3300F002
:10053000CBFD9DF8070040F27001C2F20001087087
:1005400020461021012200F0ADF9BD46012000F047
:10055000C1F820461021012200F0A4F902B0BDE844
:10056000F0810000FEE700007047000072B600BF97
:10057000FEE700002DE9F04184B040F20008C4F22B
:10058000020808F5806738460121002200F08AF948
:1005900040F27C1640F28C05C2F200068220C2F2C4
:1005A000000530702846314601224FF0FF3300F03D
:1005B0008BFE0DF10601284606224FF0FF3300F0B6
:1005C00083FD38460121012200F06CF9BDF90600D7
:1005D000BDF90810BDF90A2000EE100A9FED3B1A84
:1005E00003EE101A04EE102AB8EEC00A9FED382A66
:1005F000B8EEC33AB8EEC44A20EE010A40F27400E5
:1006000023EE013A24EE011A30EE020AC2F2000093
:1006100033EE023A31EE021A80ED030A80ED043A1D
:1006200080ED051A40461021002200F03BF94046BB
:10063000102100226F4600F035F9A32030702846C3
:10064000314601224FF0FF3300F03EFE03A9284659
:1006500002224FF0FF3300F037FD9DF80D0040F20D
:100660007414C2F20004607040461021012200F0B0
:1006700019F9BD464046102100226F4600F012F9DC
:10068000802030702846314601224FF0FF3300F0C1
:100690001BFE0DF10E01284602224FF0FF3300F041
:1006A00013FD9DF80F001021A0704046012200F0BC
:1006B000F9F8BD46012000F00DF840461021012256
:1006C00000F0F0F804B0BDE8F08100BFF4017A3D1D
:1006D0000000FA35B0B5044600F0EAF8054640F2ED
:1006E0000000C2F200000078611C18BF044400BF83
:1006F00000F0DEF8401BA042FAD3B0BD2DE9F04F68
:1007000082B000F13E4241F6004502F1FF77C4F2AB
:100710000205082243F6004E4FEAB726A84208BF5A
:100720000722C4F2010E072E38BF4FEAB722012577
:10073000002600274FF00008009208E008F10108A9
:100740000437B8F1100F06F1020600F0A7800C681C
:1007500005FA08F914EA090FF0D0D1F804B0032221
:100760000BF0030CACF10104B240012C6FEA020A59
:1007700010D88268CC6802EA0A02B4402243826040
:100780004268CBF3001422EA090204FA08F4224377
:10079000426005E0BCF1030F02D14FF0030C20E0F2
:1007A000C2688C6802EA0A02B4402243BCF1020F1C
:1007B000C26016D16FF0030202EA58020244D2F876
:1007C00020C007F01C050F230C69AB402CEA030383
:1007D00004FA05F52B431362D1F804B001250BF0A0
:1007E000030C02680CFA06F302EA0A021A431BF42D
:1007F000403F0260A2D0002243F644030192C4F2BB
:1008000002031A684FF6084C42F480421A601A68D4
:10081000CFF6FF7C02F480420192019A28F0030295
:10082000724452F80C3007F00C050F24AC40A3437F
:10083000009C04FA05F52B4342F80C30DEF8082042
:100840004B6842EA090543F60C4CDC0258BF22EA29
:100850000905CEF80850C4F2010CDCF800209C0217
:1008600042EA090558BF22EA0905CCF80050DEF833
:1008700004209C0342EA090558BF22EA0905CEF884
:100880000450DEF80020DB0342EA090558BF22EAE3
:100890000905CEF80050012550E700BF02B0BDE8C1
:1008A000F08F0000002A08BF090481617047000032
:1008B00040F28010C2F200000068704740F2000071
:1008C00040F28011C2F20000C2F2000100780A6812
:1008D000104408607047000080B543F60040C4F241
:1008E0000200016841F400710160016841F4806117
:1008F0000160016841F480710160032000F088F814
:100900000F2000F005F800F027F8002080BD00005F
:1009100070B540F20006C2F2000640F208013278DB
:10092000C2F200014FF47A730968B3FBF2F2044695
:10093000B1FBF2F1084600F0ADFF0F2C4FF00105BE
:1009400008D838B94FF0FF3021460022002500F0CA
:1009500033F87460284670BD82B0002043F6400131
:100960000190C4F202014A6842F480424A604A6837
:1009700002F480420192019A0090086840F0805091
:100980000860086800F080500090009802B070473E
:10099000002848BF7047C1B200F01F00012202FAD0
:1009A00000F04EF20012CEF2000242EAD10121F034
:1009B000030108607047000010B54EF60C5CCEF2E3
:1009C000000CDCF80030C3F3022E8EF00704042C78
:1009D00028BF0424BEF103034FF0FF3E0EFA04F4D7
:1009E00038BF0023A14399400EFA03F39A43114301
:1009F00000F00F0200F160430901043A03F564437B
:100A00006244002848BF02F10C03197010BD0000B9
:100A10004EF60C51CEF200010A684FF6FF031A4061
:100A200060F30A2242F0806040F0FD700860704779
:100A30002DE9F041002800F08B8043F60808C4F24D
:100A400002080446D8F8F8030D4600F00700884273
:100A500007D288F8F853D8F8F80300F00700A84246
:100A600076D12068810717D5410705D5D8F8001041
:100A700041F4E051C8F80010010705D5D8F800107E
:100A800041F46041C8F80010D8F80010A26821F0C5
:100A9000F0011143C8F80010C0073FD1D8F8F8039F
:100AA00000F00700A84207D988F8F853D8F8F803EF
:100AB00000F00700A8424BD12068410707D5D8F8BD
:100AC0000010E26821F4E0511143C8F8001000075B
:100AD00008D5D8F80000216920F4604040EAC10040
:100AE000C8F8000000F054F8D8F8001042F296421E
:100AF000C1F30311C0F60002515C40F2080220FA73
:100B000001F140F20400C2F200000068C2F20002EB
:100B10001160FFF7FDFE0020BDE8F0816068811ED6
:100B2000022907D258F8081C89015CBF0120BDE8E2
:100B3000F08111E0012807D158F8081C89035CBF37
:100B40000120BDE8F08107E058F8081C890703D4AC
:100B50000120BDE8F08100BFD8F8001021F00301AA
:100B60000843C8F80000FFF7A3FE064641F28837A5
:100B7000D8F80000616800F00C00B0EB810F8DD058
:100B8000FFF796FE801BB842F2D90320BDE8F08142
:100B900010B543F60404C4F20204606800F00C00CF
:100BA00008280BD0042819BF42F20040C0F2F4001C
:100BB00041F60030C0F2B70010BD00BF20682168C8
:100BC0002368490241F60031C0F2B70100F03F024C
:100BD000C3F388105CBF42F20041C0F2F401A1FBF4
:100BE00000010023FFF740FB21680222C1F301410D
:100BF00002EB4101B0FBF1F010BD00002DE9F04126
:100C000082B0002868D00446007843F60006C0078A
:100C1000C4F202060BD0B06800F00C00042840F0CB
:100C20009F803068800302D56068002854D0207807
:100C300080071AD5B06810F00C0F09D0B06800F02A
:100C40000C00082840F0A6807068400200F1A280E5
:100C50003068800702D5E06801283DD130682169FD
:100C600020F0F80040EAC10030602078000737D457
:100C7000207840074CD4A56955B3B06800F00C004B
:100C8000082840F0BB80012D26D07068E16900F48F
:100C900080028A4220D1216A00F03F028A421BD1A1
:100CA00047F6C071626A0140B1EB821F14D1A16A9C
:100CB0004FF6FF73C903994300F44032A1F5803128
:100CC0008A4209D1E16A00F07060B0EB016F03D194
:100CD000002002B0BDE8F081012002B0BDE8F08143
:100CE0006069002840F20000C4F2472076D001215C
:100CF000C0F8801EFFF7DCFD054600BF706F80075F
:100D0000B6D4FFF7D5FD401B0228F7D9DDE000BFC0
:100D1000306C10F080580AD100200190306C40F007
:100D200080503064306C00F080500190019847F2A0
:100D30000007C4F200073868C00541D4386840F4A1
:100D400080703860FFF7B4FD054600BF3868C00505
:100D500036D4FFF7ADFD401B0228F7D9B5E000BF40
:100D6000B06800F00C00082803D1706840023FF51D
:100D700058AF6068B0F5803F07D0B0F5A02F40F0C5
:100D80008D80306840F480203060306840F48030DE
:100D900030608DE0E068002852D00020C4F2472087
:100DA00001210160FFF784FD054600BF3068800720
:100DB0003FF554AFFFF77CFD401B0228F6D984E0D5
:100DC000A068012805D005284ED1306F40F00400FE
:100DD0003067306F40F0010030674FE00021C0F80D
:100DE000801EFFF765FD0546706F80077FF540AFF9
:100DF000FFF75EFD401B0228F6D966E00027C4F22B
:100E0000472700203866FFF753FD022D05460BD11A
:100E1000306880015ED5FFF74BFD401B02284FF084
:100E20000300F5D955E700BF306880017FF550AF6A
:100E3000FFF73EFD401B02284FF00300F4D948E7BE
:100E40000020C4F2472000210160FFF731FD054674
:100E5000306880077FF509AFFFF72AFD401B0228A5
:100E60004FF00300F4D934E7316F002821F001017D
:100E70003167316F21F0040131674DD0FFF718FD64
:100E8000054641F2883700BF306F800756D4FFF720
:100E90000FFD401BB842F7D917E000BF31680028AA
:100EA00021F480313160316821F4802131604FD0EC
:100EB000FFF7FEFC054600BF306880033FF5B7AE84
:100EC000FFF7F6FC401B6428F6D9032002B0BDE80A
:100ED000F08100BF04F11C052FCD084340EA8210C9
:100EE000D9034FF6FF729143A1F5803140EA0560C6
:100EF0000843706001203866FFF7DAFC044600BF43
:100F0000306880013FF5E4AEFFF7D2FC001B0228F9
:100F10004FF00300F4D9DCE6FFF7CAFC054641F2C6
:100F2000883700BF306F800708D5FFF7C1FC401B32
:100F3000B8424FF00300F5D9CBE600BFB8F1000F7F
:100F40007FF499AE306C20F08050306493E600BF9F
:100F5000FFF7AEFC054600BF306880037FF567AE43
:100F6000FFF7A6FC401B64284FF00300F4D9B0E65D
:100F700070B538B10446406A30B10020206104F1F8
:100F8000140007E0012070BD6068B0F5827F03D0D7
:100F900004F11C00002101600026A66294F85100B3
:100FA00020B9204684F8506000F03CF8022084F814
:100FB000510094E80F0001F48271056802F40442C4
:100FC00025F040050560114403F4006223691144D3
:100FD00003F002026369114403F00102A369E569A9
:100FE000114403F40072114405F03802256A1144DB
:100FF00005F08002A56A114305F400521143016017
:10100000626A042101EA134102F0100211444160B6
:10101000C16921F40061C1610120666584F8510055
:10102000304670BD2DE9F04385B0006843F20005FD
:10103000C4F20105A84203D005B0BDE8F08300BFAB
:10104000002643F630000096C4F2020041696C4667
:1010500041F48051416141694FF0020801F480512F
:1010600000910099009601684FF0030941F00201D8
:1010700001600168052701F00201009100990096C6
:10108000016841F0010101600068214600F00100A3
:10109000009000981820009005F55440CDE9018695
:1010A000CDF80C900497FFF729FB8020CDE90008CC
:1010B00005F550402146CDE902690497FFF71EFB74
:1010C00005B0BDE8F08300002DE9F04182B0044690
:1010D00090F85100012819D160681D4617460E4648
:1010E000B0F5827F01D1A068A0B1FFF7E1FB804697
:1010F000002E4FF0010018BF002F03D102B0BDE851
:10110000F08100BF94F85000012811D1022002B0F4
:10111000BDE8F081042084F8510020463146324673
:101120003B46009500F00EFA02B0BDE8F08100BF2A
:10113000012084F850000420002184F851006165EA
:10114000A663A787E7872163A186E186A268206856
:10115000B2F5004F2164616438D00168490640D57A
:10116000E168E08F002944D000287BD0681C0CD1B6
:101170001BE000BFC068A16B21F8020BA163E08FE8
:101180000138E087E08F00286CD020688168C907AB
:10119000F0D1FFF78DFBA0EB0800A842F2D342E0AC
:1011A000FFF786FBE08F00285CD020688168C907C4
:1011B000F6D0C068A16B21F8020BA163E08F013863
:1011C000E087E08F0028F0D14CE000BF016821F0FB
:1011D00040010160016821F4804101600168490615
:1011E000BED4016841F040010160E168E08F002950
:1011F000BAD1B8B3681C0CD124E000BF007BA16B4E
:101200000870A06B0130A063E08F0138E087E08FA9
:1012100040B320688168C907F0D1FFF749FBA0EB14
:101220000800A842F3D3012084F85100002084F87C
:101230005000032002B0BDE8F08100BFFFF738FB8B
:10124000E08F78B120688168C907F7D0007BA16B77
:101250000870A06B0130A063E08F0138E087E08F59
:101260000028EFD16068B0F5827F0ED1A068B0F59C
:10127000004F02D0B0F5806F0AD12168B0F5806FC1
:101280000A6822F040020A6002D12046012101E0F2
:101290002046802100222B46CDF8008000F02EFF52
:1012A00028B1606D40F0200060652020606501205D
:1012B00084F85100002084F85000606D002818BFA9
:1012C000012002B0BDE8F0812DE9F04184B01D4657
:1012D00016460F460446FFF7EBFA94F85110012921
:1012E0000ED18046002F4FF0010018BF002E03D111
:1012F00004B0BDE8F08100BF94F85000012803D18C
:10130000022004B0BDE8F081012084F850000320E1
:10131000002184F8510061652763A686E686A163F3
:10132000A187E187A0682164B0F5004F206861645F
:1013300007D1016821F040010160016841F480415A
:1013400001600168490603D4016841F04001016071
:101350006168731EE268B1FA81F1B3FA83F3490957
:101360005B09B2F5006F41EA030139D131B137F8B9
:10137000021BC1602763E08E0138E086E08E002802
:1013800070D0681C0BD11AE0216B31F8022BC260BF
:101390002163E08E0138E086E08E002862D020686C
:1013A00081688907F0D4FFF783FAA0EB0800A84210
:1013B000F2D338E0FFF77CFAE08E002852D02068A4
:1013C00081688907F6D5216B31F8022BC260216351
:1013D000E08E0138E086E08E0028F0D142E000BFC8
:1013E00039B139780173206B01302063E08E013808
:1013F000E086E08EB0B3681C0BD123E0216B097846
:101400000173206B01302063E08E0138E086E08EAE
:1014100040B3206881688907F0D4FFF749FAA0EB50
:101420000800A842F3D3012084F85100002084F87A
:101430005000032004B0BDE8F08100BFFFF738FA88
:10144000E08E78B1206881688907F7D5216B09782B
:101450000173206B01302063E08E0138E086E08E5E
:101460000028EFD12046022101222B46CDF8008032
:1014700000F044FEE0B1606D40F020006065202087
:101480006065A06838B9002002902068C1680291A8
:10149000806802900298012084F85100002084F8AE
:1014A0005000606D002818BF012004B0BDE8F08135
:1014B00040F20800C2F20000006849F68171C1F2F2
:1014C0005E61A0FB0101480D4FF47A71484303901F
:1014D0006068B0F5827F0BD12046802100222B4628
:1014E000CDF8008000F00AFE0028C4D1C9E700BF93
:1014F00003980028C5D003980138039020688068BD
:101500000006BED503980028BBD00398013803908D
:10151000206880680006B4D503980028B1D00398ED
:1015200001380390206880680006AAD50398002837
:10153000A7D0039801380390206880680006D7D4AC
:101540009FE700002DE9F04383B01E4615460F4685
:101550000446FFF7ADF994F851108146012909D1ED
:10156000002F4FF0010018BF002D0FD103B0BDE8D0
:10157000F08300BF6068B0F5827F0DD1A0680028BD
:101580004FF0020008BF0429F0D1E9E7002EEDD0AA
:1015900094F85000012803D1022003B0BDE8F08385
:1015A000012084F8500094F85100002104281CBF49
:1015B000052084F851006165A563E687A687276347
:1015C000E6862068A686216461640168490603D422
:1015D000016841F0400101606168731EE268B1FA80
:1015E00081F1B3FA83F3DDF8288049095B09B2F58C
:1015F000006F41EA030165D131B137F8021BC160C8
:101600002763E08E0138E086012518F1010032D110
:1016100002E000BFFFF74CF9E08E18B9E08F002818
:1016200000F0B8802068816889070CD5E18E51B13F
:10163000012D08D1216B002531F8022BC2602163F6
:10164000E18E0139E1868168C907E3D0E18F002985
:10165000E0D0C068A16B012521F8020BA163E08FE7
:101660000138E087D6E700BFFFF722F9A0EB0900B9
:10167000404580F0A580E08E18B9E08F002800F08A
:1016800089802068816889070CD5E18E51B1012DD0
:1016900008D1216B002531F8022BC2602163E18E55
:1016A0000139E1868168C907DED0E18F0029DBD0EE
:1016B000C068A16B012521F8020BA163E08F0138FE
:1016C000E087D1E739B139780173206B01302063AD
:1016D000E08E0138E086012518F1010032D101E0E9
:1016E000FFF7E6F8E08E10B9E08F002852D02068AE
:1016F000816889070ED5E18E61B1012D0AD1216B78
:10170000002509780173216B206801312163E18E86
:101710000139E1868168C907E2D0E18F0029DFD075
:10172000C068A16B01250870A06B0130A063E08F39
:101730000138E087D4E700BFFFF7BAF8A0EB090053
:1017400040453DD2E08E08B9E08F18B3206881682B
:1017500089070ED5E18E61B1012D0AD1216B0025DB
:1017600009780173216B206801312163E18E013911
:10177000E1868168C907DFD0E18F0029DCD0C0682D
:10178000A16B01250870A06B0130A063E08F0138C8
:10179000E087D1E72046022101224346CDF80090A0
:1017A00000F0ACFCB0B1606D40F02000606520201E
:1017B0006065002084F85000012003B0BDE8F0838C
:1017C000012084F85100002084F85000032003B069
:1017D000BDE8F08340F20800C2F20000006849F65C
:1017E0008171C1F25E61A0FB0101480D4FF47A7175
:1017F000484302906068B0F5827F21D12046802165
:1018000000224346CDF8009000F078FC0028CAD1B1
:10181000A06838B9002001902068C16801918068F3
:1018200001900198012084F85100002084F85000B4
:10183000606D002818BF012003B0BDE8F08300BF31
:1018400002980028E4D0029801380290206880684D
:101850000006DDD502980028DAD0029801380290FF
:10186000206880680006D3D502980028D0D002985E
:1018700001380290206880680006C9D502980028C7
:10188000C6D0029801380290206880680006D7D43C
:10189000BEE70000411E0020B0EB116F1CBF01200D
:1018A00070474EF21002CEF2000251604EF6235104
:1018B000CEF20001F0230B70072190601160704799
:1018C000704700007047000010B590F83C20012AD6
:1018D0004FF0020251D080F83D200268D2F804E0B7
:1018E000D2F808C00C682EF07003234341F2FF7455
:1018F000C4F20004A24253600EDC40F2FF73C4F253
:1019000000039A4216DCB2F1804F2BD040F2004324
:10191000C4F2000324E000BF40F2FF33C4F201032D
:101920009A4213DC41F60003C4F200039A4219D034
:10193000002313E040F60003C4F200039A4211D0E2
:1019400040F60043C4F200030AE000BF44F2000383
:10195000C4F201039A4205D040F20043C4F20103ED
:101960009A4204D149682CF0800319439160012107
:10197000002280F83D1080F83C20104610BD000089
:10198000002804BF0120704710B5044690F83D00C0
:1019900028B9002084F83C00204600F01FF80220FF
:1019A00084F83D002068211D00F0A6FC012084F889
:1019B000460084F83E0084F83F0084F8400084F834
:1019C000410084F8420084F8430084F8440084F81D
:1019D000450084F83D00002010BD000010B582B025
:1019E000006844F20041C4F20101884216D041F27D
:1019F0000001C4F2000188422CD10020019043F67E
:101A00004000C4F202000168362441F01001016078
:101A1000006800F01000019001980FE00020009095
:101A200043F64000C4F202004168192441F4003139
:101A30004160406800F4003000900098204600218A
:101A40000022FEF7B9FF204602B0BDE81040FEF7C5
:101A50009FBF00BF02B010BD90F83D1001291CBF10
:101A600001207047022180F83D10006841F2FF72AA
:101A7000C168C4F20002904241F00101C1600DDC76
:101A800040F2FF71C4F20001884215DCB0F1804FD2
:101A90002AD040F20041C4F2000123E040F2FF31BD
:101AA000C4F20101884213DC41F60001C4F20001D6
:101AB000884219D0002113E040F60001C4F2000171
:101AC000884211D040F60041C4F200010AE000BF94
:101AD00044F20001C4F20101884205D040F2004105
:101AE000C4F20101884206D1816801F0070106298C
:101AF00004BF00207047016841F00101016000202F
:101B0000704700007047000070B504460068C56863
:101B10000669B10716D515F0020113D06FF0020166
:101B20000161012121778069800703D02046FFF7FA
:101B3000E9FF05E0204600F08FF8204600F0D0F9DC
:101B400000202077700719D515F0040016D0206802
:101B50006FF00401016102212177806910F4407F58
:101B600004D02046FFF7CEFF06E000BF204600F07D
:101B700073F8204600F0B4F900202077300717D51D
:101B800015F0080014D020686FF0080101610421ED
:101B90002177C069800703D02046FFF7B3FF05E037
:101BA000204600F059F8204600F09AF900202077EE
:101BB000F00619D515F0100016D020686FF010014E
:101BC000016108212177C06910F4407F04D02046CC
:101BD000FFF798FF06E000BF204600F03DF82046E2
:101BE00000F07EF900202077F00718BF15F0010003
:101BF00002D1300609D412E020686FF001010161C2
:101C0000204600F06FF9300609D515F0800006D0A7
:101C100020686FF0800101612046FFF751FE7006D9
:101C200009D515F0400006D020686FF04001016131
:101C3000204600F059F9B00658BF70BD15F02000DD
:101C400008D021686FF0200220460A61BDE870408C
:101C5000FFF738BE70BD0000704700002DE9F0436B
:101C600090F83C30012B04BF0220BDE8F0834FEA1E
:101C7000B202032A00F2FC80DFE802F0023E7EBEE0
:101C8000036840F200471C6A1A6A24F0020422F03A
:101C900001021A621A46D3F804E052F818CF8E688F
:101CA00043F48065C4F20107BD4244EA060405D14D
:101CB000CE6824F00C0426F0040634430E68BD42BE
:101CC00007D1D1E905572EF4407E45EA0E0545EAD5
:101CD000070E2CF073073743C3F804E09F614F6889
:101CE00009695F631C629F6947F008079F619F69EC
:101CF00027F004079F61B1E0036840F200481C6AC6
:101D00001A6A24F0200422F010021A621A46D3F84C
:101D100004C052F818EF8F6843F48065C4F20108DC
:101D2000454544EA071407D1CF686FF0400624F018
:101D3000C00406EA07163443D1F80090454506D1A1
:101D4000D1E905562CF440672E4347EA860C2EF461
:101D5000E64747EA0927C3F804C09F614F6809694D
:101D60009F631C629F6947F400679F619F6927F426
:101D700080679F6171E000BF036840F200481C6A01
:101D80001A6A24F4007422F480721A621A46D3F894
:101D900004C052F81CEF8F6843F48065C4F2010858
:101DA000454544EA072408D1CF6840F2FF463F0288
:101DB00024F4406427EA06063443D1F800904545F0
:101DC00006D1D1E905562CF440572E4347EA061CAC
:101DD0002EF0730747EA0907C3F804C0DF614F68B4
:101DE0000969DF631C62DF6947F00807DF61DF69AB
:101DF00027F00407DF6131E0036840F20045D3F8C3
:101E000020C01A6A43F4806722F480521A621A468C
:101E10005C6852F81CEFD1F800808E68C4F20105AE
:101E2000AF4204D14D6924F4804444EA85142CF473
:101E3000005747EA06372EF4E64646EA08265C6075
:101E4000DE614E6809691E641F62DF6947F400673E
:101E5000DF61DF6927F48067DF61090213681943D6
:101E600011600021002280F83C200846BDE8F08384
:101E70000121002280F83C200846BDE8F0830000E4
:101E8000002804BF0120704710B5044690F83D00BB
:101E900028B9002084F83C00204600F01FF80220FA
:101EA00084F83D002068211D00F026FA012084F806
:101EB000460084F83E0084F83F0084F8400084F82F
:101EC000410084F8420084F8430084F8440084F818
:101ED000450084F83D00002010BD00007047000060
:101EE000704700007047000070470000FEE70000E8
:101EF0002DE9F04186B0002743F6300005970097A2
:101F0000C4F202000168002441F00201016001688E
:101F1000C4F2020401F002010091009900970168E7
:101F2000002241F00101016001684FF0100801F04A
:101F30000101009100990097016841F08001016062
:101F40000068102100F08000009000982046FEF705
:101F5000A9FC04F580652846012100220126FEF730
:101F6000A1FCCDE901860DF1040820464146CDE9EA
:101F70000377FEF7C3FB28464146CDE90166CDE96C
:101F80000377FEF7BBFB06B0BDE8F081B0B540F2C9
:101F90008C0043F20001C2F20000C4F201014FF4D0
:101FA0008272002380E80E0000F10C014FF0020C59
:101FB0004FF0010E4FF40074382581E808500A21D3
:101FC000C0E90645C0E90833C0E90A31FEF7D0FF91
:101FD000002808BFB0BDBDE8B040FEF7C7BA00009A
:101FE000B0B58CB044F2004540F2E400C4F2010503
:101FF0000021C2F20000A8226423CDE90511CDE939
:102000000311C0E90052C0E9021301618161FFF7C9
:10201000B7FC002818BFFEF7A9FA40F2E400C2F2AC
:102020000000FFF72DFF002818BFFEF79FFA602081
:1020300040F2E40400900020C2F20004CDE9010067
:102040000490694620460022FFF708FE002818BFCA
:10205000FEF78CFA2068A84202D00CB0B0BD00BFD9
:10206000002043F630010790C4F202010A6842F0F2
:1020700002020A60096801F00201079107994FF412
:10208000807107910221CDE908100A9003200B907E
:1020900005F5404007A9FEF731FB0CB0B0BD0000CC
:1020A00080B582B040F22C1041F200020021C2F251
:1020B0000000C4F20002A8234FF47A7CCDE900119D
:1020C000C0E90023C0E9021C8161FFF759FC002828
:1020D00018BFFEF74BFA40F22C10C2F2000069461E
:1020E000FFF7F2FB002818BFFEF740FA02B080BDF0
:1020F000FEE70000FEE70000704700002DE9F04316
:1021000081B0089C984615460E468146FEF7D0FBE6
:10211000201A00EB0804FEF7CBFB40F20801C2F2E4
:1021200000010968C1F3CB3161430091D9F8001077
:102130008A683240921BB2FA82F25209AA423DD01A
:10214000074618F1010031D0FEF7B2FBC01BA042D8
:1021500038D2009800990028A1F101010091D9F826
:102160000010896808BF044601EA0600801BB0FA27
:1021700080F04009A842E7D120E000BF88683040E5
:10218000801BB0FA80F04009A84217D08868304020
:10219000801BB0FA80F04009A8420FD08868304018
:1021A000801BB0FA80F04009A84207D08868304010
:1021B000801BB0FA80F04009A842DFD1002001B0B6
:1021C000BDE8F083D9E900014268B1F5827F22F0D1
:1021D000E00242600BD1D9F80810B1F5004F02D0EF
:1021E000B1F5806F03D1016821F040010160D9F899
:1021F0002810B1F5005F07D1016821F4005101609A
:10220000016841F400510160012089F8510000206B
:1022100089F85000032001B0BDE8F083704700004A
:10222000FEF74CBBB0B592B0002443F64000CDE9B8
:102230000A44CDE908440594CDE90344CDE90144BD
:102240000094C4F202000168022541F0805101604F
:10225000006800F080500090009847F20000009461
:10226000C4F20000016841F480410160006800F49C
:10227000804000900098012006904FF48030079035
:102280004FF480000D9006200E90A820CDE90F0598
:102290000420119006A80C95FEF7B0FC10B172B6A0
:1022A000FEE700BF0F20CDE901054FF4A0500490D8
:1022B0004FF48050059001A805210394FEF7B8FB68
:1022C00010B172B6FEE700BF12B0B0BD4EF6885036
:1022D000CEF20000016841F4700101607047000017
:1022E00040F2E400C2F20000FFF70EBC40F22C10F6
:1022F000C2F20000FFF708BC10B540F6FF3E0368CD
:10230000C4F2000E40F2004C7045C4F2010C27DC10
:10231000B0F1804F31D040F20042C4F2000290424E
:102320002BD040F60002C4F20002904225D041F6C4
:10233000FF72C4F20002904229DC70453CDCB0F12F
:10234000804F5FD040F20042C4F20002904259D068
:1023500040F60002C4F20002904253D056E000BFA3
:1023600040F60042C4F20002904206D0604504D01C
:102370000022C4F201029042D9D14A6823F07003CE
:10238000134341F6FF72C4F200029042D5DD43F6DA
:10239000FF72C4F20102904222DC42F20002C4F257
:1023A000000290422ED00022C4F20102904229D0B5
:1023B000604527D02AE000BF40F60042C4F2000288
:1023C00090421FD041F60002C4F20002904219D0A0
:1023D00041F60042C4F20002904213D016E000BF62
:1023E00044F20002C4F2010290420BD044F6000213
:1023F000C4F20102904205D044F20042C4F201024C
:10240000904203D1CA6823F44073134323F080023F
:102410004B69D1F800E08C681A430260C46240F452
:102420008062C0F828E0624504BF096901630121A8
:1024300041610169C90708BF10BD016921F00101AF
:10244000016110BDFEE70000FEF746FAFFF7EAFE65
:10245000FFF74EFDFFF79AFDFFF722FEFFF7C0FDE5
:1024600040F22C10C2F20000FFF7F6FAFDF7B2FFBF
:10247000FEF780F80520FEF72DF9F9E7F1EE100AD6
:102480004FF6FF71C0F2C03120EA010040F0407009
:10249000E1EE100A70470000000000000000010299
:1024A0000304060708090000C824000800000020F3
:1024B00010000000C4010008D8240008100000200B
:1024C00078070000E0010008010000001000000093
:0824D0000024F40000000000EC
:040000050800018965
:00000001FF
