:020000040800F2
:10000000980B00202D020008D12F00081D2D00089C
:10001000CD2F000849040008213500080000000029
:10002000000000000000000000000000F93000089F
:100030007104000800000000D52F0008FD30000802
:10004000470200084702000847020008470200086C
:10005000470200084702000847020008470200085C
:10006000470200084702000847020008470200084C
:10007000470200084702000847020008470200083C
:10008000470200084702000847020008470200082C
:100090004D04000847020008470200084702000814
:1000A000470200084702000847020008470200080C
:1000B00047020008470200084702000847020008FC
:1000C00047020008470200084702000847020008EC
:1000D00047020008153500084702000847020008DB
:1000E00047020008470200084702000847020008CC
:1000F00047020008470200084702000847020008BC
:1001000047020008470200084702000847020008AB
:100110004702000847020008C131000847020008F2
:10012000470200084702000865040008470200086B
:10013000470200084702000847020008470200087B
:100140005904000847020008470200084702000857
:10015000470200084702000847020008470200085B
:10016000470200084702000847020008470200084B
:10017000470200084702000847020008000000008C
:10018000470200084702000800F002F800F03EF8BD
:100190000AA090E8000C82448344AAF10107DA45E2
:1001A00001D100F033F8AFF2090EBAE80F0013F0F6
:1001B000010F18BFFB1A43F001031847B0420000BB
:1001C000D0420000103A24BF78C878C1FAD852074C
:1001D00024BF30C830C144BF04680C6070470000C1
:1001E0000023002400250026103A28BF78C1FBD840
:1001F000520728BF30C148BF0B6070471FB504F0DD
:1002000012F900F0D5F81FBD10B510BD00F0E2F8EE
:100210001146FFF7F3FF03F023FF00F000F903B4EA
:10022000FFF7F2FF03BC00F007F900000948804720
:1002300009480047FEE7FEE7FEE7FEE7FEE7FEE7C8
:10024000FEE7FEE7FEE7FEE704480549054A064BE0
:1002500070470000AD3100088901000898050020B2
:10026000980B0020980700209807002053EA020C02
:1002700000F069802DE9F04B4FF00006002B1FBF06
:10028000B3FA83F503FA05F424FA05F65E4012BFCB
:100290001643B2FA82F502FA05F4C5F120051EBF35
:1002A00022FA05FC44EA0C04203556EA044C4FEAD5
:1002B000144418BF641C4FF000084FF0000990422E
:1002C00071EB030C39D3002919BFB1FA81F701FA98
:1002D00007F6B0FA80F700FA07F6C7F120071EBF4D
:1002E00020FA07FC46EA0C062037B6FBF4FCA7EB25
:1002F0000507103F07F01F0BCBF120062CFA06F67E
:100300000CFA0BFB44BFB3460026202FA4BF5E4669
:100310004FF0000B5BEA060C08BF4FF0010B19EB26
:100320000B0948EB0608ABFB027C06FB02CC0BFB7F
:1003300003CCC01B71EB0C01C1E70B4602464146E2
:100340004846BDE8F08B13B5084318BF4FF0FF30A7
:100350000146AFF30080BDE81C4070474FF000023B
:1003600000B5134694469646203922BFA0E80C50AB
:10037000A0E80C50B1F12001BFF4F7AF090728BF86
:10038000A0E80C5048BF0CC05DF804EB890028BF02
:1003900040F8042B08BF704748BF20F8022B11F02B
:1003A000804F18BF00F8012B7047704770477047A7
:1003B00070B5064C7C44064D7D4404E0204601683F
:1003C00008448047241DAC42F8D170BDD4400000E1
:1003D000D4400000754600F02BF8AE460500694693
:1003E000534620F00700854618B020B5FFF72CFFD4
:1003F000BDE820404FF000064FF000074FF0000826
:100400004FF0000BAC46ACE8C009ACE8C009ACE862
:10041000C009ACE8C00921F007018D46704710B54E
:100420000446AFF300802046BDE81040FFF7F7BE5A
:10043000004870475800002001491820ABBEFEE775
:100440002600020070470000FEE7000040F2D830AE
:10045000C2F2000000F036B940F20040C2F20000E3
:1004600000F030B940F22840C2F2000000F01CBC9D
:100470007047000072B600BFFEE7000090F8202031
:10048000013A012A08D8006800F11402002013681C
:1004900019431160704700BF00F1240201204FF49E
:1004A000802113681943116070470000B0B590F8BF
:1004B0002020013A012A2FD846F20060C4F2000041
:1004C000026842F001020260026822F47C5202607B
:1004D000D1F814E0CC694A6A0368012C43EA02228D
:1004E00002600EF01F024FF0010303FA02F2C3692B
:1004F0006FEA020C23EA0203C36113D02CBBC3686A
:1005000003EA0C03C360CB688C8844EA034300EB26
:10051000CE0423640B4611E0416A41F4802141621C
:100520000120B0BDC3681343C3600B688C8844EAE4
:10053000034300EBCE04236401F10C038C681B8899
:1005400043EA044300EBCE04636443688D6943EAE5
:100550000204D1F810E0096A002D08BF03EA0C0478
:1005600044604369BEF1000F43EA020408BF03EA96
:100570000C040129446102D1C1691143C1610168C0
:1005800021F0010101600020B0BD000070470000B3
:1005900010B590F82040013C012C7BD8D0F800C069
:1005A000002900F08180DCF81040A40700F0818071
:1005B0000CEB011CDCF8B0410CF5D87E14F00404FF
:1005C0009460DCF8B04119BFE4085460640D146015
:1005D000DEF800400CF5DA7E04F00204D460DCF8AA
:1005E000B44124075ABFDEF8004004F00F04082489
:1005F0001461DEF800400029C4F307249461DEF89A
:1006000000404FEA14445461DCF8B8211A700268C3
:1006100002EB0112D2F8B8214FEA12225A70026896
:1006200002EB0112D2F8B8214FEA12429A70026826
:1006300002EB0112D2F8B8214FEA1262DA700268B6
:1006400002EB0112D2F8BC211A71026802EB01120E
:10065000D2F8BC214FEA12225A71026802EB011251
:10066000D2F8BC214FEA12429A71026802EB0112E1
:10067000D2F8BC214FEA1262DA71006814BF00F1AF
:10068000100100F10C01002020220B681A430A60BF
:1006900010BD00BF00F1240101204FF480220B683F
:1006A0001A430A6010BD00BFDCF80C40A4077FF4B9
:1006B0007FAF00F1240101204FF400120B681A43B0
:1006C0000A6010BD2DE9F04F81B00446006846690C
:1006D000D0F804908768D0F80CB0D0F810A0D0F80B
:1006E0001880F10704D1002530071DD424E000BF95
:1006F000F90710D00121BA07816009D4780700F109
:10070000AF80380700F1B680204600F065FA02E0BD
:10071000204600F063FA0025F80500F18780F80311
:1007200000F1B180300707D51BF0100004D020681D
:1007300045F400751021C160700708D51BF0080052
:1007400005D020680821C160204600F0F5F9B00707
:1007500006D52068C068800702D0204600F0EEF978
:10076000700607D51AF0100004D0206845F48065A3
:1007700010210161B00608D51AF0080005D02068E4
:1007800008210161204600F0F3F9F00606D5206843
:100790000069800702D0204600F0ECF9B00308D5CC
:1007A00019F0100005D0206810214160204600F0AB
:1007B000E3F9F00308D519F0080005D020680821F6
:1007C0004160204600F014FA300440F19B805FEA5B
:1007D000497040F1948006F4807008EA10202843A4
:1007E0005FEA8871014648BF41F00201B20558BF77
:1007F00001465FEA48700D4648BF45F004057005A4
:1008000058BF0D46300540F17A8018F0700000F0B6
:1008100076801038000905286CD8DFE800F003590D
:100820005D61656945F0080564E000BF20684FF42C
:100830008071BA0581600BD4780515D438051DD4B4
:10084000204600F0CDF9F8037FF56CAF1BE000BF48
:10085000204600F0C7F9F8037FF564AF13E000BF4E
:100860004FF4006558E700BF05F50055F8037FF524
:1008700059AF08E04FF480554EE700BF05F58045BD
:10088000F8037FF54FAF20684FF48031BA038160E1
:100890000AD4780310D4380314D4204600F0A4F905
:1008A00030073FF541AF47E7204600F09FF930079A
:1008B0003FF53AAF40E700BF05F5004530073FF58B
:1008C00033AF39E705F5803530073FF52DAF33E716
:1008D00045F010050EE000BF45F020050AE000BF1E
:1008E00045F0400506E000BF45F0800502E000BF8E
:1008F00045F480752068816921F07001816120686C
:100900000421416055B1606A40EA050120466162F8
:1009100001B0BDE8F04FFFF739BE00BF01B0BDE840
:10092000F08F0000B0B5C8B1044690F8200010B9AF
:10093000204600F071F82068016841F00101016073
:1009400000F03AFC054600BF20684168C90707D19E
:1009500000F032FC401B0B28F6D312E00120B0BDA2
:10096000016821F00201016000F026FC054600BF8D
:100970002068416889070DD500F01EFC401B0B283C
:10098000F6D3606A052140F400306062012084F8EB
:100990002010B0BD217E0268012922F0800208BF2C
:1009A00080320260617E0268012922F0400208BFA5
:1009B00040320260A17E0268012922F0200208BFB5
:1009C00020320260E17E0268012922F0100218BF85
:1009D00010320260217F0268012922F0080208BF5C
:1009E00008320260617F0268012922F0040208BF18
:1009F00004320260D4E901C2D4E9033561691A43C3
:100A00002A431143ACF101021143C16100200121CD
:100A1000606284F82010B0BD10B586B0006846F65C
:100A20000002C4F2000200219042CDE90411CDE998
:100A30000211019134D046F20041C4F20001884213
:100A400077D140F29831C2F200010A6843F64000C3
:100A5000C4F20200531C0B6052B9002100910168DE
:100A600041F000710160016801F00071009100998E
:100A70000021009150F8101C142441F0080140F8A6
:100A8000101C50F8100C032100F008000090009892
:100A900040F20040C4F2020000F5006035E000BF03
:100AA00043F64000C4F202000091016841F0806109
:100AB0000160016801F080610091009940F2983175
:100AC000C2F200010A68531C0B6052B90021009168
:100AD000016841F000710160016801F0007100914E
:100AE00000990021009150F8101C402441F00201AF
:100AF00040F8101C50F8100C602100F0020000902B
:100B0000009840F20040C4F20200019102210291DB
:100B100000210391032104910921059101A900F00D
:100B200069FA20460021002200F0FCFB204600F07C
:100B3000E5FB06B010BD0000704700002DE9F04154
:100B40008EB00DF1300805AA002143460446FFF798
:100B50001FFD08AF05ABE1CF0ECB8DE8610020464D
:100B6000CDF81080039702F0ABFE0EB0BDE8F08127
:100B7000704700007047000070470000B0B50446A1
:100B800090F8200001281DD1022084F82000206860
:100B9000016821F00101016000F00EFB054600BF75
:100BA00020684068C00713D000F006FB401B0B28EC
:100BB000F6D3606A40F400306062052084F82000BB
:100BC0000120B0BD606A40F4002060620120B0BD29
:100BD00000206062B0BD0000704700007047000058
:100BE0007047000070470000704700007047000029
:100BF0007047000070B5866D044600F0DDFA94F889
:100C00003510022928D105462068216C026822F09F
:100C100016020260426922F08002426109B9A16CA9
:100C200019B1016821F008010160016821F001019A
:100C3000016000BF20680068C00715D000F0BCFA52
:100C4000401B0628F6D320206065032084F8350079
:100C5000002184F8341070BD8020606501200021DF
:100C600084F8341070BD00BFE06D3F2101FA00F040
:100C7000B060012084F835000020002184F8341091
:100C800070BD000090F83510022909D1052180F8C7
:100C900035100068016821F00101016000207047F3
:100CA0008021416501207047F0B581B004460020E5
:100CB000009040F20800C2F200000268D4E9166019
:100CC00048F2B51337680821C1F64E3381403942E6
:100CD000A2FB03250CD0226813685B0708D51368B4
:100CE00023F004031360B160616D41F0010161659F
:100CF00001218140394208D022685269120604D588
:100D0000B160616D41F002016165042181403942A9
:100D100008D022681268920704D5B160616D41F075
:100D20000401616510218140394217D020680268B2
:100D3000120713D5B16002680168520308D4C905CF
:100D400008D4016821F008010160216C21B905E097
:100D500008033FD4216C09B120468847E16D20206B
:100D600000FA01F23A4241D020680368DB063DD523
:100D7000B26094F835300268052B1BD122F01602C0
:100D80000260426922F080024261226C0AB9A26CC0
:100D90001AB1026822F0080202603F208840B06069
:100DA000012084F83500216D0020002984F83400EA
:100DB00052D157E00168520310D4C90512D401681A
:100DC00021F010010160012084F83500002084F832
:100DD000340007E0A16C0029BED1BFE7080301D4AD
:100DE000616C00E0E16B09B120468847606DC8B3D3
:100DF000606DC0072ED0052084F835002068A90A50
:100E0000026822F001020260009A01328A420092D6
:100E10001AD80268D20717D0009A01328A4200928B
:100E200012D80268D2070FD0009A01328A4200928B
:100E30000AD80268D20707D0009A01328A4200928B
:100E400002D80268D207DFD1012084F835000020E3
:100E500084F83400E16C29B1204601B0BDE8F040CF
:100E6000084700BF01B0F0BD2DE9F041044600F095
:100E7000A3F9ECB10546022084F835000020216872
:100E800084F83400086820F00100086021680868D0
:100E9000C00711D000F090F9401B0528F6D90325B2
:100EA00020230320636584F83550BDE8F08100BF3E
:100EB0000120BDE8F08100BF086848F23F02CFF290
:100EC0001002D4E9013500EA020C04F10C0898E89C
:100ED000C10143EA0C032B431843D4E9072E3043E6
:100EE00038431043626A40EA0E00042A40EA0803CD
:100EF0001CD1206BD4E90A2E40EA0E00184308608A
:100F00004869BEF1000F20F0030040EA020040F003
:100F1000040C11D0B8F5005F36D0B8F1000F45D100
:100F2000022A46D0012A3BD032B942E00B60486920
:100F300020F0070040EA020C01F0F8004AF6AB226C
:100F40001038CAF6AA22A0FB02231A0944F262430F
:100F5000C0F600039A5C40F2FF335F284FF03F0079
:100F6000C1F814C021EA030100FA02F088BF04317D
:100F7000C4E916128860002301250020636584F807
:100F80003550BDE8F08100BF032AD5D801254023A4
:100F90000120DFE802F0030E030500BF82E700BF77
:100FA000AEF1C070B0FA80F0400904E0032A04D327
:100FB000C2D1CEF300600028BED00125402301201D
:100FC000636584F83550BDE8F0810000B0B5044693
:100FD00000F0F2F8054640F20000C2F2000000788E
:100FE000611C18BF044400BF00F0E6F8401BA0429B
:100FF000FAD3B0BD2DE9F04F82B000F13E4241F688
:10100000004502F1FF77C4F20205082243F6004EC4
:101010004FEAB726A84208BF0722C4F2010E072EE6
:1010200038BF4FEAB7220125002600274FF00008FD
:10103000009208E008F101080437B8F1100F06F13A
:10104000020600F0A7800C6805FA08F914EA090FF7
:10105000F0D0D1F804B003220BF0030CACF1010482
:10106000B240012C6FEA020A10D88268CC6802EA0A
:101070000A02B440224382604268CBF3001422EAA1
:10108000090204FA08F42243426005E0BCF1030FB0
:1010900002D14FF0030C20E0C2688C6802EA0A0219
:1010A000B4402243BCF1020FC26016D16FF00302BC
:1010B00002EA58020244D2F820C007F01C050F23B0
:1010C0000C69AB402CEA030304FA05F52B431362C9
:1010D000D1F804B001250BF0030C02680CFA06F3FA
:1010E00002EA0A021A431BF4403F0260A2D0002227
:1010F00043F644030192C4F202031A684FF6084C07
:1011000042F480421A601A68CFF6FF7C02F48042F3
:101110000192019A28F00302724452F80C3007F051
:101120000C050F24AC40A343009C04FA05F52B43A7
:1011300042F80C30DEF808204B6842EA090543F615
:101140000C4CDC0258BF22EA0905CEF80850C4F264
:10115000010CDCF800209C0242EA090558BF22EA93
:101160000905CCF80050DEF804209C0342EA09058A
:1011700058BF22EA0905CEF80450DEF80020DB0350
:1011800042EA090558BF22EA0905CEF800500125B8
:1011900050E700BF02B0BDE8F08F0000426902EAEC
:1011A0000103914341EA034181617047002A08BF6E
:1011B000090481617047000040F29450C2F20000BF
:1011C00000687047B0B538B304460068D4E901122E
:1011D0004CF6CC43036045F2555303604160826096
:1011E000FFF7EAFF2168CA6892070FD0054602E0C0
:1011F000C86880070AD0FFF7DFFF401B216832284C
:10120000F6D3C8688007F3D00320B0BD4AF6AA2001
:1012100008600020B0BD00BF0120B0BD01684AF6E3
:10122000AA2200200A60704740F2000040F2945168
:10123000C2F20000C2F2000100780A68104408609F
:101240007047000080B543F60040C4F20200016818
:1012500041F400710160016841F48061016001683E
:1012600041F480710160032000F088F80F2000F045
:1012700005F800F027F8002080BD000070B540F2AE
:101280000006C2F2000640F208013278C2F2000104
:101290004FF47A730968B3FBF2F20446B1FBF2F142
:1012A000084600F0D5FF0F2C4FF0010508D838B9DB
:1012B0004FF0FF3021460022002500F033F8746023
:1012C000284670BD82B0002043F640010190C4F270
:1012D00002014A6842F480424A604A6802F480424D
:1012E0000192019A0090086840F0805008600868F8
:1012F00000F080500090009802B07047002848BF6E
:101300007047C1B200F01F00012202FA00F04EF255
:101310000012CEF2000242EAD10121F0030108607E
:101320007047000010B54EF60C5CCEF2000CDCF8F5
:101330000030C3F3022E8EF00704042C28BF0424CF
:10134000BEF103034FF0FF3E0EFA04F438BF002352
:10135000A14399400EFA03F39A43114300F00F02A0
:1013600000F160430901043A03F564436244002834
:1013700048BF02F10C03197010BD00004EF60C516D
:10138000CEF200010A684FF6FF031A4060F30A220A
:1013900042F0806040F0FD70086070472DE9F04138
:1013A000002800F08B8043F60808C4F202080446C7
:1013B000D8F8F8030D4600F00700884207D288F8F5
:1013C000F853D8F8F80300F00700A84276D1206857
:1013D000810717D5410705D5D8F8001041F4E05131
:1013E000C8F80010010705D5D8F8001041F4604195
:1013F000C8F80010D8F80010A26821F0F0011143DD
:10140000C8F80010C0073FD1D8F8F80300F0070073
:10141000A84207D988F8F853D8F8F80300F0070075
:10142000A8424BD12068410707D5D8F80010E268E0
:1014300021F4E0511143C8F80010000708D5D8F88E
:101440000000216920F4604040EAC100C8F80000B3
:1014500000F07CF8D8F8001044F24A42C1F30311BE
:10146000C0F60002515C40F2080220FA01F140F29D
:101470000400C2F200000068C2F200021160FFF72F
:10148000FDFE0020BDE8F0816068811E022907D2C0
:1014900058F8081C89015CBF0120BDE8F08111E00B
:1014A000012807D158F8081C89035CBF0120BDE85A
:1014B000F08107E058F8081C890703D40120BDE833
:1014C000F08100BFD8F8001021F003010843C8F8EC
:1014D0000000FFF771FE064641F28837D8F8000099
:1014E000616800F00C00B0EB810F8DD0FFF764FE57
:1014F000801BB842F2D90320BDE8F08140F2080019
:1015000043F60801C2F20000C4F202010068096853
:1015100044F25A42C1F38221C0F60002515CC84035
:101520007047000040F2080043F60801C2F20000D4
:10153000C4F202010068096844F25A42C1F3423120
:10154000C0F60002515CC8407047000010B543F679
:101550000404C4F20204606800F00C0008280BD0F8
:10156000042819BF42F20040C0F2F40041F60030F6
:10157000C0F2B70010BD00BF20682168236849028F
:1015800041F60031C0F2B70100F03F02C3F388100A
:101590005CBF42F20041C0F2F401A1FB0001002354
:1015A000FEF764FE21680222C1F3014102EB410112
:1015B000B0FBF1F010BD00002DE9F04182B0002831
:1015C00068D00446007843F60006C007C4F202065D
:1015D0000BD0B06800F00C00042840F09F80306809
:1015E000800302D56068002854D0207880071AD57F
:1015F000B06810F00C0F09D0B06800F00C0008289B
:1016000040F0A6807068400200F1A2803068800738
:1016100002D5E06801283DD13068216920F0F8004A
:1016200040EAC10030602078000737D420784007B6
:101630004CD4A56955B3B06800F00C00082840F000
:10164000BB80012D26D07068E16900F480028A42D7
:1016500020D1216A00F03F028A421BD147F6C071B7
:10166000626A0140B1EB821F14D1A16A4FF6FF7389
:10167000C903994300F44032A1F580318A4209D16F
:10168000E16A00F07060B0EB016F03D1002002B09E
:10169000BDE8F081012002B0BDE8F081606900285A
:1016A00040F20000C4F2472076D00121C0F8801E2D
:1016B000FFF782FD054600BF706F8007B6D4FFF7C5
:1016C0007BFD401B0228F7D9DDE000BF306C10F035
:1016D00080580AD100200190306C40F08050306476
:1016E000306C00F080500190019847F20007C4F27E
:1016F00000073868C00541D4386840F4807038600D
:10170000FFF75AFD054600BF3868C00536D4FFF71D
:1017100053FD401B0228F7D9B5E000BFB06800F0C8
:101720000C00082803D1706840023FF558AF60688C
:10173000B0F5803F07D0B0F5A02F40F08D80306825
:1017400040F480203060306840F4803030608DE0BC
:10175000E068002852D00020C4F247200121016037
:10176000FFF72AFD054600BF306880073FF554AFFC
:10177000FFF722FD401B0228F6D984E0A06801286B
:1017800005D005284ED1306F40F004003067306F2F
:1017900040F0010030674FE00021C0F8801EFFF7E5
:1017A0000BFD0546706F80077FF540AFFFF704FD26
:1017B000401B0228F6D966E00027C4F24727002024
:1017C0003866FFF7F9FC022D05460BD13068800121
:1017D0005ED5FFF7F1FC401B02284FF00300F5D95E
:1017E00055E700BF306880017FF550AFFFF7E4FC9C
:1017F000401B02284FF00300F4D948E70020C4F250
:10180000472000210160FFF7D7FC054630688007BC
:101810007FF509AFFFF7D0FC401B02284FF0030013
:10182000F4D934E7316F002821F001013167316FBD
:1018300021F0040131674DD0FFF7BEFC054641F2AF
:10184000883700BF306F800756D4FFF7B5FC401BC8
:10185000B842F7D917E000BF3168002821F4803181
:101860003160316821F4802131604FD0FFF7A4FC52
:10187000054600BF306880033FF5B7AEFFF79CFC1C
:10188000401B6428F6D9032002B0BDE8F08100BFF8
:1018900004F11C052FCD084340EA8210D9034FF60E
:1018A000FF729143A1F5803140EA05600843706002
:1018B00001203866FFF780FC044600BF30688001D5
:1018C0003FF5E4AEFFF778FC001B02284FF0030061
:1018D000F4D9DCE6FFF770FC054641F2883700BF1B
:1018E000306F800708D5FFF767FC401BB8424FF008
:1018F0000300F5D9CBE600BFB8F1000F7FF499AE35
:10190000306C20F08050306493E600BFFFF754FC49
:10191000054600BF306880037FF567AEFFF74CFCDB
:10192000401B64284FF00300F4D9B0E670B538B11D
:101930000446406A30B10020206104F1140007E041
:10194000012070BD6068B0F5827F03D004F11C00F7
:10195000002101600026A66294F8510020B92046BB
:1019600084F8506000F03CF8022084F8510094E8BC
:101970000F0001F48271056802F4044225F040056D
:101980000560114403F400622369114403F002026C
:101990006369114403F00102A369E569114403F48A
:1019A0000072114405F03802256A114405F08002E6
:1019B000A56A114305F4005211430160626A0421D3
:1019C00001EA134102F0100211444160C16921F49F
:1019D0000061C1610120666584F85100304670BD28
:1019E0002DE9F04385B0006843F20005C4F201051B
:1019F000A84203D005B0BDE8F08300BF002643F63F
:101A000030000096C4F2020041696C4641F48051F6
:101A1000416141694FF0020801F480510091009941
:101A2000009601684FF0030941F00201016001686E
:101A3000052701F00201009100990096016841F02C
:101A4000010101600068214600F00100009000984B
:101A50001820009005F55440CDE90186CDF80C9092
:101A60000497FFF7C7FA8020CDE9000805F550403C
:101A70002146CDE902690497FFF7BCFA05B0BDE83D
:101A8000F08300002DE9F04182B0044690F8510047
:101A9000012819D160681D4617460E46B0F5827FB1
:101AA00001D1A068A0B1FFF787FB8046002E4FF060
:101AB000010018BF002F03D102B0BDE8F08100BFC4
:101AC00094F85000012811D1022002B0BDE8F08145
:101AD000042084F851002046314632463B460095AA
:101AE00000F00EFA02B0BDE8F08100BF012084F8DA
:101AF00050000420002184F851006165A663A78787
:101B0000E7872163A186E186A2682068B2F5004FCD
:101B10002164616438D00168490640D5E168E08FEE
:101B2000002944D000287BD0681C0CD11BE000BFEA
:101B3000C068A16B21F8020BA163E08F0138E08738
:101B4000E08F00286CD020688168C907F0D1FFF7CA
:101B500033FBA0EB0800A842F2D342E0FFF72CFBD6
:101B6000E08F00285CD020688168C907F6D0C06883
:101B7000A16B21F8020BA163E08F0138E087E08FB1
:101B80000028F0D14CE000BF016821F04001016065
:101B9000016821F48041016001684906BED40168F2
:101BA00041F040010160E168E08F0029BAD1B8B38B
:101BB000681C0CD124E000BF007BA16B0870A06BF7
:101BC0000130A063E08F0138E087E08F40B32068E8
:101BD0008168C907F0D1FFF7EFFAA0EB0800A8422F
:101BE000F3D3012084F85100002084F85000032032
:101BF00002B0BDE8F08100BFFFF7DEFAE08F78B1F8
:101C000020688168C907F7D0007BA16B0870A06BC2
:101C10000130A063E08F0138E087E08F0028EFD12A
:101C20006068B0F5827F0ED1A068B0F5004F02D099
:101C3000B0F5806F0AD12168B0F5806F0A6822F094
:101C400040020A6002D12046012101E020468021A5
:101C500000222B46CDF8008001F0BEF928B1606D5E
:101C600040F02000606520206065012084F851006C
:101C7000002084F85000606D002818BF012002B0D9
:101C8000BDE8F0812DE9F04184B01D4616460F46AF
:101C90000446FFF791FA94F8511001290ED18046BD
:101CA000002F4FF0010018BF002E03D104B0BDE893
:101CB000F08100BF94F85000012803D1022004B045
:101CC000BDE8F081012084F850000320002184F851
:101CD000510061652763A686E686A163A187E18737
:101CE000A0682164B0F5004F2068616407D10168E5
:101CF00021F040010160016841F480410160016808
:101D0000490603D4016841F0400101606168731E17
:101D1000E268B1FA81F1B3FA83F349095B09B2F5DC
:101D2000006F41EA030139D131B137F8021BC160BC
:101D30002763E08E0138E086E08E002870D0681CB2
:101D40000BD11AE0216B31F8022BC2602163E08EC7
:101D50000138E086E08E002862D02068816889071B
:101D6000F0D4FFF729FAA0EB0800A842F2D338E03C
:101D7000FFF722FAE08E002852D020688168890798
:101D8000F6D5216B31F8022BC2602163E08E013859
:101D9000E086E08E0028F0D142E000BF39B139780A
:101DA0000173206B01302063E08E0138E086E08E05
:101DB000B0B3681C0BD123E0216B09780173206B51
:101DC00001302063E08E0138E086E08E40B3206869
:101DD00081688907F0D4FFF7EFF9A0EB0800A8426B
:101DE000F3D3012084F85100002084F85000032030
:101DF00004B0BDE8F08100BFFFF7DEF9E08E78B1F6
:101E0000206881688907F7D5216B09780173206BF9
:101E100001302063E08E0138E086E08E0028EFD1AB
:101E20002046022101222B46CDF8008001F0D4F893
:101E3000E0B1606D40F02000606520206065A06822
:101E400038B9002002902068C16802918068029031
:101E50000298012084F85100002084F85000606D41
:101E6000002818BF012004B0BDE8F08140F208004E
:101E7000C2F20000006849F68171C1F25E61A0FB08
:101E80000101480D4FF47A71484303906068B0F542
:101E9000827F0BD12046802100222B46CDF8008086
:101EA00001F09AF80028C4D1C9E700BF03980028C0
:101EB000C5D0039801380390206880680006BED51D
:101EC00003980028BBD003980138039020688068ED
:101ED0000006B4D503980028B1D0039801380390C8
:101EE000206880680006AAD503980028A7D0039828
:101EF00001380390206880680006D7D49FE700006F
:101F00002DE9F04383B01E4615460F460446FFF701
:101F100053F994F851108146012909D1002F4FF04F
:101F2000010018BF002D0FD103B0BDE8F08300BF42
:101F30006068B0F5827F0DD1A06800284FF00200E4
:101F400008BF0429F0D1E9E7002EEDD094F8500045
:101F5000012803D1022003B0BDE8F083012084F8FA
:101F6000500094F85100002104281CBF052084F87B
:101F700051006165A563E687A6872763E68620682A
:101F8000A686216461640168490603D4016841F0B2
:101F9000400101606168731EE268B1FA81F1B3FA31
:101FA00083F3DDF8288049095B09B2F5006F41EA47
:101FB000030165D131B137F8021BC1602763E08EA0
:101FC0000138E086012518F1010032D102E000BF9E
:101FD000FFF7F2F8E08E18B9E08F002800F0B88023
:101FE0002068816889070CD5E18E51B1012D08D197
:101FF000216B002531F8022BC2602163E18E01398B
:10200000E1868168C907E3D0E18F0029E0D0C0688C
:10201000A16B012521F8020BA163E08F0138E08755
:10202000D6E700BFFFF7C8F8A0EB0900404580F0F5
:10203000A580E08E18B9E08F002800F08980206824
:10204000816889070CD5E18E51B1012D08D1216B32
:10205000002531F8022BC2602163E18E0139E1864F
:102060008168C907DED0E18F0029DBD0C068A16B91
:10207000012521F8020BA163E08F0138E087D1E749
:1020800039B139780173206B01302063E08E01385B
:10209000E086012518F1010032D101E0FFF78CF84C
:1020A000E08E10B9E08F002852D02068816889073F
:1020B0000ED5E18E61B1012D0AD1216B0025097881
:1020C0000173216B206801312163E18E0139E186C2
:1020D0008168C907E2D0E18F0029DFD0C068A16B19
:1020E00001250870A06B0130A063E08F0138E08704
:1020F000D4E700BFFFF760F8A0EB090040453DD2F0
:10210000E08E08B9E08F18B32068816889070ED582
:10211000E18E61B1012D0AD1216B0025097801738F
:10212000216B206801312163E18E0139E1868168EC
:10213000C907DFD0E18F0029DCD0C068A16B012581
:102140000870A06B0130A063E08F0138E087D1E711
:102150002046022101224346CDF8009000F03CFFCA
:10216000B0B1606D40F02000606520206065002007
:1021700084F85000012003B0BDE8F083012084F80A
:102180005100002084F85000032003B0BDE8F08324
:1021900040F20800C2F20000006849F68171C1F205
:1021A0005E61A0FB0101480D4FF47A714843029033
:1021B0006068B0F5827F21D120468021002243460D
:1021C000CDF8009000F008FF0028CAD1A06838B907
:1021D000002001902068C1680191806801900198F9
:1021E000012084F85100002084F85000606D002820
:1021F00018BF012003B0BDE8F08300BF029800289B
:10220000E4D0029801380290206880680006DDD58D
:1022100002980028DAD0029801380290206880687D
:102220000006D3D502980028D0D002980138029039
:10223000206880680006C9D502980028C6D0029898
:1022400001380290206880680006D7D4BEE70000FD
:10225000411E0020B0EB116F1CBF012070474EF2F1
:102260001002CEF2000251604EF62351CEF2000170
:10227000F0230B70072190601160704770470000D9
:102280007047000010B590F83C20012A4FF0020280
:1022900051D080F83D200268D2F804E0D2F808C09E
:1022A0000C682EF07003234341F2FF74C4F2000463
:1022B000A24253600EDC40F2FF73C4F200039A4264
:1022C00016DCB2F1804F2BD040F20043C4F2000381
:1022D00024E000BF40F2FF33C4F201039A4213DC52
:1022E00041F60003C4F200039A4219D0002313E020
:1022F00040F60003C4F200039A4211D040F60043B6
:10230000C4F200030AE000BF44F20003C4F2010378
:102310009A4205D040F20043C4F201039A4204D12C
:1023200049682CF08003194391600121002280F854
:102330003D1080F83C20104610BD0000002804BF6E
:102340000120704710B5044690F83D0028B90020E0
:1023500084F83C00204600F01FF8022084F83D007D
:102360002068211D00F032FF012084F8460084F827
:102370003E0084F83F0084F8400084F8410084F86F
:10238000420084F8430084F8440084F8450084F84F
:102390003D00002010BD000080B582B0006841F211
:1023A0000001C4F2000188421CBF02B080BD0020C1
:1023B000019043F64000C4F202000168002241F09F
:1023C000100101600068002100F0100001900198E8
:1023D0003620FEF7A7FF362002B0BDE88040FEF7AA
:1023E0008DBF000090F83D1001291CBF01207047EF
:1023F000022180F83D10006841F2FF72C168C4F20A
:102400000002904241F00101C1600DDC40F2FF7119
:10241000C4F20001884215DCB0F1804F2AD040F2AE
:102420000041C4F2000123E040F2FF31C4F2010197
:10243000884213DC41F60001C4F20001884219D041
:10244000002113E040F60001C4F20001884211D0DF
:1024500040F60041C4F200010AE000BF44F200016E
:10246000C4F20101884205D040F20041C4F20101EA
:10247000884206D1816801F00701062904BF0020C7
:102480007047016841F001010160002070470000C1
:102490007047000070B504460068C5680669B1075A
:1024A00016D515F0020113D06FF002010161012170
:1024B00021778069800703D02046FFF7E9FF05E018
:1024C000204600F08FF8204600F08EF8002020779C
:1024D000700719D515F0040016D020686FF00401BC
:1024E000016102212177806910F4407F04D02046E9
:1024F000FFF7CEFF06E000BF204600F073F820464D
:1025000000F072F800202077300717D515F008008A
:1025100014D020686FF00801016104212177C0699F
:10252000800703D02046FFF7B3FF05E0204600F008
:1025300059F8204600F058F800202077F00619D509
:1025400015F0100016D020686FF01001016108210D
:102550002177C06910F4407F04D02046FFF798FF30
:1025600006E000BF204600F03DF8204600F03CF8B1
:1025700000202077F00718BF15F0010002D13006C7
:1025800009D412E020686FF001010161204600F0DB
:102590002DF8300609D515F0800006D020686FF0C0
:1025A000800101612046FFF769FE700609D515F02C
:1025B000400006D020686FF040010161204600F025
:1025C0002BF8B00658BF70BD15F0200008D0216868
:1025D0006FF0200220460A61BDE87040FFF750BE50
:1025E00070BD0000704700007047000080B540F2E9
:1025F000EC41C2F2000100680968884218BF80BD42
:1026000041F60040C4F202004FF48061FEF7C6FDBF
:10261000BDE8804001F04ABD7047000070470000EF
:1026200070470000B0B582B0044600680168C36816
:10263000426901F02F05202D03F0200506D12DB1B0
:10264000204602B0BDE8B04000F06CBE5FEA017CFD
:102650001EBF02F0010E03F4907212EB0E0253D172
:10266000226B012A05D111F0100218BF13F01002DD
:1026700036D10A0622D513F080021FD094F84110FB
:1026800021293FD1A168B1F5805F03D121690029DB
:1026900000F07282216A4A1C226209784160E18C52
:1026A00001390A04E1842DD1C16821F08001C160A3
:1026B000C16841F04001C16002B0B0BD490621D5FA
:1026C00013F040011ED0C16821F04001C1602021FB
:1026D000204684F8411002B0BDE8B04000F01CBBB9
:1026E00000210191016801914168019101994069BE
:1026F000400613D4A08DE18DE28D002A18BF8842D8
:1027000040F0BC8102B0B0BDCA0718BF13F480729C
:1027100040F0B8804A0700F1BB80C0E0E06B016880
:1027200049688AB2002AEDD0A38D9A42EAD2E185A7
:10273000C069B0F5807F00F09C80206850E8030FEE
:10274000216820F4807041E80302DAB1206850E883
:10275000030F216820F4807041E8030292B12068E1
:1027600050E8030F216820F4807041E803024AB169
:10277000206850E8030F216820F4807041E80302CC
:10278000002ADAD1206850E8050F216820F0010006
:1027900041E80502DAB1206850E8050F216820F011
:1027A000010041E8050292B1206850E8050F216858
:1027B00020F0010041E805024AB1206850E8050F09
:1027C000216820F0010041E80502002ADAD12068E2
:1027D00050E8050F216820F0400041E80502DAB119
:1027E000206850E8050F216820F0400041E805020C
:1027F00092B1206850E8050F216820F0400041E8C0
:1028000005024AB1206850E8050F216820F0400019
:1028100041E80502002ADAD1202084F84200002095
:102820002063206850E8030F216820F0100041E881
:102830000302DAB1206850E8030F216820F010008D
:1028400041E8030292B1206850E8030F216820F0AC
:10285000100041E803024AB1206850E8030F2168E4
:1028600020F0100041E80302002ADAD1E06BFEF705
:10287000C1F902206063A08DE18D401A81B220462B
:1028800075E100BF626C42F0010262644A0706D53E
:10289000BEF1000F03D0626C42F0020262648A074C
:1028A00006D5BEF1000F03D0626C42F004026264F0
:1028B000BCF1000F09D545EA0E02B2FA82F25209C4
:1028C00003D1626C42F008026264626C002A3FF439
:1028D00019AF11F0200118BF002D03D0204600F0E1
:1028E00021FD20684069616C00F0400001F00801A2
:1028F000401800F0B58000BF206850E8030F216841
:1029000020F4907041E80302BAB3206850E8030F46
:10291000216820F4907041E8030272B3206850E807
:10292000030F216820F4907041E803022AB3206865
:1029300050E8030F216820F4907041E80302002A58
:10294000DAD11AE0206850E8050F216820F0010074
:1029500041E80502DAB1206850E8050F216820F04F
:10296000010041E8050292B1206850E8050F216896
:1029700020F0010041E805024AB1206850E8050F47
:10298000216820F0010041E80502002ADAD1206B1D
:10299000012824D1206850E8030F216820F010009E
:1029A00041E80302DAB1206850E8030F216820F003
:1029B000100041E8030292B1206850E8030F21683B
:1029C00020F0100041E803024AB1206850E8030FEC
:1029D000216820F0100041E80302002ADAD120200B
:1029E00084F84200002020632068406940063FD5FB
:1029F000206850E8050F216820F0400041E80502FA
:102A0000DAB1206850E8050F216820F0400041E865
:102A1000050292B1206850E8050F216820F04000BF
:102A200041E805024AB1206850E8050F216820F00E
:102A3000400041E80502002ADAD1E06BC0B143F260
:102A40001931C0F600010165FEF71CF900283FF4BA
:102A500059AEE06B016D02B0BDE8B040084700BF61
:102A60002046FFF7DDFD0020606402B0B0BD00BF6E
:102A7000204602B0BDE8B040FFF7D2BD401A216841
:102A800051E8031F226821F4907142E80313DBB17F
:102A9000216851E8031F226821F4907142E8031372
:102AA00093B1216851E8031F226821F4907142E834
:102AB00003134BB1216851E8031F226821F4907180
:102AC00042E80313002BDAD1216851E8051F226880
:102AD00021F0010142E80513DBB1216851E8051F2F
:102AE000226821F0010142E8051393B1216851E801
:102AF000051F226821F0010142E805134BB121684E
:102B000051E8051F226821F0010142E80513002B5E
:102B1000DAD1202184F8421000212163216851E894
:102B2000031F226821F0100142E80313DBB1216882
:102B300051E8031F226821F0100142E8031393B10A
:102B4000216851E8031F226821F0100142E80313B5
:102B50004BB1216851E8031F226821F0100142E8BF
:102B60000313002BDAD1022281B22046626302B045
:102B7000BDE8B040FFF752BD216A31F8022B6FF378
:102B80005F22426021628AE5002804BF012070476D
:102B900010B5044690F8410028B9002084F84000A0
:102BA000204600F021F8242084F841002068C16804
:102BB00021F40051C160204600F034FC2068016916
:102BC00021F490410161416921F02A014161C1680C
:102BD00041F40051C16000202021606484F841105C
:102BE00084F84210606310BD2DE9F04786B00446BA
:102BF000006841F20007C4F20107B84202D006B0F3
:102C0000BDE8F087002643F630000196C4F20200CA
:102C1000416901AD41F01001416141694FF0020885
:102C200001F0100101910199019601684FF003092B
:102C300041F00201016001684FF0070A01F0020152
:102C4000019101990196016841F00101016000685C
:102C5000294600F00100019001988020019007F5BD
:102C60007440CDE90286CDF81090CDF814A0FEF79F
:102C7000C1F94FF40070CDE9010803A880E84006CF
:102C800007F570402946FEF7B5F940F2284546F2AF
:102C90004040C2F20005C4F202004FF0006185E836
:102CA00043004FF440304FF480624FF48073C5E925
:102CB00008062846C5E90362C5E90566EB61FEF72B
:102CC000D3F8002818BFFDF7D5FB252000210022EE
:102CD000E563AC63FEF726FB2520FEF70FFB06B08D
:102CE000BDE8F08780B540F23451C2F200010068BF
:102CF0000968884205D140F28C50C2F2000000F011
:102D000009FE40F28C50C2F2000000210182C16035
:102D100081604160016080BD70470000FEE70000F7
:102D200080B540F2D83046F20041C2F20000C4F251
:102D300000010322002380E80E0000F10C014FF493
:102D4000102C4FF4001E81E8085083618383FDF747
:102D5000E9FD002808BF80BDBDE88040FDF78ABBC3
:102D600080B540F2004046F60001C2F20000C4F215
:102D700000010322002380E80E0000F10C014FF453
:102D8000102C4FF4001E81E8085083618383FDF707
:102D9000C9FD002808BF80BDBDE88040FDF76ABBC3
:102DA00080B582B00020019043F63000C4F20200EA
:102DB0000168002241F4800101600068002100F4F4
:102DC0008000019001983A20FEF7ACFA3A2002B058
:102DD000BDE88040FEF792BA2DE9F04786B00024A6
:102DE00043F6300005940094C4F20200016840F2FA
:102DF000000841F0020101600168C4F2020801F01C
:102E00000201009100990094016808F5E05641F034
:102E1000010101600168002201F0010100910099A7
:102E2000009401684FF4806A41F008010160016874
:102E300001F00801009100990094016841F08001BF
:102E4000016000684FF4806100F0800000900098FD
:102E50003046FEF7ABF94046102100224FF0100932
:102E6000FEF7A4F908F58065284601210022012714
:102E7000FEF79CF9CDE901A70DF1040A3046514651
:102E8000CDE90344FEF7B6F840465146CDE9019737
:102E9000CDE90344FEF7AEF828465146CDE9017767
:102EA000CDE90344FEF7A6F806B0BDE8F0870000C0
:102EB00080B540F2884043F20001C2F20000C4F243
:102EC0000001012240F6FF7380E80E00FEF77AF958
:102ED000002808BF80BDBDE88040FDF7CBBA0000E8
:102EE000B0B540F2944043F20001C2F20000C4F2D7
:102EF00001014FF48272002380E80E0000F10C0102
:102F00004FF0020C4FF0010E4FF40074382581E8A9
:102F100008500A21C0E90645C0E90833C0E90A3172
:102F2000FEF704FD002808BFB0BDBDE8B040FDF7C6
:102F3000A1BA000080B582B040F2EC4041F200023C
:102F40000021C2F20000C4F20002532340F2E73C29
:102F5000CDE90011C0E90023C0E9021C8161FFF73F
:102F6000EDF9002818BFFDF785FA40F2EC40C2F2F7
:102F700000006946FFF786F9002818BFFDF77AFAC6
:102F800002B080BD10B540F2345041F2000C48F25E
:102F9000A062C2F20000C4F2010CC0F201024FF4C0
:102FA000805300214FF4806E0424C0E900C2C0E9C0
:102FB0000231C0E904E4C0E90611FFF7E5FD00288D
:102FC00008BF10BDBDE81040FDF754BAFEE7000091
:102FD000FEE70000704700002DE9F04381B0089C37
:102FE000984615460E468146FEF7E6F8201A00EB95
:102FF0000804FEF7E1F840F20801C2F20001096896
:10300000C1F3CB3161430091D9F800108A68324096
:10301000921BB2FA82F25209AA423DD0074618F139
:10302000010031D0FEF7C8F8C01BA04238D200988A
:1030300000990028A1F101010091D9F800108968D8
:1030400008BF044601EA0600801BB0FA80F0400980
:10305000A842E7D120E000BF88683040801BB0FA6A
:1030600080F04009A84217D088683040801BB0FA31
:1030700080F04009A8420FD088683040801BB0FA29
:1030800080F04009A84207D088683040801BB0FA21
:1030900080F04009A842DFD1002001B0BDE8F083F4
:1030A000D9E900014268B1F5827F22F0E002426076
:1030B0000BD1D9F80810B1F5004F02D0B1F5806FEF
:1030C00003D1016821F040010160D9F82810B1F561
:1030D000005F07D1016821F400510160016841F4EB
:1030E00000510160012089F85100002089F850004A
:1030F000032001B0BDE8F08370470000FEF794B8EC
:10310000B0B592B0002443F640000A94CDE90844DB
:103110000594CDE90344CDE901440094C4F20200D2
:103120000168022541F080510160006800F0805084
:103130000090009847F200000094C4F2000001687B
:1031400041F480410160006800F4804000900098E4
:10315000092006904FF48030079001200B904FF427
:1031600080000D9006200E90A820CDE90F050420C8
:10317000119006A80C95FEF71FFA18B172B600BFA1
:10318000FEE700BF0F20CDE901054FF4A0500490E9
:103190004FF48050059001A805210394FEF7FEF836
:1031A00010B172B6FEE700BF12B0B0BD4EF6885047
:1031B000CEF20000016841F4700101607047000028
:1031C00040F2EC40C2F20000FFF764B910B540F6DF
:1031D000FF3E0368C4F2000E40F2004C7045C4F29A
:1031E000010C27DCB0F1804F31D040F20042C4F234
:1031F000000290422BD040F60002C4F2000290423E
:1032000025D041F6FF72C4F20002904229DC7045DD
:103210003CDCB0F1804F5FD040F20042C4F20002CB
:10322000904259D040F60002C4F20002904253D0BE
:1032300056E000BF40F60042C4F20002904206D0C1
:10324000604504D00022C4F201029042D9D14A68FC
:1032500023F07003134341F6FF72C4F20002904260
:10326000D5DD43F6FF72C4F20102904222DC42F245
:103270000002C4F2000290422ED00022C4F20102E9
:10328000904229D0604527D02AE000BF40F6004296
:10329000C4F2000290421FD041F60002C4F20002C4
:1032A000904219D041F60042C4F20002904213D07D
:1032B00016E000BF44F20002C4F2010290420BD0BB
:1032C00044F60002C4F20102904205D044F20042EA
:1032D000C4F20102904203D1CA6823F4407313433D
:1032E00023F080024B69D1F800E08C681A43026039
:1032F000C46240F48062C0F828E0624504BF0969F6
:103300000163012141610169C90708BF10BD01695D
:1033100021F00101016110BD806B0021C185C184D4
:10332000FFF77EB981B090F84210222921D183683D
:103330000246B3F5805F09D152F8281F52F8183CB5
:10334000002B63D003685B680AE000BF52F8281FB7
:1033500013B90369002BF5D003685B6803F07F03A2
:103360000B70116801311160C18D01390A04C185EA
:1033700002D001B0704700BF0168CA6822F0200285
:10338000CA60CA6822F48072CA604A6922F00102E7
:103390004A61202180F8421000214163026B012A1A
:1033A0003CD10163016851E8031F026821F010015C
:1033B00042E80313DBB1016851E8031F026821F002
:1033C000100142E8031393B1016851E8031F02683A
:1033D00021F0100142E803134BB1016851E8031FCB
:1033E000026821F0100142E80313002BDAD10168D2
:1033F0000A68D20606D5002200920A68009249683F
:1034000000910099818D01B0FFF708B902685268F8
:103410006FF35F2221F8022B8162A5E701B0FFF76D
:1034200061BC000010B504460068D4E902C22369FB
:10343000016921F4405111430161626943EA0C01C1
:10344000E3691143C268194349F20C639A4311437B
:10345000C1604169A26921F4407141F20043114306
:1034600040F48062C4F201039A42416102D1FEF746
:1034700059F801E0FEF742F8E16963681922B1F5F5
:10348000004FA0FB020123D15A00DB0FFCF7EEFE38
:1034900048F21F51C5F2EB11A0FB01235A094FF668
:1034A0009C73C0F6FF7303F1805302FB03003223C9
:1034B00003EBC000A0FB01014FF4F87000EA11100B
:1034C00000EB0210C1F3421108442168886010BD6E
:1034D0009A009B0FFCF7CAFE48F21F51C5F2EB1190
:1034E000A0FB01235A094FF69C73C0F6FF7302FB41
:1034F0000300322303EB0010A0FB0101F02000EADF
:10350000511000EB0210C1F3431108442168886098
:1035100010BD000040F23450C2F20000FFF782B844
:10352000FEE700002DE9F04F81B02DED108B9CB02F
:103530009FEDDBFA9FEDDB9A9FEDDBEAB2EE048AAA
:103540000EA8B0EE4F0AF0EE490AB0EE481AF0EEBF
:10355000481AB0EE4E2A00F05DFD9FEDD4BA9FED03
:10356000D4CA9FEDD4DAB0EE00AA6846B0EE480A9D
:10357000F0EE4A0AB0EE4B1AF0EE4C1AB0EE4D2ABD
:1035800000F048FD40F2E020C2F200004FF400716C
:10359000018000210EAF8170DECF0DF1500EDDE90C
:1035A00017AB9EE820508164C264DDE91A12DDF891
:1035B0006480C0E91AEA00F1780E0365C765DDE9A9
:1035C00000378EE88E000DF1200EC0E91CB89EE891
:1035D00006414465C0E9185CDDE9044C8665DDE917
:1035E0000265DDE90637C0E92812DDE90C214FF05C
:1035F0007E59C0E9244C0024C0F80490C0E922653B
:10360000C0E92637C0E92A8EC0E92C21C4600EA883
:10361000B0EE4F0AF0EE490AB0EE481AF0EE481A42
:10362000B0EE4E2A00F0F6FC6846B0EE480AF0EE26
:103630004A0AB0EE4B1AF0EE4C1AB0EE4D2A00F0EA
:10364000E9FC40F22820C2F2000040F201210EAF56
:1036500001808ECF0DF15C0AC0F804900DF1500E80
:103660009AE8000700F1480B8470DDE912659EE8D6
:1036700010508BE88E00DDE91A12DDE90037C0E951
:103680001AE800F1780EC0E916658EE88E00DDE9D3
:103690000637DDE90851C0E9184CDDE9044CDDE9E5
:1036A000026BDDE90A2EC0E92637C0E92851DDE9C1
:1036B0000C319FED81EAC0E9244C0024B3EE04FAFA
:1036C000C0E91C9AC0E9226BC0E92A2EC0E92C315E
:1036D000C4600EA8B0EE4F0AF0EE490AB0EE481AE8
:1036E000F0EE481AB0EE4E2A00F094FCDFED738A3B
:1036F0006846B0EE680AF0EE4A0AB0EE4B1AF0EEF9
:103700004C1AB0EE4D2A00F085FC40F2B800C2F22F
:10371000000002210EAF01808ECF0DF15C0B0DF188
:10372000500E9BE8000E9EE820508164C264DDE9E3
:103730001A12C0E91AE900F1780E8470DDE912640A
:1037400003654765DDE900378EE88E000DF1200E38
:103750009EE80642C0E91664C0E9185CDDE9044C45
:1037600041F67C28DDE90265DDE90637C0E928126B
:10377000DDE90C21C4F22528C0E9244C0024C0F85E
:103780000480C0E91CABC0E92265C0E92637C0E966
:103790002A9EC0E92C21C4600EA8B0EE4F0AF0EEBC
:1037A000490AB0EE481AF0EE481AB0EE4E2A00F080
:1037B00031FC6846B0EE680AF0EE4A0AB0EE4B1AE9
:1037C000F0EE4C1AB0EE4D2A00F024FC40F27010DE
:1037D000C2F2000003210EAF01808ECF0DF15C0A12
:1037E000C0F804800DF1500E9AE8000700F1480B74
:1037F0008470DDE912659EE810508BE88E00DDE9EB
:103800001A12DDE90037C0E91AE800F1780EC0E9C4
:1038100016658EE88E00DDE90637DDE90851C0E95E
:103820002637C0E92851DDE90C31C0E9184CDDE943
:10383000026BDDE9044CDDE90A2EC0E92C310021E0
:10384000C0E91C9AC0E9226BC0E9244CC0E92A2EC9
:10385000C16040F20C00C2F2000090E88E0040F21D
:103860007C50C2F2000080E80E000029C7601CBF37
:1038700001220A72416800291CBF02220A72816873
:1038800000291CBF03220A72C06800281CBF042143
:1038900001721CB0BDEC108B01B0BDE8F08F00BF11
:1038A00000001643CDCCCC3D0000E14400000000F8
:1038B0000000FA430060EA4600401C450000C8438F
:1038C000B0B586B00DF1280E94469EE80540DDE9BE
:1038D0000D45CDE9003040F27C50CDE9022EC2F218
:1038E00000000A4663460494059500F0DBF806B034
:1038F000B0BD000090ED000A9FED041A9FED042A70
:1039000020EE010A80EE020A704700BF0000FA4470
:1039100000FEFF46014640F21C00C2F2000000F02B
:1039200025B9000090ED000A9FED271AB4EE410A78
:10393000F1EE10FA20DD9FED272A00BF30EE020ADB
:10394000B4EE410AF1EE10FA3DDD30EE020AB4EEBB
:10395000410AF1EE10FA36DD30EE020AB4EE410A09
:10396000F1EE10FA2FDD30EE020AB4EE410AF1EE6C
:1039700010FAE3DC27E000BF9FED141AB4EE410A11
:10398000F1EE10FA1FDA9FED122A0EE030EE020A75
:10399000B4EE410AF1EE10FAA8BF704730EE020A09
:1039A000B4EE410AF1EE10FA0DDA30EE020AB4EE8E
:1039B000410AF1EE10FA06DA30EE020AB4EE410ADC
:1039C000F1EE10FAE2DB704700003443000034C32C
:1039D0000000B4430000B4C390ED000A9FED041A48
:1039E00091ED002A20EE010A80EE020A704700BF26
:1039F0000000B44390ED000AB1EE081A20EE010A6F
:103A0000704700000000000080B590ED000A9FEDB7
:103A1000121A9FED122A20EE010A20EE020A10EE81
:103A2000100A00F08FFC9FED080B53EC102B00F0F8
:103A30008BFB9FED070B53EC102B00F085FB00F088
:103A400051FB00EE100A80BD000000000000F83FAE
:103A500000000000000030400000003800007A4400
:103A600001680A7822B1012A06D19FED0D0A01E012
:103A70009FED0A0A81ED030A4068017841B10129EE
:103A800018BF70479FED060A80ED030A704700BF1C
:103A90009FED020A80ED030A704700BF000000009E
:103AA00000000CC3F0B583B0A2F2092111F1040F9C
:103AB00059D302F1FC01C9B200EB810050F8044C6B
:103AC000002C50D00D98818890F90650CEBA4188CC
:103AD0000088CFBAC0BA00EE100A4FF08C40B8EEA2
:103AE000C00A019002A801A98DED020AFFF774FF38
:103AF00094ED0D1A84ED0C0A30EE410A04F1380001
:103B000084ED0E0AFFF70EFF94ED011A606980EE56
:103B1000010A94ED0A1AE061684630EE011A84ED5C
:103B20000B0A00EE107AB8EEC00A84ED0A1A84ED92
:103B3000051A8DED000AFFF75DFF94ED011A02EE04
:103B4000105A80EE010A01EE106A206BB8EEC11A1D
:103B5000B8EEC22A84ED101A84ED112A606384ED58
:103B6000060A84ED0F0A03B0F0BD0000B0B50D7871
:103B70004B789FED481A63F30A2585824B788C7841
:103B80004FEAD30E64F34A1EA0F816E0CC788B7887
:103B900091F804C0A40044EA93136CF38A230383CE
:103BA0000C7991F805C064086CF3CA1444834A790F
:103BB00000EE105AB8EE400A9FED372A4FEA921CE9
:103BC00020EE010A80F81CC030EE020A4A7980ED2E
:103BD000080A80ED000A00EE10EAB8EE400A20EE76
:103BE000010A30EE020A80ED090A80ED010A00EEBA
:103BF000103AB8EE400A20EE010A30EE020A80EDDB
:103C00000A0A80ED020A00EE104AB8EE400A20EEE1
:103C1000010A1109C2F3011230EE020ABCF1010FD0
:103C2000427780ED0B0A80ED030A09D0BCF1030F47
:103C30000AD0BCF1020F0DD1B0EE000A022206E05C
:103C4000B7EE000A012202E0B0EE080A0322027475
:103C500080ED0C0A01F0030101290BD0032911D0DA
:103C6000022918BFB0BDB0EE000A0221417480EDF8
:103C70000D0AB0BDB7EE000A0121417480ED0D0AB6
:103C8000B0BD00BFB0EE080A0321417480ED0D0AFB
:103C9000B0BD00BF0C98C63A0C98C6BF70B584B0D2
:103CA00040F29C31C2F200010A6840F2004504462D
:103CB000501CC4F202050860284601210022FDF7CD
:103CC00075FA40F294468220C2F200068DF8040094
:103CD00001A9304601224FF0FF33FDF7D3FF0DF16C
:103CE0000A01304606224FF0FF33FDF7CBFE28468F
:103CF00001210122FDF75AFABDF90A00BDF90C5065
:103D000000EE100ABDF90E60B8EEC00A01A88DEDF4
:103D1000010AFFF7EFFD84ED040A00EE105AB8EE39
:103D2000C00A01A88DED010AFFF7E4FD84ED050A44
:103D300000EE106AB8EEC00A01A88DED010AFFF787
:103D4000D9FD84ED060A04B070BD0000F0B583B063
:103D50000025C4F202050446284610210022FDF782
:103D600025FA40F294469220C2F200068DF8000037
:103D70006946304601224FF0FF33FDF783FF0DF116
:103D800006073046394601224FF0FF33FDF77AFE31
:103D90003046394606224FF0FF33FDF773FE2846C2
:103DA00010210122FDF702FABDF90600BDF9085005
:103DB00000EE100ABDF90A60B8EEC00A68468DED43
:103DC000000AFFF721FE84ED010A00EE105AB8EE5A
:103DD000C00A68468DED000AFFF716FE84ED020A60
:103DE00000EE106AB8EEC00A68468DED000AFFF7D3
:103DF0000BFE84ED030A03B0F0BD00002DE9F04393
:103E000083B040F20009C4F20209804648461021FE
:103E100000220024FDF7CAF940F294457E20C2F248
:103E20000005B6268DF800006946284601224FF0AD
:103E3000FF338DF80160FDF725FF0DF101012846E4
:103E400001224FF0FF33FDF71DFF0120FDF7BEF803
:103E5000484610210122FDF7A9F909F58067384687
:103E600001210022FDF7A2F914208DF802000DF1C6
:103E70000201284601224FF0FF338DF80360FDF761
:103E800001FF0DF10301284601224FF0FF33FDF73A
:103E9000F9FE1E20FDF79AF8384601210122FDF7B0
:103EA00085F9484610210022FDF780F90120FDF731
:103EB0008DF804208DF805007D208DF8040001A9FF
:103EC000284601224FF0FF33FDF7DCFE0DF105011E
:103ED000284601224FF0FF33FDF7D4FE0120FDF705
:103EE00075F8484610210122FDF760F93846012196
:103EF0000022FDF75BF90F208DF806000DF1060199
:103F0000284601224FF0FF338DF80740FDF7BAFE37
:103F10000DF10701284601224FF0FF33FDF7B2FEF5
:103F2000384601210122FDF741F9484610210022BF
:103F3000FDF73CF941208DF8080002A9284601222E
:103F40004FF0FF338DF80940FDF79CFE0DF109019C
:103F5000284601224FF0FF33FDF794FE484610211A
:103F60000122FDF723F938460121002208F101065C
:103F700008F10204FDF71AF94FF080080DF10A016B
:103F8000284601224FF0FF338DF80A80FDF77AFEB4
:103F90002846214601224FF0FF33FDF773FD3846D6
:103FA00001210122FDF702F9484610210022FDF708
:103FB000FDF80DF10B01284601224FF0FF338DF87B
:103FC0000B80FDF75FFE2846314601224FF0FF339C
:103FD000FDF758FD2846314601224FF0FF33FDF72B
:103FE00051FD484610210122FDF7E0F803B0BDE87D
:103FF000F083000010B50446FFF7A8FE2046FFF747
:104000004DFE04F1040E9EE80F501C3484E80F505E
:1040100010BD000080EC050A70470000B0B58AB002
:104020006C4620462821FCF799F940F2D83501204A
:10403000C2F20005CDE9070028462146FCF736FA12
:104040002846FCF79BFD28460221FCF717FA0AB028
:10405000B0BD000040F2A430C2F20000FFF7CEBEB7
:10406000FDF7F0F8FFF74CF8FEF7B6FEFEF798FE06
:10407000FEF71EFFFEF75EFFFEF752FEFEF770FE34
:10408000FEF780FFFEF72CFFFFF7C8FF00F024F8D3
:10409000FFF7E0FF0120FCF799FF40F2EC40C2F28D
:1040A0000000FEF79FF900BFFEE7000080B540F278
:1040B0008840C2F20000FDF7B1F840F2A031C2F230
:1040C00000010868421C40F2A430C2F200000A60FD
:1040D000BDE88040FFF78EBF40F27C50C2F2000086
:1040E000FFF7BEBC21F0004201F00043A2F1605294
:1040F000B2F5801F28BFD2F17F6C0BD95FEA001C9C
:1041000043EAC20242EB507018BF704728BF20F04C
:1041100001007047B2F5801FBCBF184670474FEAD8
:10412000410C1CF5001F02D2084600F089B970B599
:1041300000F0B4F800000089FFF7F6BF4FF0004030
:10414000A0F580007047000070B5DFF848C11CEA98
:10415000111E1EBF1CEA13159EEA0C0F95EA0C0FE8
:1041600000F06F8081EA03044EEAD47EAE4421EA77
:104170004C1123EA4C1341F4801143F48013AEF147
:104180007F7EA1FB024CA0FB0365361955EB0C05A5
:10419000A1FB034C4CF10003A0FB021C16EB0C0628
:1041A000654153F10003094218BF46F0010613F4BC
:1041B000007F0BD14FEA03314FEA053041EA155138
:1041C00040EA165034036FF003020AE04FEAC321BD
:1041D0004FEAC52041EA555140EA5650F4026FF0CB
:1041E000020202EB2E4201EB025585EACE710AD0A3
:1041F0005FEA440C18BF24F0004450F1000041F184
:10420000000120EAD47040F2FE7C624500D270BD0D
:10421000A84214BF4FF080444FF04044002E08BF26
:104220000024BEF1806FA8BFA1F1C041BDE870407D
:1042300080F2828001F1C04101F000414FF00000A6
:1042400070470CEA13159EEA0C0F18BF95EA0C0F85
:1042500006D081EA030E4FF000000EF0004170BD61
:1042600000F01CF88900013E00F007B800F009B822
:104270004FEA430C5FEA5C5C08D081EA030100F07E
:104280005BB84FEA410C5FEA5C5CF6D102494FF043
:10429000000070470000FF070000F87F0EF1020EDB
:1042A0002EF0030E5EF8046B364205D4012A43EB70
:1042B000030515F5001F12D8012841EB010C1CF570
:1042C000001F0CD80ED14FEAD17C0CEB4C0C0CF13A
:1042D000020C15F5001F08BF4CEBD37C04E04FF037
:1042E000080C01E04FEAD37C0CEB4C0526FA05F6EE
:1042F00006F00706B6F1040C06D20EEB860CBDE8FC
:1043000070404CF0010C6047DFE80CF0090B020232
:104310004FF00041A1F500214FF0000070BD19469B
:104320001046012851EB010418BFD4F5001484BFD6
:10433000002001F0004170BD0808A0F500114FEA0F
:104340003101704743004FEAD30C4FEA3C0C434025
:104350001FBF40070CF1605113F0FE4F70471CF077
:10436000006F03D10CF00041002070470CF00043B7
:1043700043EA507040EACC0010B500F00EF800BFE0
:10438000000000924FEA0001FFF7D6BF4FF0004156
:10439000A1F500214FF0000070470EF1020E2EF043
:1043A000030E5EF8044B244204D44FEA4102B2F1FA
:1043B0007F4F11D84FEA4003B3F17F4F0CD80ED195
:1043C0004FEAD07C0CEB4C0C0CF1020CB2F17F4F9D
:1043D00008BF4CEBD17C04E04FF0080C01E04FEA41
:1043E000D17C0CEB4C0324FA03F404F00704B4F181
:1043F000040C06D20EEB840CBDE810404CF0010C0E
:104400006047DFE80CF0070802024FF00040A0F51B
:10441000800010BD0846420018BFD2F1807288BFEC
:1044200000F0004010BDF1EE100A4FF6FF71C0F22F
:10443000C03120EA010040F04070E1EE100A704700
:10444000FF2141EAD050C005704700000000000085
:104450000000010203040607080900000000010231
:104460000304000610160006101600009044000811
:104470000000002058000000C4010008E8440008C3
:1044800058000020400B0000E001000899F0FFFFF9
:1044900001000000100000000024F40028020020A9
:1044A000E0020020B80000207001002000000000A1
:1044B00000000000000000000000000003030000F6
:1044C00000000000000000000000000000000000EC
:1044D00000000000000000000000000000000000DC
:0844E0000000000000000000D4
:040000050800018965
:00000001FF
